{
	"default_workspace/contracts/LinkShield.sol": {
		"LinkShield": {
			"abi": [
				{
					"inputs": [],
					"stateMutability": "nonpayable",
					"type": "constructor"
				},
				{
					"inputs": [
						{
							"internalType": "string",
							"name": "url",
							"type": "string"
						},
						{
							"internalType": "string",
							"name": "linkId",
							"type": "string"
						},
						{
							"internalType": "uint256",
							"name": "fee",
							"type": "uint256"
						}
					],
					"name": "addLink",
					"outputs": [],
					"stateMutability": "nonpayable",
					"type": "function"
				},
				{
					"inputs": [],
					"name": "admin",
					"outputs": [
						{
							"internalType": "address",
							"name": "",
							"type": "address"
						}
					],
					"stateMutability": "view",
					"type": "function"
				},
				{
					"inputs": [],
					"name": "commission",
					"outputs": [
						{
							"internalType": "uint256",
							"name": "",
							"type": "uint256"
						}
					],
					"stateMutability": "view",
					"type": "function"
				},
				{
					"inputs": [
						{
							"internalType": "string",
							"name": "linkId",
							"type": "string"
						}
					],
					"name": "getLink",
					"outputs": [
						{
							"components": [
								{
									"internalType": "string",
									"name": "url",
									"type": "string"
								},
								{
									"internalType": "address",
									"name": "owner",
									"type": "address"
								},
								{
									"internalType": "uint256",
									"name": "fee",
									"type": "uint256"
								}
							],
							"internalType": "struct LinkShield.Link",
							"name": "",
							"type": "tuple"
						}
					],
					"stateMutability": "view",
					"type": "function"
				},
				{
					"inputs": [
						{
							"internalType": "string",
							"name": "",
							"type": "string"
						},
						{
							"internalType": "address",
							"name": "",
							"type": "address"
						}
					],
					"name": "hasAccess",
					"outputs": [
						{
							"internalType": "bool",
							"name": "",
							"type": "bool"
						}
					],
					"stateMutability": "view",
					"type": "function"
				},
				{
					"inputs": [
						{
							"internalType": "string",
							"name": "linkId",
							"type": "string"
						}
					],
					"name": "payLink",
					"outputs": [],
					"stateMutability": "payable",
					"type": "function"
				},
				{
					"inputs": [],
					"name": "withdraw",
					"outputs": [],
					"stateMutability": "nonpayable",
					"type": "function"
				}
			],
			"devdoc": {
				"kind": "dev",
				"methods": {},
				"version": 1
			},
			"evm": {
				"assembly": "    /* \"default_workspace/contracts/LinkShield.sol\":59:1773  contract LinkShield {... */\n  mstore(0x40, 0xa0)\n    /* \"default_workspace/contracts/LinkShield.sol\":203:204  1 */\n  0x01\n    /* \"default_workspace/contracts/LinkShield.sol\":175:204  uint256 public commission = 1 */\n  0x00\n  sstore\n    /* \"default_workspace/contracts/LinkShield.sol\":357:406  constructor() {... */\n  callvalue\n  dup1\n  iszero\n  tag_1\n  jumpi\n  revert(0x00, 0x00)\ntag_1:\n  pop\n    /* \"default_workspace/contracts/LinkShield.sol\":389:399  msg.sender */\n  caller\n    /* \"default_workspace/contracts/LinkShield.sol\":381:399  admin = msg.sender */\n  0xffffffffffffffffffffffffffffffffffffffff\n  and\n  0x80\n  dup2\n  0xffffffffffffffffffffffffffffffffffffffff\n  and\n  dup2\n  mstore\n  pop\n  pop\n    /* \"default_workspace/contracts/LinkShield.sol\":59:1773  contract LinkShield {... */\n  mload(0x80)\n  codecopy(0x00, dataOffset(sub_0), dataSize(sub_0))\n  0x00\n  assignImmutable(\"0x6585423cb6456b1d4957f6454d2f004f0c4f58d53a00082412d5c2ef4b1b31fd\")\n  return(0x00, dataSize(sub_0))\nstop\n\nsub_0: assembly {\n        /* \"default_workspace/contracts/LinkShield.sol\":59:1773  contract LinkShield {... */\n      mstore(0x40, 0x80)\n      jumpi(tag_1, lt(calldatasize, 0x04))\n      shr(0xe0, calldataload(0x00))\n      dup1\n      0x7476452a\n      gt\n      tag_9\n      jumpi\n      dup1\n      0x7476452a\n      eq\n      tag_5\n      jumpi\n      dup1\n      0xe1489191\n      eq\n      tag_6\n      jumpi\n      dup1\n      0xf851a440\n      eq\n      tag_7\n      jumpi\n      dup1\n      0xfc5f2b78\n      eq\n      tag_8\n      jumpi\n      jump(tag_1)\n    tag_9:\n      dup1\n      0x13bd20e2\n      eq\n      tag_2\n      jumpi\n      dup1\n      0x3ccfd60b\n      eq\n      tag_3\n      jumpi\n      dup1\n      0x429cad86\n      eq\n      tag_4\n      jumpi\n    tag_1:\n      revert(0x00, 0x00)\n        /* \"default_workspace/contracts/LinkShield.sol\":254:314  mapping(string => mapping(address => bool)) public hasAccess */\n    tag_2:\n      callvalue\n      dup1\n      iszero\n      tag_10\n      jumpi\n      revert(0x00, 0x00)\n    tag_10:\n      pop\n      tag_11\n      0x04\n      dup1\n      calldatasize\n      sub\n      dup2\n      add\n      swap1\n      tag_12\n      swap2\n      swap1\n      tag_13\n      jump\t// in\n    tag_12:\n      tag_14\n      jump\t// in\n    tag_11:\n      mload(0x40)\n      tag_15\n      swap2\n      swap1\n      tag_16\n      jump\t// in\n    tag_15:\n      mload(0x40)\n      dup1\n      swap2\n      sub\n      swap1\n      return\n        /* \"default_workspace/contracts/LinkShield.sol\":1580:1771  function withdraw() public {... */\n    tag_3:\n      callvalue\n      dup1\n      iszero\n      tag_17\n      jumpi\n      revert(0x00, 0x00)\n    tag_17:\n      pop\n      tag_18\n      tag_19\n      jump\t// in\n    tag_18:\n      stop\n        /* \"default_workspace/contracts/LinkShield.sol\":877:1302  function payLink(string calldata linkId) public payable {... */\n    tag_4:\n      tag_20\n      0x04\n      dup1\n      calldatasize\n      sub\n      dup2\n      add\n      swap1\n      tag_21\n      swap2\n      swap1\n      tag_22\n      jump\t// in\n    tag_21:\n      tag_23\n      jump\t// in\n    tag_20:\n      stop\n        /* \"default_workspace/contracts/LinkShield.sol\":1308:1570  function getLink(string calldata linkId) public view returns (Link memory){... */\n    tag_5:\n      callvalue\n      dup1\n      iszero\n      tag_24\n      jumpi\n      revert(0x00, 0x00)\n    tag_24:\n      pop\n      tag_25\n      0x04\n      dup1\n      calldatasize\n      sub\n      dup2\n      add\n      swap1\n      tag_26\n      swap2\n      swap1\n      tag_22\n      jump\t// in\n    tag_26:\n      tag_27\n      jump\t// in\n    tag_25:\n      mload(0x40)\n      tag_28\n      swap2\n      swap1\n      tag_29\n      jump\t// in\n    tag_28:\n      mload(0x40)\n      dup1\n      swap2\n      sub\n      swap1\n      return\n        /* \"default_workspace/contracts/LinkShield.sol\":175:204  uint256 public commission = 1 */\n    tag_6:\n      callvalue\n      dup1\n      iszero\n      tag_30\n      jumpi\n      revert(0x00, 0x00)\n    tag_30:\n      pop\n      tag_31\n      tag_32\n      jump\t// in\n    tag_31:\n      mload(0x40)\n      tag_33\n      swap2\n      swap1\n      tag_34\n      jump\t// in\n    tag_33:\n      mload(0x40)\n      dup1\n      swap2\n      sub\n      swap1\n      return\n        /* \"default_workspace/contracts/LinkShield.sol\":320:350  address public immutable admin */\n    tag_7:\n      callvalue\n      dup1\n      iszero\n      tag_35\n      jumpi\n      revert(0x00, 0x00)\n    tag_35:\n      pop\n      tag_36\n      tag_37\n      jump\t// in\n    tag_36:\n      mload(0x40)\n      tag_38\n      swap2\n      swap1\n      tag_39\n      jump\t// in\n    tag_38:\n      mload(0x40)\n      dup1\n      swap2\n      sub\n      swap1\n      return\n        /* \"default_workspace/contracts/LinkShield.sol\":412:871  function addLink(string calldata url, string calldata linkId, uint256 fee) public {... */\n    tag_8:\n      callvalue\n      dup1\n      iszero\n      tag_40\n      jumpi\n      revert(0x00, 0x00)\n    tag_40:\n      pop\n      tag_41\n      0x04\n      dup1\n      calldatasize\n      sub\n      dup2\n      add\n      swap1\n      tag_42\n      swap2\n      swap1\n      tag_43\n      jump\t// in\n    tag_42:\n      tag_44\n      jump\t// in\n    tag_41:\n      stop\n        /* \"default_workspace/contracts/LinkShield.sol\":254:314  mapping(string => mapping(address => bool)) public hasAccess */\n    tag_14:\n      0x02\n      dup3\n      dup1\n      mload\n      0x20\n      dup2\n      add\n      dup3\n      add\n      dup1\n      mload\n      dup5\n      dup3\n      mstore\n      0x20\n      dup4\n      add\n      0x20\n      dup6\n      add\n      keccak256\n      dup2\n      dup4\n      mstore\n      dup1\n      swap6\n      pop\n      pop\n      pop\n      pop\n      pop\n      pop\n      0x20\n      mstore\n      dup1\n      0x00\n      mstore\n      keccak256(0x00, 0x40)\n      0x00\n      swap2\n      pop\n      swap2\n      pop\n      swap1\n      sload\n      swap1\n      0x0100\n      exp\n      swap1\n      div\n      0xff\n      and\n      dup2\n      jump\t// out\n        /* \"default_workspace/contracts/LinkShield.sol\":1580:1771  function withdraw() public {... */\n    tag_19:\n        /* \"default_workspace/contracts/LinkShield.sol\":1639:1644  admin */\n      immutable(\"0x6585423cb6456b1d4957f6454d2f004f0c4f58d53a00082412d5c2ef4b1b31fd\")\n        /* \"default_workspace/contracts/LinkShield.sol\":1625:1644  msg.sender == admin */\n      0xffffffffffffffffffffffffffffffffffffffff\n      and\n        /* \"default_workspace/contracts/LinkShield.sol\":1625:1635  msg.sender */\n      caller\n        /* \"default_workspace/contracts/LinkShield.sol\":1625:1644  msg.sender == admin */\n      0xffffffffffffffffffffffffffffffffffffffff\n      and\n      eq\n        /* \"default_workspace/contracts/LinkShield.sol\":1617:1675  require(msg.sender == admin, \"you do not have permission\") */\n      tag_46\n      jumpi\n      mload(0x40)\n      0x08c379a000000000000000000000000000000000000000000000000000000000\n      dup2\n      mstore\n      0x04\n      add\n      tag_47\n      swap1\n      tag_48\n      jump\t// in\n    tag_47:\n      mload(0x40)\n      dup1\n      swap2\n      sub\n      swap1\n      revert\n    tag_46:\n        /* \"default_workspace/contracts/LinkShield.sol\":1685:1699  uint256 amount */\n      0x00\n        /* \"default_workspace/contracts/LinkShield.sol\":1702:1723  address(this).balance */\n      selfbalance\n        /* \"default_workspace/contracts/LinkShield.sol\":1685:1723  uint256 amount = address(this).balance */\n      swap1\n      pop\n        /* \"default_workspace/contracts/LinkShield.sol\":1741:1746  admin */\n      immutable(\"0x6585423cb6456b1d4957f6454d2f004f0c4f58d53a00082412d5c2ef4b1b31fd\")\n        /* \"default_workspace/contracts/LinkShield.sol\":1733:1756  payable(admin).transfer */\n      0xffffffffffffffffffffffffffffffffffffffff\n      and\n        /* \"default_workspace/contracts/LinkShield.sol\":1733:1764  payable(admin).transfer(amount) */\n      0x08fc\n        /* \"default_workspace/contracts/LinkShield.sol\":1757:1763  amount */\n      dup3\n        /* \"default_workspace/contracts/LinkShield.sol\":1733:1764  payable(admin).transfer(amount) */\n      swap1\n      dup2\n      iszero\n      mul\n      swap1\n      mload(0x40)\n      0x00\n      mload(0x40)\n      dup1\n      dup4\n      sub\n      dup2\n      dup6\n      dup9\n      dup9\n      call\n      swap4\n      pop\n      pop\n      pop\n      pop\n      iszero\n      dup1\n      iszero\n      tag_50\n      jumpi\n      returndatacopy(0x00, 0x00, returndatasize)\n      revert(0x00, returndatasize)\n    tag_50:\n      pop\n        /* \"default_workspace/contracts/LinkShield.sol\":1607:1771  {... */\n      pop\n        /* \"default_workspace/contracts/LinkShield.sol\":1580:1771  function withdraw() public {... */\n      jump\t// out\n        /* \"default_workspace/contracts/LinkShield.sol\":877:1302  function payLink(string calldata linkId) public payable {... */\n    tag_23:\n        /* \"default_workspace/contracts/LinkShield.sol\":943:959  Link memory link */\n      0x00\n        /* \"default_workspace/contracts/LinkShield.sol\":962:967  links */\n      0x01\n        /* \"default_workspace/contracts/LinkShield.sol\":968:974  linkId */\n      dup4\n      dup4\n        /* \"default_workspace/contracts/LinkShield.sol\":962:975  links[linkId] */\n      mload(0x40)\n      tag_52\n      swap3\n      swap2\n      swap1\n      tag_53\n      jump\t// in\n    tag_52:\n      swap1\n      dup2\n      mstore\n      0x20\n      add\n      mload(0x40)\n      dup1\n      swap2\n      sub\n      swap1\n      keccak256\n        /* \"default_workspace/contracts/LinkShield.sol\":943:975  Link memory link = links[linkId] */\n      mload(0x40)\n      dup1\n      0x60\n      add\n      0x40\n      mstore\n      swap1\n      dup2\n      0x00\n      dup3\n      add\n      dup1\n      sload\n      tag_54\n      swap1\n      tag_55\n      jump\t// in\n    tag_54:\n      dup1\n      0x1f\n      add\n      0x20\n      dup1\n      swap2\n      div\n      mul\n      0x20\n      add\n      mload(0x40)\n      swap1\n      dup2\n      add\n      0x40\n      mstore\n      dup1\n      swap3\n      swap2\n      swap1\n      dup2\n      dup2\n      mstore\n      0x20\n      add\n      dup3\n      dup1\n      sload\n      tag_56\n      swap1\n      tag_55\n      jump\t// in\n    tag_56:\n      dup1\n      iszero\n      tag_57\n      jumpi\n      dup1\n      0x1f\n      lt\n      tag_58\n      jumpi\n      0x0100\n      dup1\n      dup4\n      sload\n      div\n      mul\n      dup4\n      mstore\n      swap2\n      0x20\n      add\n      swap2\n      jump(tag_57)\n    tag_58:\n      dup3\n      add\n      swap2\n      swap1\n      0x00\n      mstore\n      keccak256(0x00, 0x20)\n      swap1\n    tag_59:\n      dup2\n      sload\n      dup2\n      mstore\n      swap1\n      0x01\n      add\n      swap1\n      0x20\n      add\n      dup1\n      dup4\n      gt\n      tag_59\n      jumpi\n      dup3\n      swap1\n      sub\n      0x1f\n      and\n      dup3\n      add\n      swap2\n    tag_57:\n      pop\n      pop\n      pop\n      pop\n      pop\n      dup2\n      mstore\n      0x20\n      add\n      0x01\n      dup3\n      add\n      0x00\n      swap1\n      sload\n      swap1\n      0x0100\n      exp\n      swap1\n      div\n      0xffffffffffffffffffffffffffffffffffffffff\n      and\n      0xffffffffffffffffffffffffffffffffffffffff\n      and\n      0xffffffffffffffffffffffffffffffffffffffff\n      and\n      dup2\n      mstore\n      0x20\n      add\n      0x02\n      dup3\n      add\n      sload\n      dup2\n      mstore\n      pop\n      pop\n      swap1\n      pop\n        /* \"default_workspace/contracts/LinkShield.sol\":1015:1016  0 */\n      0x00\n        /* \"default_workspace/contracts/LinkShield.sol\":993:1017  link.owner != address(0) */\n      0xffffffffffffffffffffffffffffffffffffffff\n      and\n        /* \"default_workspace/contracts/LinkShield.sol\":993:997  link */\n      dup2\n        /* \"default_workspace/contracts/LinkShield.sol\":993:1003  link.owner */\n      0x20\n      add\n      mload\n        /* \"default_workspace/contracts/LinkShield.sol\":993:1017  link.owner != address(0) */\n      0xffffffffffffffffffffffffffffffffffffffff\n      and\n      sub\n        /* \"default_workspace/contracts/LinkShield.sol\":985:1036  require(link.owner != address(0), \"Link not found\") */\n      tag_60\n      jumpi\n      mload(0x40)\n      0x08c379a000000000000000000000000000000000000000000000000000000000\n      dup2\n      mstore\n      0x04\n      add\n      tag_61\n      swap1\n      tag_62\n      jump\t// in\n    tag_61:\n      mload(0x40)\n      dup1\n      swap2\n      sub\n      swap1\n      revert\n    tag_60:\n        /* \"default_workspace/contracts/LinkShield.sol\":1087:1092  false */\n      0x00\n        /* \"default_workspace/contracts/LinkShield.sol\":1054:1092  hasAccess[linkId][msg.sender] == false */\n      iszero\n      iszero\n        /* \"default_workspace/contracts/LinkShield.sol\":1054:1063  hasAccess */\n      0x02\n        /* \"default_workspace/contracts/LinkShield.sol\":1064:1070  linkId */\n      dup5\n      dup5\n        /* \"default_workspace/contracts/LinkShield.sol\":1054:1071  hasAccess[linkId] */\n      mload(0x40)\n      tag_63\n      swap3\n      swap2\n      swap1\n      tag_53\n      jump\t// in\n    tag_63:\n      swap1\n      dup2\n      mstore\n      0x20\n      add\n      mload(0x40)\n      dup1\n      swap2\n      sub\n      swap1\n      keccak256\n        /* \"default_workspace/contracts/LinkShield.sol\":1054:1083  hasAccess[linkId][msg.sender] */\n      0x00\n        /* \"default_workspace/contracts/LinkShield.sol\":1072:1082  msg.sender */\n      caller\n        /* \"default_workspace/contracts/LinkShield.sol\":1054:1083  hasAccess[linkId][msg.sender] */\n      0xffffffffffffffffffffffffffffffffffffffff\n      and\n      0xffffffffffffffffffffffffffffffffffffffff\n      and\n      dup2\n      mstore\n      0x20\n      add\n      swap1\n      dup2\n      mstore\n      0x20\n      add\n      0x00\n      keccak256\n      0x00\n      swap1\n      sload\n      swap1\n      0x0100\n      exp\n      swap1\n      div\n      0xff\n      and\n        /* \"default_workspace/contracts/LinkShield.sol\":1054:1092  hasAccess[linkId][msg.sender] == false */\n      iszero\n      iszero\n      eq\n        /* \"default_workspace/contracts/LinkShield.sol\":1046:1120  require(hasAccess[linkId][msg.sender] == false, \"You already have access\") */\n      tag_64\n      jumpi\n      mload(0x40)\n      0x08c379a000000000000000000000000000000000000000000000000000000000\n      dup2\n      mstore\n      0x04\n      add\n      tag_65\n      swap1\n      tag_66\n      jump\t// in\n    tag_65:\n      mload(0x40)\n      dup1\n      swap2\n      sub\n      swap1\n      revert\n    tag_64:\n        /* \"default_workspace/contracts/LinkShield.sol\":1152:1156  link */\n      dup1\n        /* \"default_workspace/contracts/LinkShield.sol\":1152:1160  link.fee */\n      0x40\n      add\n      mload\n        /* \"default_workspace/contracts/LinkShield.sol\":1139:1148  msg.value */\n      callvalue\n        /* \"default_workspace/contracts/LinkShield.sol\":1139:1160  msg.value >= link.fee */\n      lt\n      iszero\n        /* \"default_workspace/contracts/LinkShield.sol\":1131:1185  require(msg.value >= link.fee, \"Insufficient payment\") */\n      tag_67\n      jumpi\n      mload(0x40)\n      0x08c379a000000000000000000000000000000000000000000000000000000000\n      dup2\n      mstore\n      0x04\n      add\n      tag_68\n      swap1\n      tag_69\n      jump\t// in\n    tag_68:\n      mload(0x40)\n      dup1\n      swap2\n      sub\n      swap1\n      revert\n    tag_67:\n        /* \"default_workspace/contracts/LinkShield.sol\":1228:1232  true */\n      0x01\n        /* \"default_workspace/contracts/LinkShield.sol\":1196:1205  hasAccess */\n      0x02\n        /* \"default_workspace/contracts/LinkShield.sol\":1206:1212  linkId */\n      dup5\n      dup5\n        /* \"default_workspace/contracts/LinkShield.sol\":1196:1213  hasAccess[linkId] */\n      mload(0x40)\n      tag_70\n      swap3\n      swap2\n      swap1\n      tag_53\n      jump\t// in\n    tag_70:\n      swap1\n      dup2\n      mstore\n      0x20\n      add\n      mload(0x40)\n      dup1\n      swap2\n      sub\n      swap1\n      keccak256\n        /* \"default_workspace/contracts/LinkShield.sol\":1196:1225  hasAccess[linkId][msg.sender] */\n      0x00\n        /* \"default_workspace/contracts/LinkShield.sol\":1214:1224  msg.sender */\n      caller\n        /* \"default_workspace/contracts/LinkShield.sol\":1196:1225  hasAccess[linkId][msg.sender] */\n      0xffffffffffffffffffffffffffffffffffffffff\n      and\n      0xffffffffffffffffffffffffffffffffffffffff\n      and\n      dup2\n      mstore\n      0x20\n      add\n      swap1\n      dup2\n      mstore\n      0x20\n      add\n      0x00\n      keccak256\n      0x00\n        /* \"default_workspace/contracts/LinkShield.sol\":1196:1232  hasAccess[linkId][msg.sender] = true */\n      0x0100\n      exp\n      dup2\n      sload\n      dup2\n      0xff\n      mul\n      not\n      and\n      swap1\n      dup4\n      iszero\n      iszero\n      mul\n      or\n      swap1\n      sstore\n      pop\n        /* \"default_workspace/contracts/LinkShield.sol\":1250:1254  link */\n      dup1\n        /* \"default_workspace/contracts/LinkShield.sol\":1250:1260  link.owner */\n      0x20\n      add\n      mload\n        /* \"default_workspace/contracts/LinkShield.sol\":1242:1270  payable(link.owner).transfer */\n      0xffffffffffffffffffffffffffffffffffffffff\n      and\n        /* \"default_workspace/contracts/LinkShield.sol\":1242:1294  payable(link.owner).transfer(msg.value - commission) */\n      0x08fc\n        /* \"default_workspace/contracts/LinkShield.sol\":1283:1293  commission */\n      sload(0x00)\n        /* \"default_workspace/contracts/LinkShield.sol\":1271:1280  msg.value */\n      callvalue\n        /* \"default_workspace/contracts/LinkShield.sol\":1271:1293  msg.value - commission */\n      tag_71\n      swap2\n      swap1\n      tag_72\n      jump\t// in\n    tag_71:\n        /* \"default_workspace/contracts/LinkShield.sol\":1242:1294  payable(link.owner).transfer(msg.value - commission) */\n      swap1\n      dup2\n      iszero\n      mul\n      swap1\n      mload(0x40)\n      0x00\n      mload(0x40)\n      dup1\n      dup4\n      sub\n      dup2\n      dup6\n      dup9\n      dup9\n      call\n      swap4\n      pop\n      pop\n      pop\n      pop\n      iszero\n      dup1\n      iszero\n      tag_74\n      jumpi\n      returndatacopy(0x00, 0x00, returndatasize)\n      revert(0x00, returndatasize)\n    tag_74:\n      pop\n        /* \"default_workspace/contracts/LinkShield.sol\":933:1302  {... */\n      pop\n        /* \"default_workspace/contracts/LinkShield.sol\":877:1302  function payLink(string calldata linkId) public payable {... */\n      pop\n      pop\n      jump\t// out\n        /* \"default_workspace/contracts/LinkShield.sol\":1308:1570  function getLink(string calldata linkId) public view returns (Link memory){... */\n    tag_27:\n        /* \"default_workspace/contracts/LinkShield.sol\":1370:1381  Link memory */\n      tag_75\n      tag_76\n      jump\t// in\n    tag_75:\n        /* \"default_workspace/contracts/LinkShield.sol\":1392:1408  Link memory link */\n      0x00\n        /* \"default_workspace/contracts/LinkShield.sol\":1411:1416  links */\n      0x01\n        /* \"default_workspace/contracts/LinkShield.sol\":1417:1423  linkId */\n      dup5\n      dup5\n        /* \"default_workspace/contracts/LinkShield.sol\":1411:1424  links[linkId] */\n      mload(0x40)\n      tag_78\n      swap3\n      swap2\n      swap1\n      tag_53\n      jump\t// in\n    tag_78:\n      swap1\n      dup2\n      mstore\n      0x20\n      add\n      mload(0x40)\n      dup1\n      swap2\n      sub\n      swap1\n      keccak256\n        /* \"default_workspace/contracts/LinkShield.sol\":1392:1424  Link memory link = links[linkId] */\n      mload(0x40)\n      dup1\n      0x60\n      add\n      0x40\n      mstore\n      swap1\n      dup2\n      0x00\n      dup3\n      add\n      dup1\n      sload\n      tag_79\n      swap1\n      tag_55\n      jump\t// in\n    tag_79:\n      dup1\n      0x1f\n      add\n      0x20\n      dup1\n      swap2\n      div\n      mul\n      0x20\n      add\n      mload(0x40)\n      swap1\n      dup2\n      add\n      0x40\n      mstore\n      dup1\n      swap3\n      swap2\n      swap1\n      dup2\n      dup2\n      mstore\n      0x20\n      add\n      dup3\n      dup1\n      sload\n      tag_80\n      swap1\n      tag_55\n      jump\t// in\n    tag_80:\n      dup1\n      iszero\n      tag_81\n      jumpi\n      dup1\n      0x1f\n      lt\n      tag_82\n      jumpi\n      0x0100\n      dup1\n      dup4\n      sload\n      div\n      mul\n      dup4\n      mstore\n      swap2\n      0x20\n      add\n      swap2\n      jump(tag_81)\n    tag_82:\n      dup3\n      add\n      swap2\n      swap1\n      0x00\n      mstore\n      keccak256(0x00, 0x20)\n      swap1\n    tag_83:\n      dup2\n      sload\n      dup2\n      mstore\n      swap1\n      0x01\n      add\n      swap1\n      0x20\n      add\n      dup1\n      dup4\n      gt\n      tag_83\n      jumpi\n      dup3\n      swap1\n      sub\n      0x1f\n      and\n      dup3\n      add\n      swap2\n    tag_81:\n      pop\n      pop\n      pop\n      pop\n      pop\n      dup2\n      mstore\n      0x20\n      add\n      0x01\n      dup3\n      add\n      0x00\n      swap1\n      sload\n      swap1\n      0x0100\n      exp\n      swap1\n      div\n      0xffffffffffffffffffffffffffffffffffffffff\n      and\n      0xffffffffffffffffffffffffffffffffffffffff\n      and\n      0xffffffffffffffffffffffffffffffffffffffff\n      and\n      dup2\n      mstore\n      0x20\n      add\n      0x02\n      dup3\n      add\n      sload\n      dup2\n      mstore\n      pop\n      pop\n      swap1\n      pop\n        /* \"default_workspace/contracts/LinkShield.sol\":1449:1450  0 */\n      0x00\n        /* \"default_workspace/contracts/LinkShield.sol\":1437:1441  link */\n      dup2\n        /* \"default_workspace/contracts/LinkShield.sol\":1437:1445  link.fee */\n      0x40\n      add\n      mload\n        /* \"default_workspace/contracts/LinkShield.sol\":1437:1450  link.fee == 0 */\n      sub\n        /* \"default_workspace/contracts/LinkShield.sol\":1434:1463  if(link.fee == 0) return link */\n      tag_84\n      jumpi\n        /* \"default_workspace/contracts/LinkShield.sol\":1459:1463  link */\n      dup1\n        /* \"default_workspace/contracts/LinkShield.sol\":1452:1463  return link */\n      swap2\n      pop\n      pop\n      jump(tag_77)\n        /* \"default_workspace/contracts/LinkShield.sol\":1434:1463  if(link.fee == 0) return link */\n    tag_84:\n        /* \"default_workspace/contracts/LinkShield.sol\":1509:1514  false */\n      0x00\n        /* \"default_workspace/contracts/LinkShield.sol\":1476:1514  hasAccess[linkId][msg.sender] == false */\n      iszero\n      iszero\n        /* \"default_workspace/contracts/LinkShield.sol\":1476:1485  hasAccess */\n      0x02\n        /* \"default_workspace/contracts/LinkShield.sol\":1486:1492  linkId */\n      dup6\n      dup6\n        /* \"default_workspace/contracts/LinkShield.sol\":1476:1493  hasAccess[linkId] */\n      mload(0x40)\n      tag_85\n      swap3\n      swap2\n      swap1\n      tag_53\n      jump\t// in\n    tag_85:\n      swap1\n      dup2\n      mstore\n      0x20\n      add\n      mload(0x40)\n      dup1\n      swap2\n      sub\n      swap1\n      keccak256\n        /* \"default_workspace/contracts/LinkShield.sol\":1476:1505  hasAccess[linkId][msg.sender] */\n      0x00\n        /* \"default_workspace/contracts/LinkShield.sol\":1494:1504  msg.sender */\n      caller\n        /* \"default_workspace/contracts/LinkShield.sol\":1476:1505  hasAccess[linkId][msg.sender] */\n      0xffffffffffffffffffffffffffffffffffffffff\n      and\n      0xffffffffffffffffffffffffffffffffffffffff\n      and\n      dup2\n      mstore\n      0x20\n      add\n      swap1\n      dup2\n      mstore\n      0x20\n      add\n      0x00\n      keccak256\n      0x00\n      swap1\n      sload\n      swap1\n      0x0100\n      exp\n      swap1\n      div\n      0xff\n      and\n        /* \"default_workspace/contracts/LinkShield.sol\":1476:1514  hasAccess[linkId][msg.sender] == false */\n      iszero\n      iszero\n      sub\n        /* \"default_workspace/contracts/LinkShield.sol\":1473:1541  if(hasAccess[linkId][msg.sender] == false)... */\n      tag_86\n      jumpi\n        /* \"default_workspace/contracts/LinkShield.sol\":1528:1541  link.url = \"\" */\n      mload(0x40)\n      dup1\n      0x20\n      add\n      0x40\n      mstore\n      dup1\n      0x00\n      dup2\n      mstore\n      pop\n        /* \"default_workspace/contracts/LinkShield.sol\":1528:1532  link */\n      dup2\n        /* \"default_workspace/contracts/LinkShield.sol\":1528:1536  link.url */\n      0x00\n      add\n        /* \"default_workspace/contracts/LinkShield.sol\":1528:1541  link.url = \"\" */\n      dup2\n      swap1\n      mstore\n      pop\n        /* \"default_workspace/contracts/LinkShield.sol\":1473:1541  if(hasAccess[linkId][msg.sender] == false)... */\n    tag_86:\n        /* \"default_workspace/contracts/LinkShield.sol\":1559:1563  link */\n      dup1\n        /* \"default_workspace/contracts/LinkShield.sol\":1552:1563  return link */\n      swap2\n      pop\n      pop\n        /* \"default_workspace/contracts/LinkShield.sol\":1308:1570  function getLink(string calldata linkId) public view returns (Link memory){... */\n    tag_77:\n      swap3\n      swap2\n      pop\n      pop\n      jump\t// out\n        /* \"default_workspace/contracts/LinkShield.sol\":175:204  uint256 public commission = 1 */\n    tag_32:\n      sload(0x00)\n      dup2\n      jump\t// out\n        /* \"default_workspace/contracts/LinkShield.sol\":320:350  address public immutable admin */\n    tag_37:\n      immutable(\"0x6585423cb6456b1d4957f6454d2f004f0c4f58d53a00082412d5c2ef4b1b31fd\")\n      dup2\n      jump\t// out\n        /* \"default_workspace/contracts/LinkShield.sol\":412:871  function addLink(string calldata url, string calldata linkId, uint256 fee) public {... */\n    tag_44:\n        /* \"default_workspace/contracts/LinkShield.sol\":504:520  Link memory link */\n      0x00\n        /* \"default_workspace/contracts/LinkShield.sol\":523:528  links */\n      0x01\n        /* \"default_workspace/contracts/LinkShield.sol\":529:535  linkId */\n      dup5\n      dup5\n        /* \"default_workspace/contracts/LinkShield.sol\":523:536  links[linkId] */\n      mload(0x40)\n      tag_88\n      swap3\n      swap2\n      swap1\n      tag_53\n      jump\t// in\n    tag_88:\n      swap1\n      dup2\n      mstore\n      0x20\n      add\n      mload(0x40)\n      dup1\n      swap2\n      sub\n      swap1\n      keccak256\n        /* \"default_workspace/contracts/LinkShield.sol\":504:536  Link memory link = links[linkId] */\n      mload(0x40)\n      dup1\n      0x60\n      add\n      0x40\n      mstore\n      swap1\n      dup2\n      0x00\n      dup3\n      add\n      dup1\n      sload\n      tag_89\n      swap1\n      tag_55\n      jump\t// in\n    tag_89:\n      dup1\n      0x1f\n      add\n      0x20\n      dup1\n      swap2\n      div\n      mul\n      0x20\n      add\n      mload(0x40)\n      swap1\n      dup2\n      add\n      0x40\n      mstore\n      dup1\n      swap3\n      swap2\n      swap1\n      dup2\n      dup2\n      mstore\n      0x20\n      add\n      dup3\n      dup1\n      sload\n      tag_90\n      swap1\n      tag_55\n      jump\t// in\n    tag_90:\n      dup1\n      iszero\n      tag_91\n      jumpi\n      dup1\n      0x1f\n      lt\n      tag_92\n      jumpi\n      0x0100\n      dup1\n      dup4\n      sload\n      div\n      mul\n      dup4\n      mstore\n      swap2\n      0x20\n      add\n      swap2\n      jump(tag_91)\n    tag_92:\n      dup3\n      add\n      swap2\n      swap1\n      0x00\n      mstore\n      keccak256(0x00, 0x20)\n      swap1\n    tag_93:\n      dup2\n      sload\n      dup2\n      mstore\n      swap1\n      0x01\n      add\n      swap1\n      0x20\n      add\n      dup1\n      dup4\n      gt\n      tag_93\n      jumpi\n      dup3\n      swap1\n      sub\n      0x1f\n      and\n      dup3\n      add\n      swap2\n    tag_91:\n      pop\n      pop\n      pop\n      pop\n      pop\n      dup2\n      mstore\n      0x20\n      add\n      0x01\n      dup3\n      add\n      0x00\n      swap1\n      sload\n      swap1\n      0x0100\n      exp\n      swap1\n      div\n      0xffffffffffffffffffffffffffffffffffffffff\n      and\n      0xffffffffffffffffffffffffffffffffffffffff\n      and\n      0xffffffffffffffffffffffffffffffffffffffff\n      and\n      dup2\n      mstore\n      0x20\n      add\n      0x02\n      dup3\n      add\n      sload\n      dup2\n      mstore\n      pop\n      pop\n      swap1\n      pop\n        /* \"default_workspace/contracts/LinkShield.sol\":576:577  0 */\n      0x00\n        /* \"default_workspace/contracts/LinkShield.sol\":554:578  link.owner == address(0) */\n      0xffffffffffffffffffffffffffffffffffffffff\n      and\n        /* \"default_workspace/contracts/LinkShield.sol\":554:558  link */\n      dup2\n        /* \"default_workspace/contracts/LinkShield.sol\":554:564  link.owner */\n      0x20\n      add\n      mload\n        /* \"default_workspace/contracts/LinkShield.sol\":554:578  link.owner == address(0) */\n      0xffffffffffffffffffffffffffffffffffffffff\n      and\n      eq\n        /* \"default_workspace/contracts/LinkShield.sol\":554:606  link.owner == address(0) || link.owner == msg.sender */\n      dup1\n      tag_94\n      jumpi\n      pop\n        /* \"default_workspace/contracts/LinkShield.sol\":596:606  msg.sender */\n      caller\n        /* \"default_workspace/contracts/LinkShield.sol\":582:606  link.owner == msg.sender */\n      0xffffffffffffffffffffffffffffffffffffffff\n      and\n        /* \"default_workspace/contracts/LinkShield.sol\":582:586  link */\n      dup2\n        /* \"default_workspace/contracts/LinkShield.sol\":582:592  link.owner */\n      0x20\n      add\n      mload\n        /* \"default_workspace/contracts/LinkShield.sol\":582:606  link.owner == msg.sender */\n      0xffffffffffffffffffffffffffffffffffffffff\n      and\n      eq\n        /* \"default_workspace/contracts/LinkShield.sol\":554:606  link.owner == address(0) || link.owner == msg.sender */\n    tag_94:\n        /* \"default_workspace/contracts/LinkShield.sol\":546:643  require(link.owner == address(0) || link.owner == msg.sender, \"This linkId already has an owner\") */\n      tag_95\n      jumpi\n      mload(0x40)\n      0x08c379a000000000000000000000000000000000000000000000000000000000\n      dup2\n      mstore\n      0x04\n      add\n      tag_96\n      swap1\n      tag_97\n      jump\t// in\n    tag_96:\n      mload(0x40)\n      dup1\n      swap2\n      sub\n      swap1\n      revert\n    tag_95:\n        /* \"default_workspace/contracts/LinkShield.sol\":668:669  0 */\n      0x00\n        /* \"default_workspace/contracts/LinkShield.sol\":661:664  fee */\n      dup3\n        /* \"default_workspace/contracts/LinkShield.sol\":661:669  fee == 0 */\n      eq\n        /* \"default_workspace/contracts/LinkShield.sol\":661:689  fee == 0 || fee > commission */\n      dup1\n      tag_98\n      jumpi\n      pop\n        /* \"default_workspace/contracts/LinkShield.sol\":679:689  commission */\n      sload(0x00)\n        /* \"default_workspace/contracts/LinkShield.sol\":673:676  fee */\n      dup3\n        /* \"default_workspace/contracts/LinkShield.sol\":673:689  fee > commission */\n      gt\n        /* \"default_workspace/contracts/LinkShield.sol\":661:689  fee == 0 || fee > commission */\n    tag_98:\n        /* \"default_workspace/contracts/LinkShield.sol\":653:705  require(fee == 0 || fee > commission, \"Fee too low\") */\n      tag_99\n      jumpi\n      mload(0x40)\n      0x08c379a000000000000000000000000000000000000000000000000000000000\n      dup2\n      mstore\n      0x04\n      add\n      tag_100\n      swap1\n      tag_101\n      jump\t// in\n    tag_100:\n      mload(0x40)\n      dup1\n      swap2\n      sub\n      swap1\n      revert\n    tag_99:\n        /* \"default_workspace/contracts/LinkShield.sol\":727:730  url */\n      dup6\n      dup6\n        /* \"default_workspace/contracts/LinkShield.sol\":716:730  link.url = url */\n      dup1\n      dup1\n      0x1f\n      add\n      0x20\n      dup1\n      swap2\n      div\n      mul\n      0x20\n      add\n      mload(0x40)\n      swap1\n      dup2\n      add\n      0x40\n      mstore\n      dup1\n      swap4\n      swap3\n      swap2\n      swap1\n      dup2\n      dup2\n      mstore\n      0x20\n      add\n      dup4\n      dup4\n      dup1\n      dup3\n      dup5\n      calldatacopy\n      0x00\n      dup2\n      dup5\n      add\n      mstore\n      not(0x1f)\n      0x1f\n      dup3\n      add\n      and\n      swap1\n      pop\n      dup1\n      dup4\n      add\n      swap3\n      pop\n      pop\n      pop\n      pop\n      pop\n      pop\n      pop\n        /* \"default_workspace/contracts/LinkShield.sol\":716:720  link */\n      dup2\n        /* \"default_workspace/contracts/LinkShield.sol\":716:724  link.url */\n      0x00\n      add\n        /* \"default_workspace/contracts/LinkShield.sol\":716:730  link.url = url */\n      dup2\n      swap1\n      mstore\n      pop\n        /* \"default_workspace/contracts/LinkShield.sol\":751:754  fee */\n      dup2\n        /* \"default_workspace/contracts/LinkShield.sol\":740:744  link */\n      dup2\n        /* \"default_workspace/contracts/LinkShield.sol\":740:748  link.fee */\n      0x40\n      add\n        /* \"default_workspace/contracts/LinkShield.sol\":740:754  link.fee = fee */\n      dup2\n      dup2\n      mstore\n      pop\n      pop\n        /* \"default_workspace/contracts/LinkShield.sol\":777:787  msg.sender */\n      caller\n        /* \"default_workspace/contracts/LinkShield.sol\":764:768  link */\n      dup2\n        /* \"default_workspace/contracts/LinkShield.sol\":764:774  link.owner */\n      0x20\n      add\n        /* \"default_workspace/contracts/LinkShield.sol\":764:787  link.owner = msg.sender */\n      swap1\n      0xffffffffffffffffffffffffffffffffffffffff\n      and\n      swap1\n      dup2\n      0xffffffffffffffffffffffffffffffffffffffff\n      and\n      dup2\n      mstore\n      pop\n      pop\n        /* \"default_workspace/contracts/LinkShield.sol\":814:818  link */\n      dup1\n        /* \"default_workspace/contracts/LinkShield.sol\":798:803  links */\n      0x01\n        /* \"default_workspace/contracts/LinkShield.sol\":804:810  linkId */\n      dup6\n      dup6\n        /* \"default_workspace/contracts/LinkShield.sol\":798:811  links[linkId] */\n      mload(0x40)\n      tag_102\n      swap3\n      swap2\n      swap1\n      tag_53\n      jump\t// in\n    tag_102:\n      swap1\n      dup2\n      mstore\n      0x20\n      add\n      mload(0x40)\n      dup1\n      swap2\n      sub\n      swap1\n      keccak256\n        /* \"default_workspace/contracts/LinkShield.sol\":798:818  links[linkId] = link */\n      0x00\n      dup3\n      add\n      mload\n      dup2\n      0x00\n      add\n      swap1\n      dup2\n      tag_103\n      swap2\n      swap1\n      tag_104\n      jump\t// in\n    tag_103:\n      pop\n      0x20\n      dup3\n      add\n      mload\n      dup2\n      0x01\n      add\n      exp(0x0100, 0x00)\n      dup2\n      sload\n      dup2\n      0xffffffffffffffffffffffffffffffffffffffff\n      mul\n      not\n      and\n      swap1\n      dup4\n      0xffffffffffffffffffffffffffffffffffffffff\n      and\n      mul\n      or\n      swap1\n      sstore\n      pop\n      0x40\n      dup3\n      add\n      mload\n      dup2\n      0x02\n      add\n      sstore\n      swap1\n      pop\n      pop\n        /* \"default_workspace/contracts/LinkShield.sol\":860:864  true */\n      0x01\n        /* \"default_workspace/contracts/LinkShield.sol\":828:837  hasAccess */\n      0x02\n        /* \"default_workspace/contracts/LinkShield.sol\":838:844  linkId */\n      dup6\n      dup6\n        /* \"default_workspace/contracts/LinkShield.sol\":828:845  hasAccess[linkId] */\n      mload(0x40)\n      tag_105\n      swap3\n      swap2\n      swap1\n      tag_53\n      jump\t// in\n    tag_105:\n      swap1\n      dup2\n      mstore\n      0x20\n      add\n      mload(0x40)\n      dup1\n      swap2\n      sub\n      swap1\n      keccak256\n        /* \"default_workspace/contracts/LinkShield.sol\":828:857  hasAccess[linkId][msg.sender] */\n      0x00\n        /* \"default_workspace/contracts/LinkShield.sol\":846:856  msg.sender */\n      caller\n        /* \"default_workspace/contracts/LinkShield.sol\":828:857  hasAccess[linkId][msg.sender] */\n      0xffffffffffffffffffffffffffffffffffffffff\n      and\n      0xffffffffffffffffffffffffffffffffffffffff\n      and\n      dup2\n      mstore\n      0x20\n      add\n      swap1\n      dup2\n      mstore\n      0x20\n      add\n      0x00\n      keccak256\n      0x00\n        /* \"default_workspace/contracts/LinkShield.sol\":828:864  hasAccess[linkId][msg.sender] = true */\n      0x0100\n      exp\n      dup2\n      sload\n      dup2\n      0xff\n      mul\n      not\n      and\n      swap1\n      dup4\n      iszero\n      iszero\n      mul\n      or\n      swap1\n      sstore\n      pop\n        /* \"default_workspace/contracts/LinkShield.sol\":494:871  {... */\n      pop\n        /* \"default_workspace/contracts/LinkShield.sol\":412:871  function addLink(string calldata url, string calldata linkId, uint256 fee) public {... */\n      pop\n      pop\n      pop\n      pop\n      pop\n      jump\t// out\n    tag_76:\n      mload(0x40)\n      dup1\n      0x60\n      add\n      0x40\n      mstore\n      dup1\n      0x60\n      dup2\n      mstore\n      0x20\n      add\n      and(0xffffffffffffffffffffffffffffffffffffffff, 0x00)\n      dup2\n      mstore\n      0x20\n      add\n      0x00\n      dup2\n      mstore\n      pop\n      swap1\n      jump\t// out\n        /* \"#utility.yul\":7:82   */\n    tag_106:\n        /* \"#utility.yul\":40:46   */\n      0x00\n        /* \"#utility.yul\":73:75   */\n      0x40\n        /* \"#utility.yul\":67:76   */\n      mload\n        /* \"#utility.yul\":57:76   */\n      swap1\n      pop\n        /* \"#utility.yul\":7:82   */\n      swap1\n      jump\t// out\n        /* \"#utility.yul\":88:205   */\n    tag_107:\n        /* \"#utility.yul\":197:198   */\n      0x00\n        /* \"#utility.yul\":194:195   */\n      0x00\n        /* \"#utility.yul\":187:199   */\n      revert\n        /* \"#utility.yul\":211:328   */\n    tag_108:\n        /* \"#utility.yul\":320:321   */\n      0x00\n        /* \"#utility.yul\":317:318   */\n      0x00\n        /* \"#utility.yul\":310:322   */\n      revert\n        /* \"#utility.yul\":334:451   */\n    tag_109:\n        /* \"#utility.yul\":443:444   */\n      0x00\n        /* \"#utility.yul\":440:441   */\n      0x00\n        /* \"#utility.yul\":433:445   */\n      revert\n        /* \"#utility.yul\":457:574   */\n    tag_110:\n        /* \"#utility.yul\":566:567   */\n      0x00\n        /* \"#utility.yul\":563:564   */\n      0x00\n        /* \"#utility.yul\":556:568   */\n      revert\n        /* \"#utility.yul\":580:682   */\n    tag_111:\n        /* \"#utility.yul\":621:627   */\n      0x00\n        /* \"#utility.yul\":672:674   */\n      0x1f\n        /* \"#utility.yul\":668:675   */\n      not\n        /* \"#utility.yul\":663:665   */\n      0x1f\n        /* \"#utility.yul\":656:661   */\n      dup4\n        /* \"#utility.yul\":652:666   */\n      add\n        /* \"#utility.yul\":648:676   */\n      and\n        /* \"#utility.yul\":638:676   */\n      swap1\n      pop\n        /* \"#utility.yul\":580:682   */\n      swap2\n      swap1\n      pop\n      jump\t// out\n        /* \"#utility.yul\":688:868   */\n    tag_112:\n        /* \"#utility.yul\":736:813   */\n      0x4e487b7100000000000000000000000000000000000000000000000000000000\n        /* \"#utility.yul\":733:734   */\n      0x00\n        /* \"#utility.yul\":726:814   */\n      mstore\n        /* \"#utility.yul\":833:837   */\n      0x41\n        /* \"#utility.yul\":830:831   */\n      0x04\n        /* \"#utility.yul\":823:838   */\n      mstore\n        /* \"#utility.yul\":857:861   */\n      0x24\n        /* \"#utility.yul\":854:855   */\n      0x00\n        /* \"#utility.yul\":847:862   */\n      revert\n        /* \"#utility.yul\":874:1155   */\n    tag_113:\n        /* \"#utility.yul\":957:984   */\n      tag_181\n        /* \"#utility.yul\":979:983   */\n      dup3\n        /* \"#utility.yul\":957:984   */\n      tag_111\n      jump\t// in\n    tag_181:\n        /* \"#utility.yul\":949:955   */\n      dup2\n        /* \"#utility.yul\":945:985   */\n      add\n        /* \"#utility.yul\":1087:1093   */\n      dup2\n        /* \"#utility.yul\":1075:1085   */\n      dup2\n        /* \"#utility.yul\":1072:1094   */\n      lt\n        /* \"#utility.yul\":1051:1069   */\n      0xffffffffffffffff\n        /* \"#utility.yul\":1039:1049   */\n      dup3\n        /* \"#utility.yul\":1036:1070   */\n      gt\n        /* \"#utility.yul\":1033:1095   */\n      or\n        /* \"#utility.yul\":1030:1118   */\n      iszero\n      tag_182\n      jumpi\n        /* \"#utility.yul\":1098:1116   */\n      tag_183\n      tag_112\n      jump\t// in\n    tag_183:\n        /* \"#utility.yul\":1030:1118   */\n    tag_182:\n        /* \"#utility.yul\":1138:1148   */\n      dup1\n        /* \"#utility.yul\":1134:1136   */\n      0x40\n        /* \"#utility.yul\":1127:1149   */\n      mstore\n        /* \"#utility.yul\":917:1155   */\n      pop\n        /* \"#utility.yul\":874:1155   */\n      pop\n      pop\n      jump\t// out\n        /* \"#utility.yul\":1161:1290   */\n    tag_114:\n        /* \"#utility.yul\":1195:1201   */\n      0x00\n        /* \"#utility.yul\":1222:1242   */\n      tag_185\n      tag_106\n      jump\t// in\n    tag_185:\n        /* \"#utility.yul\":1212:1242   */\n      swap1\n      pop\n        /* \"#utility.yul\":1251:1284   */\n      tag_186\n        /* \"#utility.yul\":1279:1283   */\n      dup3\n        /* \"#utility.yul\":1271:1277   */\n      dup3\n        /* \"#utility.yul\":1251:1284   */\n      tag_113\n      jump\t// in\n    tag_186:\n        /* \"#utility.yul\":1161:1290   */\n      swap2\n      swap1\n      pop\n      jump\t// out\n        /* \"#utility.yul\":1296:1604   */\n    tag_115:\n        /* \"#utility.yul\":1358:1362   */\n      0x00\n        /* \"#utility.yul\":1448:1466   */\n      0xffffffffffffffff\n        /* \"#utility.yul\":1440:1446   */\n      dup3\n        /* \"#utility.yul\":1437:1467   */\n      gt\n        /* \"#utility.yul\":1434:1490   */\n      iszero\n      tag_188\n      jumpi\n        /* \"#utility.yul\":1470:1488   */\n      tag_189\n      tag_112\n      jump\t// in\n    tag_189:\n        /* \"#utility.yul\":1434:1490   */\n    tag_188:\n        /* \"#utility.yul\":1508:1537   */\n      tag_190\n        /* \"#utility.yul\":1530:1536   */\n      dup3\n        /* \"#utility.yul\":1508:1537   */\n      tag_111\n      jump\t// in\n    tag_190:\n        /* \"#utility.yul\":1500:1537   */\n      swap1\n      pop\n        /* \"#utility.yul\":1592:1596   */\n      0x20\n        /* \"#utility.yul\":1586:1590   */\n      dup2\n        /* \"#utility.yul\":1582:1597   */\n      add\n        /* \"#utility.yul\":1574:1597   */\n      swap1\n      pop\n        /* \"#utility.yul\":1296:1604   */\n      swap2\n      swap1\n      pop\n      jump\t// out\n        /* \"#utility.yul\":1610:1758   */\n    tag_116:\n        /* \"#utility.yul\":1708:1714   */\n      dup3\n        /* \"#utility.yul\":1703:1706   */\n      dup2\n        /* \"#utility.yul\":1698:1701   */\n      dup4\n        /* \"#utility.yul\":1685:1715   */\n      calldatacopy\n        /* \"#utility.yul\":1749:1750   */\n      0x00\n        /* \"#utility.yul\":1740:1746   */\n      dup4\n        /* \"#utility.yul\":1735:1738   */\n      dup4\n        /* \"#utility.yul\":1731:1747   */\n      add\n        /* \"#utility.yul\":1724:1751   */\n      mstore\n        /* \"#utility.yul\":1610:1758   */\n      pop\n      pop\n      pop\n      jump\t// out\n        /* \"#utility.yul\":1764:2189   */\n    tag_117:\n        /* \"#utility.yul\":1842:1847   */\n      0x00\n        /* \"#utility.yul\":1867:1933   */\n      tag_193\n        /* \"#utility.yul\":1883:1932   */\n      tag_194\n        /* \"#utility.yul\":1925:1931   */\n      dup5\n        /* \"#utility.yul\":1883:1932   */\n      tag_115\n      jump\t// in\n    tag_194:\n        /* \"#utility.yul\":1867:1933   */\n      tag_114\n      jump\t// in\n    tag_193:\n        /* \"#utility.yul\":1858:1933   */\n      swap1\n      pop\n        /* \"#utility.yul\":1956:1962   */\n      dup3\n        /* \"#utility.yul\":1949:1954   */\n      dup2\n        /* \"#utility.yul\":1942:1963   */\n      mstore\n        /* \"#utility.yul\":1994:1998   */\n      0x20\n        /* \"#utility.yul\":1987:1992   */\n      dup2\n        /* \"#utility.yul\":1983:1999   */\n      add\n        /* \"#utility.yul\":2032:2035   */\n      dup5\n        /* \"#utility.yul\":2023:2029   */\n      dup5\n        /* \"#utility.yul\":2018:2021   */\n      dup5\n        /* \"#utility.yul\":2014:2030   */\n      add\n        /* \"#utility.yul\":2011:2036   */\n      gt\n        /* \"#utility.yul\":2008:2120   */\n      iszero\n      tag_195\n      jumpi\n        /* \"#utility.yul\":2039:2118   */\n      tag_196\n      tag_110\n      jump\t// in\n    tag_196:\n        /* \"#utility.yul\":2008:2120   */\n    tag_195:\n        /* \"#utility.yul\":2129:2183   */\n      tag_197\n        /* \"#utility.yul\":2176:2182   */\n      dup5\n        /* \"#utility.yul\":2171:2174   */\n      dup3\n        /* \"#utility.yul\":2166:2169   */\n      dup6\n        /* \"#utility.yul\":2129:2183   */\n      tag_116\n      jump\t// in\n    tag_197:\n        /* \"#utility.yul\":1848:2189   */\n      pop\n        /* \"#utility.yul\":1764:2189   */\n      swap4\n      swap3\n      pop\n      pop\n      pop\n      jump\t// out\n        /* \"#utility.yul\":2209:2549   */\n    tag_118:\n        /* \"#utility.yul\":2265:2270   */\n      0x00\n        /* \"#utility.yul\":2314:2317   */\n      dup3\n        /* \"#utility.yul\":2307:2311   */\n      0x1f\n        /* \"#utility.yul\":2299:2305   */\n      dup4\n        /* \"#utility.yul\":2295:2312   */\n      add\n        /* \"#utility.yul\":2291:2318   */\n      slt\n        /* \"#utility.yul\":2281:2403   */\n      tag_199\n      jumpi\n        /* \"#utility.yul\":2322:2401   */\n      tag_200\n      tag_109\n      jump\t// in\n    tag_200:\n        /* \"#utility.yul\":2281:2403   */\n    tag_199:\n        /* \"#utility.yul\":2439:2445   */\n      dup2\n        /* \"#utility.yul\":2426:2446   */\n      calldataload\n        /* \"#utility.yul\":2464:2543   */\n      tag_201\n        /* \"#utility.yul\":2539:2542   */\n      dup5\n        /* \"#utility.yul\":2531:2537   */\n      dup3\n        /* \"#utility.yul\":2524:2528   */\n      0x20\n        /* \"#utility.yul\":2516:2522   */\n      dup7\n        /* \"#utility.yul\":2512:2529   */\n      add\n        /* \"#utility.yul\":2464:2543   */\n      tag_117\n      jump\t// in\n    tag_201:\n        /* \"#utility.yul\":2455:2543   */\n      swap2\n      pop\n        /* \"#utility.yul\":2271:2549   */\n      pop\n        /* \"#utility.yul\":2209:2549   */\n      swap3\n      swap2\n      pop\n      pop\n      jump\t// out\n        /* \"#utility.yul\":2555:2681   */\n    tag_119:\n        /* \"#utility.yul\":2592:2599   */\n      0x00\n        /* \"#utility.yul\":2632:2674   */\n      0xffffffffffffffffffffffffffffffffffffffff\n        /* \"#utility.yul\":2625:2630   */\n      dup3\n        /* \"#utility.yul\":2621:2675   */\n      and\n        /* \"#utility.yul\":2610:2675   */\n      swap1\n      pop\n        /* \"#utility.yul\":2555:2681   */\n      swap2\n      swap1\n      pop\n      jump\t// out\n        /* \"#utility.yul\":2687:2783   */\n    tag_120:\n        /* \"#utility.yul\":2724:2731   */\n      0x00\n        /* \"#utility.yul\":2753:2777   */\n      tag_204\n        /* \"#utility.yul\":2771:2776   */\n      dup3\n        /* \"#utility.yul\":2753:2777   */\n      tag_119\n      jump\t// in\n    tag_204:\n        /* \"#utility.yul\":2742:2777   */\n      swap1\n      pop\n        /* \"#utility.yul\":2687:2783   */\n      swap2\n      swap1\n      pop\n      jump\t// out\n        /* \"#utility.yul\":2789:2911   */\n    tag_121:\n        /* \"#utility.yul\":2862:2886   */\n      tag_206\n        /* \"#utility.yul\":2880:2885   */\n      dup2\n        /* \"#utility.yul\":2862:2886   */\n      tag_120\n      jump\t// in\n    tag_206:\n        /* \"#utility.yul\":2855:2860   */\n      dup2\n        /* \"#utility.yul\":2852:2887   */\n      eq\n        /* \"#utility.yul\":2842:2905   */\n      tag_207\n      jumpi\n        /* \"#utility.yul\":2901:2902   */\n      0x00\n        /* \"#utility.yul\":2898:2899   */\n      0x00\n        /* \"#utility.yul\":2891:2903   */\n      revert\n        /* \"#utility.yul\":2842:2905   */\n    tag_207:\n        /* \"#utility.yul\":2789:2911   */\n      pop\n      jump\t// out\n        /* \"#utility.yul\":2917:3056   */\n    tag_122:\n        /* \"#utility.yul\":2963:2968   */\n      0x00\n        /* \"#utility.yul\":3001:3007   */\n      dup2\n        /* \"#utility.yul\":2988:3008   */\n      calldataload\n        /* \"#utility.yul\":2979:3008   */\n      swap1\n      pop\n        /* \"#utility.yul\":3017:3050   */\n      tag_209\n        /* \"#utility.yul\":3044:3049   */\n      dup2\n        /* \"#utility.yul\":3017:3050   */\n      tag_121\n      jump\t// in\n    tag_209:\n        /* \"#utility.yul\":2917:3056   */\n      swap3\n      swap2\n      pop\n      pop\n      jump\t// out\n        /* \"#utility.yul\":3062:3716   */\n    tag_13:\n        /* \"#utility.yul\":3140:3146   */\n      0x00\n        /* \"#utility.yul\":3148:3154   */\n      0x00\n        /* \"#utility.yul\":3197:3199   */\n      0x40\n        /* \"#utility.yul\":3185:3194   */\n      dup4\n        /* \"#utility.yul\":3176:3183   */\n      dup6\n        /* \"#utility.yul\":3172:3195   */\n      sub\n        /* \"#utility.yul\":3168:3200   */\n      slt\n        /* \"#utility.yul\":3165:3284   */\n      iszero\n      tag_211\n      jumpi\n        /* \"#utility.yul\":3203:3282   */\n      tag_212\n      tag_107\n      jump\t// in\n    tag_212:\n        /* \"#utility.yul\":3165:3284   */\n    tag_211:\n        /* \"#utility.yul\":3351:3352   */\n      0x00\n        /* \"#utility.yul\":3340:3349   */\n      dup4\n        /* \"#utility.yul\":3336:3353   */\n      add\n        /* \"#utility.yul\":3323:3354   */\n      calldataload\n        /* \"#utility.yul\":3381:3399   */\n      0xffffffffffffffff\n        /* \"#utility.yul\":3373:3379   */\n      dup2\n        /* \"#utility.yul\":3370:3400   */\n      gt\n        /* \"#utility.yul\":3367:3484   */\n      iszero\n      tag_213\n      jumpi\n        /* \"#utility.yul\":3403:3482   */\n      tag_214\n      tag_108\n      jump\t// in\n    tag_214:\n        /* \"#utility.yul\":3367:3484   */\n    tag_213:\n        /* \"#utility.yul\":3508:3571   */\n      tag_215\n        /* \"#utility.yul\":3563:3570   */\n      dup6\n        /* \"#utility.yul\":3554:3560   */\n      dup3\n        /* \"#utility.yul\":3543:3552   */\n      dup7\n        /* \"#utility.yul\":3539:3561   */\n      add\n        /* \"#utility.yul\":3508:3571   */\n      tag_118\n      jump\t// in\n    tag_215:\n        /* \"#utility.yul\":3498:3571   */\n      swap3\n      pop\n        /* \"#utility.yul\":3294:3581   */\n      pop\n        /* \"#utility.yul\":3620:3622   */\n      0x20\n        /* \"#utility.yul\":3646:3699   */\n      tag_216\n        /* \"#utility.yul\":3691:3698   */\n      dup6\n        /* \"#utility.yul\":3682:3688   */\n      dup3\n        /* \"#utility.yul\":3671:3680   */\n      dup7\n        /* \"#utility.yul\":3667:3689   */\n      add\n        /* \"#utility.yul\":3646:3699   */\n      tag_122\n      jump\t// in\n    tag_216:\n        /* \"#utility.yul\":3636:3699   */\n      swap2\n      pop\n        /* \"#utility.yul\":3591:3709   */\n      pop\n        /* \"#utility.yul\":3062:3716   */\n      swap3\n      pop\n      swap3\n      swap1\n      pop\n      jump\t// out\n        /* \"#utility.yul\":3722:3812   */\n    tag_123:\n        /* \"#utility.yul\":3756:3763   */\n      0x00\n        /* \"#utility.yul\":3799:3804   */\n      dup2\n        /* \"#utility.yul\":3792:3805   */\n      iszero\n        /* \"#utility.yul\":3785:3806   */\n      iszero\n        /* \"#utility.yul\":3774:3806   */\n      swap1\n      pop\n        /* \"#utility.yul\":3722:3812   */\n      swap2\n      swap1\n      pop\n      jump\t// out\n        /* \"#utility.yul\":3818:3927   */\n    tag_124:\n        /* \"#utility.yul\":3899:3920   */\n      tag_219\n        /* \"#utility.yul\":3914:3919   */\n      dup2\n        /* \"#utility.yul\":3899:3920   */\n      tag_123\n      jump\t// in\n    tag_219:\n        /* \"#utility.yul\":3894:3897   */\n      dup3\n        /* \"#utility.yul\":3887:3921   */\n      mstore\n        /* \"#utility.yul\":3818:3927   */\n      pop\n      pop\n      jump\t// out\n        /* \"#utility.yul\":3933:4143   */\n    tag_16:\n        /* \"#utility.yul\":4020:4024   */\n      0x00\n        /* \"#utility.yul\":4058:4060   */\n      0x20\n        /* \"#utility.yul\":4047:4056   */\n      dup3\n        /* \"#utility.yul\":4043:4061   */\n      add\n        /* \"#utility.yul\":4035:4061   */\n      swap1\n      pop\n        /* \"#utility.yul\":4071:4136   */\n      tag_221\n        /* \"#utility.yul\":4133:4134   */\n      0x00\n        /* \"#utility.yul\":4122:4131   */\n      dup4\n        /* \"#utility.yul\":4118:4135   */\n      add\n        /* \"#utility.yul\":4109:4115   */\n      dup5\n        /* \"#utility.yul\":4071:4136   */\n      tag_124\n      jump\t// in\n    tag_221:\n        /* \"#utility.yul\":3933:4143   */\n      swap3\n      swap2\n      pop\n      pop\n      jump\t// out\n        /* \"#utility.yul\":4149:4266   */\n    tag_125:\n        /* \"#utility.yul\":4258:4259   */\n      0x00\n        /* \"#utility.yul\":4255:4256   */\n      0x00\n        /* \"#utility.yul\":4248:4260   */\n      revert\n        /* \"#utility.yul\":4272:4389   */\n    tag_126:\n        /* \"#utility.yul\":4381:4382   */\n      0x00\n        /* \"#utility.yul\":4378:4379   */\n      0x00\n        /* \"#utility.yul\":4371:4383   */\n      revert\n        /* \"#utility.yul\":4409:4962   */\n    tag_127:\n        /* \"#utility.yul\":4467:4475   */\n      0x00\n        /* \"#utility.yul\":4477:4483   */\n      0x00\n        /* \"#utility.yul\":4527:4530   */\n      dup4\n        /* \"#utility.yul\":4520:4524   */\n      0x1f\n        /* \"#utility.yul\":4512:4518   */\n      dup5\n        /* \"#utility.yul\":4508:4525   */\n      add\n        /* \"#utility.yul\":4504:4531   */\n      slt\n        /* \"#utility.yul\":4494:4616   */\n      tag_225\n      jumpi\n        /* \"#utility.yul\":4535:4614   */\n      tag_226\n      tag_109\n      jump\t// in\n    tag_226:\n        /* \"#utility.yul\":4494:4616   */\n    tag_225:\n        /* \"#utility.yul\":4648:4654   */\n      dup3\n        /* \"#utility.yul\":4635:4655   */\n      calldataload\n        /* \"#utility.yul\":4625:4655   */\n      swap1\n      pop\n        /* \"#utility.yul\":4678:4696   */\n      0xffffffffffffffff\n        /* \"#utility.yul\":4670:4676   */\n      dup2\n        /* \"#utility.yul\":4667:4697   */\n      gt\n        /* \"#utility.yul\":4664:4781   */\n      iszero\n      tag_227\n      jumpi\n        /* \"#utility.yul\":4700:4779   */\n      tag_228\n      tag_125\n      jump\t// in\n    tag_228:\n        /* \"#utility.yul\":4664:4781   */\n    tag_227:\n        /* \"#utility.yul\":4814:4818   */\n      0x20\n        /* \"#utility.yul\":4806:4812   */\n      dup4\n        /* \"#utility.yul\":4802:4819   */\n      add\n        /* \"#utility.yul\":4790:4819   */\n      swap2\n      pop\n        /* \"#utility.yul\":4868:4871   */\n      dup4\n        /* \"#utility.yul\":4860:4864   */\n      0x01\n        /* \"#utility.yul\":4852:4858   */\n      dup3\n        /* \"#utility.yul\":4848:4865   */\n      mul\n        /* \"#utility.yul\":4838:4846   */\n      dup4\n        /* \"#utility.yul\":4834:4866   */\n      add\n        /* \"#utility.yul\":4831:4872   */\n      gt\n        /* \"#utility.yul\":4828:4956   */\n      iszero\n      tag_229\n      jumpi\n        /* \"#utility.yul\":4875:4954   */\n      tag_230\n      tag_126\n      jump\t// in\n    tag_230:\n        /* \"#utility.yul\":4828:4956   */\n    tag_229:\n        /* \"#utility.yul\":4409:4962   */\n      swap3\n      pop\n      swap3\n      swap1\n      pop\n      jump\t// out\n        /* \"#utility.yul\":4968:5497   */\n    tag_22:\n        /* \"#utility.yul\":5039:5045   */\n      0x00\n        /* \"#utility.yul\":5047:5053   */\n      0x00\n        /* \"#utility.yul\":5096:5098   */\n      0x20\n        /* \"#utility.yul\":5084:5093   */\n      dup4\n        /* \"#utility.yul\":5075:5082   */\n      dup6\n        /* \"#utility.yul\":5071:5094   */\n      sub\n        /* \"#utility.yul\":5067:5099   */\n      slt\n        /* \"#utility.yul\":5064:5183   */\n      iszero\n      tag_232\n      jumpi\n        /* \"#utility.yul\":5102:5181   */\n      tag_233\n      tag_107\n      jump\t// in\n    tag_233:\n        /* \"#utility.yul\":5064:5183   */\n    tag_232:\n        /* \"#utility.yul\":5250:5251   */\n      0x00\n        /* \"#utility.yul\":5239:5248   */\n      dup4\n        /* \"#utility.yul\":5235:5252   */\n      add\n        /* \"#utility.yul\":5222:5253   */\n      calldataload\n        /* \"#utility.yul\":5280:5298   */\n      0xffffffffffffffff\n        /* \"#utility.yul\":5272:5278   */\n      dup2\n        /* \"#utility.yul\":5269:5299   */\n      gt\n        /* \"#utility.yul\":5266:5383   */\n      iszero\n      tag_234\n      jumpi\n        /* \"#utility.yul\":5302:5381   */\n      tag_235\n      tag_108\n      jump\t// in\n    tag_235:\n        /* \"#utility.yul\":5266:5383   */\n    tag_234:\n        /* \"#utility.yul\":5415:5480   */\n      tag_236\n        /* \"#utility.yul\":5472:5479   */\n      dup6\n        /* \"#utility.yul\":5463:5469   */\n      dup3\n        /* \"#utility.yul\":5452:5461   */\n      dup7\n        /* \"#utility.yul\":5448:5470   */\n      add\n        /* \"#utility.yul\":5415:5480   */\n      tag_127\n      jump\t// in\n    tag_236:\n        /* \"#utility.yul\":5397:5480   */\n      swap3\n      pop\n      swap3\n      pop\n        /* \"#utility.yul\":5193:5490   */\n      pop\n        /* \"#utility.yul\":4968:5497   */\n      swap3\n      pop\n      swap3\n      swap1\n      pop\n      jump\t// out\n        /* \"#utility.yul\":5503:5602   */\n    tag_128:\n        /* \"#utility.yul\":5555:5561   */\n      0x00\n        /* \"#utility.yul\":5589:5594   */\n      dup2\n        /* \"#utility.yul\":5583:5595   */\n      mload\n        /* \"#utility.yul\":5573:5595   */\n      swap1\n      pop\n        /* \"#utility.yul\":5503:5602   */\n      swap2\n      swap1\n      pop\n      jump\t// out\n        /* \"#utility.yul\":5608:5767   */\n    tag_129:\n        /* \"#utility.yul\":5682:5693   */\n      0x00\n        /* \"#utility.yul\":5716:5722   */\n      dup3\n        /* \"#utility.yul\":5711:5714   */\n      dup3\n        /* \"#utility.yul\":5704:5723   */\n      mstore\n        /* \"#utility.yul\":5756:5760   */\n      0x20\n        /* \"#utility.yul\":5751:5754   */\n      dup3\n        /* \"#utility.yul\":5747:5761   */\n      add\n        /* \"#utility.yul\":5732:5761   */\n      swap1\n      pop\n        /* \"#utility.yul\":5608:5767   */\n      swap3\n      swap2\n      pop\n      pop\n      jump\t// out\n        /* \"#utility.yul\":5773:5912   */\n    tag_130:\n        /* \"#utility.yul\":5862:5868   */\n      dup3\n        /* \"#utility.yul\":5857:5860   */\n      dup2\n        /* \"#utility.yul\":5852:5855   */\n      dup4\n        /* \"#utility.yul\":5846:5869   */\n      mcopy\n        /* \"#utility.yul\":5903:5904   */\n      0x00\n        /* \"#utility.yul\":5894:5900   */\n      dup4\n        /* \"#utility.yul\":5889:5892   */\n      dup4\n        /* \"#utility.yul\":5885:5901   */\n      add\n        /* \"#utility.yul\":5878:5905   */\n      mstore\n        /* \"#utility.yul\":5773:5912   */\n      pop\n      pop\n      pop\n      jump\t// out\n        /* \"#utility.yul\":5918:6275   */\n    tag_131:\n        /* \"#utility.yul\":5996:5999   */\n      0x00\n        /* \"#utility.yul\":6024:6063   */\n      tag_241\n        /* \"#utility.yul\":6057:6062   */\n      dup3\n        /* \"#utility.yul\":6024:6063   */\n      tag_128\n      jump\t// in\n    tag_241:\n        /* \"#utility.yul\":6079:6140   */\n      tag_242\n        /* \"#utility.yul\":6133:6139   */\n      dup2\n        /* \"#utility.yul\":6128:6131   */\n      dup6\n        /* \"#utility.yul\":6079:6140   */\n      tag_129\n      jump\t// in\n    tag_242:\n        /* \"#utility.yul\":6072:6140   */\n      swap4\n      pop\n        /* \"#utility.yul\":6149:6214   */\n      tag_243\n        /* \"#utility.yul\":6207:6213   */\n      dup2\n        /* \"#utility.yul\":6202:6205   */\n      dup6\n        /* \"#utility.yul\":6195:6199   */\n      0x20\n        /* \"#utility.yul\":6188:6193   */\n      dup7\n        /* \"#utility.yul\":6184:6200   */\n      add\n        /* \"#utility.yul\":6149:6214   */\n      tag_130\n      jump\t// in\n    tag_243:\n        /* \"#utility.yul\":6239:6268   */\n      tag_244\n        /* \"#utility.yul\":6261:6267   */\n      dup2\n        /* \"#utility.yul\":6239:6268   */\n      tag_111\n      jump\t// in\n    tag_244:\n        /* \"#utility.yul\":6234:6237   */\n      dup5\n        /* \"#utility.yul\":6230:6269   */\n      add\n        /* \"#utility.yul\":6223:6269   */\n      swap2\n      pop\n        /* \"#utility.yul\":6000:6275   */\n      pop\n        /* \"#utility.yul\":5918:6275   */\n      swap3\n      swap2\n      pop\n      pop\n      jump\t// out\n        /* \"#utility.yul\":6281:6389   */\n    tag_132:\n        /* \"#utility.yul\":6358:6382   */\n      tag_246\n        /* \"#utility.yul\":6376:6381   */\n      dup2\n        /* \"#utility.yul\":6358:6382   */\n      tag_120\n      jump\t// in\n    tag_246:\n        /* \"#utility.yul\":6353:6356   */\n      dup3\n        /* \"#utility.yul\":6346:6383   */\n      mstore\n        /* \"#utility.yul\":6281:6389   */\n      pop\n      pop\n      jump\t// out\n        /* \"#utility.yul\":6395:6472   */\n    tag_133:\n        /* \"#utility.yul\":6432:6439   */\n      0x00\n        /* \"#utility.yul\":6461:6466   */\n      dup2\n        /* \"#utility.yul\":6450:6466   */\n      swap1\n      pop\n        /* \"#utility.yul\":6395:6472   */\n      swap2\n      swap1\n      pop\n      jump\t// out\n        /* \"#utility.yul\":6478:6586   */\n    tag_134:\n        /* \"#utility.yul\":6555:6579   */\n      tag_249\n        /* \"#utility.yul\":6573:6578   */\n      dup2\n        /* \"#utility.yul\":6555:6579   */\n      tag_133\n      jump\t// in\n    tag_249:\n        /* \"#utility.yul\":6550:6553   */\n      dup3\n        /* \"#utility.yul\":6543:6580   */\n      mstore\n        /* \"#utility.yul\":6478:6586   */\n      pop\n      pop\n      jump\t// out\n        /* \"#utility.yul\":6648:7415   */\n    tag_135:\n        /* \"#utility.yul\":6755:6758   */\n      0x00\n        /* \"#utility.yul\":6791:6795   */\n      0x60\n        /* \"#utility.yul\":6786:6789   */\n      dup4\n        /* \"#utility.yul\":6782:6796   */\n      add\n        /* \"#utility.yul\":6877:6881   */\n      0x00\n        /* \"#utility.yul\":6870:6875   */\n      dup4\n        /* \"#utility.yul\":6866:6882   */\n      add\n        /* \"#utility.yul\":6860:6883   */\n      mload\n        /* \"#utility.yul\":6930:6933   */\n      dup5\n        /* \"#utility.yul\":6924:6928   */\n      dup3\n        /* \"#utility.yul\":6920:6934   */\n      sub\n        /* \"#utility.yul\":6913:6917   */\n      0x00\n        /* \"#utility.yul\":6908:6911   */\n      dup7\n        /* \"#utility.yul\":6904:6918   */\n      add\n        /* \"#utility.yul\":6897:6935   */\n      mstore\n        /* \"#utility.yul\":6956:7029   */\n      tag_251\n        /* \"#utility.yul\":7024:7028   */\n      dup3\n        /* \"#utility.yul\":7010:7022   */\n      dup3\n        /* \"#utility.yul\":6956:7029   */\n      tag_131\n      jump\t// in\n    tag_251:\n        /* \"#utility.yul\":6948:7029   */\n      swap2\n      pop\n        /* \"#utility.yul\":6806:7040   */\n      pop\n        /* \"#utility.yul\":7123:7127   */\n      0x20\n        /* \"#utility.yul\":7116:7121   */\n      dup4\n        /* \"#utility.yul\":7112:7128   */\n      add\n        /* \"#utility.yul\":7106:7129   */\n      mload\n        /* \"#utility.yul\":7142:7205   */\n      tag_252\n        /* \"#utility.yul\":7199:7203   */\n      0x20\n        /* \"#utility.yul\":7194:7197   */\n      dup7\n        /* \"#utility.yul\":7190:7204   */\n      add\n        /* \"#utility.yul\":7176:7188   */\n      dup3\n        /* \"#utility.yul\":7142:7205   */\n      tag_132\n      jump\t// in\n    tag_252:\n        /* \"#utility.yul\":7050:7215   */\n      pop\n        /* \"#utility.yul\":7296:7300   */\n      0x40\n        /* \"#utility.yul\":7289:7294   */\n      dup4\n        /* \"#utility.yul\":7285:7301   */\n      add\n        /* \"#utility.yul\":7279:7302   */\n      mload\n        /* \"#utility.yul\":7315:7378   */\n      tag_253\n        /* \"#utility.yul\":7372:7376   */\n      0x40\n        /* \"#utility.yul\":7367:7370   */\n      dup7\n        /* \"#utility.yul\":7363:7377   */\n      add\n        /* \"#utility.yul\":7349:7361   */\n      dup3\n        /* \"#utility.yul\":7315:7378   */\n      tag_134\n      jump\t// in\n    tag_253:\n        /* \"#utility.yul\":7225:7388   */\n      pop\n        /* \"#utility.yul\":7405:7409   */\n      dup1\n        /* \"#utility.yul\":7398:7409   */\n      swap2\n      pop\n        /* \"#utility.yul\":6760:7415   */\n      pop\n        /* \"#utility.yul\":6648:7415   */\n      swap3\n      swap2\n      pop\n      pop\n      jump\t// out\n        /* \"#utility.yul\":7421:7770   */\n    tag_29:\n        /* \"#utility.yul\":7552:7556   */\n      0x00\n        /* \"#utility.yul\":7590:7592   */\n      0x20\n        /* \"#utility.yul\":7579:7588   */\n      dup3\n        /* \"#utility.yul\":7575:7593   */\n      add\n        /* \"#utility.yul\":7567:7593   */\n      swap1\n      pop\n        /* \"#utility.yul\":7639:7648   */\n      dup2\n        /* \"#utility.yul\":7633:7637   */\n      dup2\n        /* \"#utility.yul\":7629:7649   */\n      sub\n        /* \"#utility.yul\":7625:7626   */\n      0x00\n        /* \"#utility.yul\":7614:7623   */\n      dup4\n        /* \"#utility.yul\":7610:7627   */\n      add\n        /* \"#utility.yul\":7603:7650   */\n      mstore\n        /* \"#utility.yul\":7667:7763   */\n      tag_255\n        /* \"#utility.yul\":7758:7762   */\n      dup2\n        /* \"#utility.yul\":7749:7755   */\n      dup5\n        /* \"#utility.yul\":7667:7763   */\n      tag_135\n      jump\t// in\n    tag_255:\n        /* \"#utility.yul\":7659:7763   */\n      swap1\n      pop\n        /* \"#utility.yul\":7421:7770   */\n      swap3\n      swap2\n      pop\n      pop\n      jump\t// out\n        /* \"#utility.yul\":7776:7894   */\n    tag_136:\n        /* \"#utility.yul\":7863:7887   */\n      tag_257\n        /* \"#utility.yul\":7881:7886   */\n      dup2\n        /* \"#utility.yul\":7863:7887   */\n      tag_133\n      jump\t// in\n    tag_257:\n        /* \"#utility.yul\":7858:7861   */\n      dup3\n        /* \"#utility.yul\":7851:7888   */\n      mstore\n        /* \"#utility.yul\":7776:7894   */\n      pop\n      pop\n      jump\t// out\n        /* \"#utility.yul\":7900:8122   */\n    tag_34:\n        /* \"#utility.yul\":7993:7997   */\n      0x00\n        /* \"#utility.yul\":8031:8033   */\n      0x20\n        /* \"#utility.yul\":8020:8029   */\n      dup3\n        /* \"#utility.yul\":8016:8034   */\n      add\n        /* \"#utility.yul\":8008:8034   */\n      swap1\n      pop\n        /* \"#utility.yul\":8044:8115   */\n      tag_259\n        /* \"#utility.yul\":8112:8113   */\n      0x00\n        /* \"#utility.yul\":8101:8110   */\n      dup4\n        /* \"#utility.yul\":8097:8114   */\n      add\n        /* \"#utility.yul\":8088:8094   */\n      dup5\n        /* \"#utility.yul\":8044:8115   */\n      tag_136\n      jump\t// in\n    tag_259:\n        /* \"#utility.yul\":7900:8122   */\n      swap3\n      swap2\n      pop\n      pop\n      jump\t// out\n        /* \"#utility.yul\":8128:8246   */\n    tag_137:\n        /* \"#utility.yul\":8215:8239   */\n      tag_261\n        /* \"#utility.yul\":8233:8238   */\n      dup2\n        /* \"#utility.yul\":8215:8239   */\n      tag_120\n      jump\t// in\n    tag_261:\n        /* \"#utility.yul\":8210:8213   */\n      dup3\n        /* \"#utility.yul\":8203:8240   */\n      mstore\n        /* \"#utility.yul\":8128:8246   */\n      pop\n      pop\n      jump\t// out\n        /* \"#utility.yul\":8252:8474   */\n    tag_39:\n        /* \"#utility.yul\":8345:8349   */\n      0x00\n        /* \"#utility.yul\":8383:8385   */\n      0x20\n        /* \"#utility.yul\":8372:8381   */\n      dup3\n        /* \"#utility.yul\":8368:8386   */\n      add\n        /* \"#utility.yul\":8360:8386   */\n      swap1\n      pop\n        /* \"#utility.yul\":8396:8467   */\n      tag_263\n        /* \"#utility.yul\":8464:8465   */\n      0x00\n        /* \"#utility.yul\":8453:8462   */\n      dup4\n        /* \"#utility.yul\":8449:8466   */\n      add\n        /* \"#utility.yul\":8440:8446   */\n      dup5\n        /* \"#utility.yul\":8396:8467   */\n      tag_137\n      jump\t// in\n    tag_263:\n        /* \"#utility.yul\":8252:8474   */\n      swap3\n      swap2\n      pop\n      pop\n      jump\t// out\n        /* \"#utility.yul\":8480:8602   */\n    tag_138:\n        /* \"#utility.yul\":8553:8577   */\n      tag_265\n        /* \"#utility.yul\":8571:8576   */\n      dup2\n        /* \"#utility.yul\":8553:8577   */\n      tag_133\n      jump\t// in\n    tag_265:\n        /* \"#utility.yul\":8546:8551   */\n      dup2\n        /* \"#utility.yul\":8543:8578   */\n      eq\n        /* \"#utility.yul\":8533:8596   */\n      tag_266\n      jumpi\n        /* \"#utility.yul\":8592:8593   */\n      0x00\n        /* \"#utility.yul\":8589:8590   */\n      0x00\n        /* \"#utility.yul\":8582:8594   */\n      revert\n        /* \"#utility.yul\":8533:8596   */\n    tag_266:\n        /* \"#utility.yul\":8480:8602   */\n      pop\n      jump\t// out\n        /* \"#utility.yul\":8608:8747   */\n    tag_139:\n        /* \"#utility.yul\":8654:8659   */\n      0x00\n        /* \"#utility.yul\":8692:8698   */\n      dup2\n        /* \"#utility.yul\":8679:8699   */\n      calldataload\n        /* \"#utility.yul\":8670:8699   */\n      swap1\n      pop\n        /* \"#utility.yul\":8708:8741   */\n      tag_268\n        /* \"#utility.yul\":8735:8740   */\n      dup2\n        /* \"#utility.yul\":8708:8741   */\n      tag_138\n      jump\t// in\n    tag_268:\n        /* \"#utility.yul\":8608:8747   */\n      swap3\n      swap2\n      pop\n      pop\n      jump\t// out\n        /* \"#utility.yul\":8753:9772   */\n    tag_43:\n        /* \"#utility.yul\":8854:8860   */\n      0x00\n        /* \"#utility.yul\":8862:8868   */\n      0x00\n        /* \"#utility.yul\":8870:8876   */\n      0x00\n        /* \"#utility.yul\":8878:8884   */\n      0x00\n        /* \"#utility.yul\":8886:8892   */\n      0x00\n        /* \"#utility.yul\":8935:8937   */\n      0x60\n        /* \"#utility.yul\":8923:8932   */\n      dup7\n        /* \"#utility.yul\":8914:8921   */\n      dup9\n        /* \"#utility.yul\":8910:8933   */\n      sub\n        /* \"#utility.yul\":8906:8938   */\n      slt\n        /* \"#utility.yul\":8903:9022   */\n      iszero\n      tag_270\n      jumpi\n        /* \"#utility.yul\":8941:9020   */\n      tag_271\n      tag_107\n      jump\t// in\n    tag_271:\n        /* \"#utility.yul\":8903:9022   */\n    tag_270:\n        /* \"#utility.yul\":9089:9090   */\n      0x00\n        /* \"#utility.yul\":9078:9087   */\n      dup7\n        /* \"#utility.yul\":9074:9091   */\n      add\n        /* \"#utility.yul\":9061:9092   */\n      calldataload\n        /* \"#utility.yul\":9119:9137   */\n      0xffffffffffffffff\n        /* \"#utility.yul\":9111:9117   */\n      dup2\n        /* \"#utility.yul\":9108:9138   */\n      gt\n        /* \"#utility.yul\":9105:9222   */\n      iszero\n      tag_272\n      jumpi\n        /* \"#utility.yul\":9141:9220   */\n      tag_273\n      tag_108\n      jump\t// in\n    tag_273:\n        /* \"#utility.yul\":9105:9222   */\n    tag_272:\n        /* \"#utility.yul\":9254:9319   */\n      tag_274\n        /* \"#utility.yul\":9311:9318   */\n      dup9\n        /* \"#utility.yul\":9302:9308   */\n      dup3\n        /* \"#utility.yul\":9291:9300   */\n      dup10\n        /* \"#utility.yul\":9287:9309   */\n      add\n        /* \"#utility.yul\":9254:9319   */\n      tag_127\n      jump\t// in\n    tag_274:\n        /* \"#utility.yul\":9236:9319   */\n      swap6\n      pop\n      swap6\n      pop\n        /* \"#utility.yul\":9032:9329   */\n      pop\n        /* \"#utility.yul\":9396:9398   */\n      0x20\n        /* \"#utility.yul\":9385:9394   */\n      dup7\n        /* \"#utility.yul\":9381:9399   */\n      add\n        /* \"#utility.yul\":9368:9400   */\n      calldataload\n        /* \"#utility.yul\":9427:9445   */\n      0xffffffffffffffff\n        /* \"#utility.yul\":9419:9425   */\n      dup2\n        /* \"#utility.yul\":9416:9446   */\n      gt\n        /* \"#utility.yul\":9413:9530   */\n      iszero\n      tag_275\n      jumpi\n        /* \"#utility.yul\":9449:9528   */\n      tag_276\n      tag_108\n      jump\t// in\n    tag_276:\n        /* \"#utility.yul\":9413:9530   */\n    tag_275:\n        /* \"#utility.yul\":9562:9627   */\n      tag_277\n        /* \"#utility.yul\":9619:9626   */\n      dup9\n        /* \"#utility.yul\":9610:9616   */\n      dup3\n        /* \"#utility.yul\":9599:9608   */\n      dup10\n        /* \"#utility.yul\":9595:9617   */\n      add\n        /* \"#utility.yul\":9562:9627   */\n      tag_127\n      jump\t// in\n    tag_277:\n        /* \"#utility.yul\":9544:9627   */\n      swap4\n      pop\n      swap4\n      pop\n        /* \"#utility.yul\":9339:9637   */\n      pop\n        /* \"#utility.yul\":9676:9678   */\n      0x40\n        /* \"#utility.yul\":9702:9755   */\n      tag_278\n        /* \"#utility.yul\":9747:9754   */\n      dup9\n        /* \"#utility.yul\":9738:9744   */\n      dup3\n        /* \"#utility.yul\":9727:9736   */\n      dup10\n        /* \"#utility.yul\":9723:9745   */\n      add\n        /* \"#utility.yul\":9702:9755   */\n      tag_139\n      jump\t// in\n    tag_278:\n        /* \"#utility.yul\":9692:9755   */\n      swap2\n      pop\n        /* \"#utility.yul\":9647:9765   */\n      pop\n        /* \"#utility.yul\":8753:9772   */\n      swap3\n      swap6\n      pop\n      swap3\n      swap6\n      swap1\n      swap4\n      pop\n      jump\t// out\n        /* \"#utility.yul\":9778:9947   */\n    tag_140:\n        /* \"#utility.yul\":9862:9873   */\n      0x00\n        /* \"#utility.yul\":9896:9902   */\n      dup3\n        /* \"#utility.yul\":9891:9894   */\n      dup3\n        /* \"#utility.yul\":9884:9903   */\n      mstore\n        /* \"#utility.yul\":9936:9940   */\n      0x20\n        /* \"#utility.yul\":9931:9934   */\n      dup3\n        /* \"#utility.yul\":9927:9941   */\n      add\n        /* \"#utility.yul\":9912:9941   */\n      swap1\n      pop\n        /* \"#utility.yul\":9778:9947   */\n      swap3\n      swap2\n      pop\n      pop\n      jump\t// out\n        /* \"#utility.yul\":9953:10129   */\n    tag_141:\n        /* \"#utility.yul\":10093:10121   */\n      0x796f7520646f206e6f742068617665207065726d697373696f6e000000000000\n        /* \"#utility.yul\":10089:10090   */\n      0x00\n        /* \"#utility.yul\":10081:10087   */\n      dup3\n        /* \"#utility.yul\":10077:10091   */\n      add\n        /* \"#utility.yul\":10070:10122   */\n      mstore\n        /* \"#utility.yul\":9953:10129   */\n      pop\n      jump\t// out\n        /* \"#utility.yul\":10135:10501   */\n    tag_142:\n        /* \"#utility.yul\":10277:10280   */\n      0x00\n        /* \"#utility.yul\":10298:10365   */\n      tag_282\n        /* \"#utility.yul\":10362:10364   */\n      0x1a\n        /* \"#utility.yul\":10357:10360   */\n      dup4\n        /* \"#utility.yul\":10298:10365   */\n      tag_140\n      jump\t// in\n    tag_282:\n        /* \"#utility.yul\":10291:10365   */\n      swap2\n      pop\n        /* \"#utility.yul\":10374:10467   */\n      tag_283\n        /* \"#utility.yul\":10463:10466   */\n      dup3\n        /* \"#utility.yul\":10374:10467   */\n      tag_141\n      jump\t// in\n    tag_283:\n        /* \"#utility.yul\":10492:10494   */\n      0x20\n        /* \"#utility.yul\":10487:10490   */\n      dup3\n        /* \"#utility.yul\":10483:10495   */\n      add\n        /* \"#utility.yul\":10476:10495   */\n      swap1\n      pop\n        /* \"#utility.yul\":10135:10501   */\n      swap2\n      swap1\n      pop\n      jump\t// out\n        /* \"#utility.yul\":10507:10926   */\n    tag_48:\n        /* \"#utility.yul\":10673:10677   */\n      0x00\n        /* \"#utility.yul\":10711:10713   */\n      0x20\n        /* \"#utility.yul\":10700:10709   */\n      dup3\n        /* \"#utility.yul\":10696:10714   */\n      add\n        /* \"#utility.yul\":10688:10714   */\n      swap1\n      pop\n        /* \"#utility.yul\":10760:10769   */\n      dup2\n        /* \"#utility.yul\":10754:10758   */\n      dup2\n        /* \"#utility.yul\":10750:10770   */\n      sub\n        /* \"#utility.yul\":10746:10747   */\n      0x00\n        /* \"#utility.yul\":10735:10744   */\n      dup4\n        /* \"#utility.yul\":10731:10748   */\n      add\n        /* \"#utility.yul\":10724:10771   */\n      mstore\n        /* \"#utility.yul\":10788:10919   */\n      tag_285\n        /* \"#utility.yul\":10914:10918   */\n      dup2\n        /* \"#utility.yul\":10788:10919   */\n      tag_142\n      jump\t// in\n    tag_285:\n        /* \"#utility.yul\":10780:10919   */\n      swap1\n      pop\n        /* \"#utility.yul\":10507:10926   */\n      swap2\n      swap1\n      pop\n      jump\t// out\n        /* \"#utility.yul\":10932:11080   */\n    tag_143:\n        /* \"#utility.yul\":11034:11045   */\n      0x00\n        /* \"#utility.yul\":11071:11074   */\n      dup2\n        /* \"#utility.yul\":11056:11074   */\n      swap1\n      pop\n        /* \"#utility.yul\":10932:11080   */\n      swap3\n      swap2\n      pop\n      pop\n      jump\t// out\n        /* \"#utility.yul\":11110:11440   */\n    tag_144:\n        /* \"#utility.yul\":11226:11229   */\n      0x00\n        /* \"#utility.yul\":11247:11336   */\n      tag_288\n        /* \"#utility.yul\":11329:11335   */\n      dup4\n        /* \"#utility.yul\":11324:11327   */\n      dup6\n        /* \"#utility.yul\":11247:11336   */\n      tag_143\n      jump\t// in\n    tag_288:\n        /* \"#utility.yul\":11240:11336   */\n      swap4\n      pop\n        /* \"#utility.yul\":11346:11402   */\n      tag_289\n        /* \"#utility.yul\":11395:11401   */\n      dup4\n        /* \"#utility.yul\":11390:11393   */\n      dup6\n        /* \"#utility.yul\":11383:11388   */\n      dup5\n        /* \"#utility.yul\":11346:11402   */\n      tag_116\n      jump\t// in\n    tag_289:\n        /* \"#utility.yul\":11427:11433   */\n      dup3\n        /* \"#utility.yul\":11422:11425   */\n      dup5\n        /* \"#utility.yul\":11418:11434   */\n      add\n        /* \"#utility.yul\":11411:11434   */\n      swap1\n      pop\n        /* \"#utility.yul\":11110:11440   */\n      swap4\n      swap3\n      pop\n      pop\n      pop\n      jump\t// out\n        /* \"#utility.yul\":11446:11741   */\n    tag_53:\n        /* \"#utility.yul\":11588:11591   */\n      0x00\n        /* \"#utility.yul\":11610:11715   */\n      tag_291\n        /* \"#utility.yul\":11711:11714   */\n      dup3\n        /* \"#utility.yul\":11702:11708   */\n      dup5\n        /* \"#utility.yul\":11694:11700   */\n      dup7\n        /* \"#utility.yul\":11610:11715   */\n      tag_144\n      jump\t// in\n    tag_291:\n        /* \"#utility.yul\":11603:11715   */\n      swap2\n      pop\n        /* \"#utility.yul\":11732:11735   */\n      dup2\n        /* \"#utility.yul\":11725:11735   */\n      swap1\n      pop\n        /* \"#utility.yul\":11446:11741   */\n      swap4\n      swap3\n      pop\n      pop\n      pop\n      jump\t// out\n        /* \"#utility.yul\":11747:11927   */\n    tag_145:\n        /* \"#utility.yul\":11795:11872   */\n      0x4e487b7100000000000000000000000000000000000000000000000000000000\n        /* \"#utility.yul\":11792:11793   */\n      0x00\n        /* \"#utility.yul\":11785:11873   */\n      mstore\n        /* \"#utility.yul\":11892:11896   */\n      0x22\n        /* \"#utility.yul\":11889:11890   */\n      0x04\n        /* \"#utility.yul\":11882:11897   */\n      mstore\n        /* \"#utility.yul\":11916:11920   */\n      0x24\n        /* \"#utility.yul\":11913:11914   */\n      0x00\n        /* \"#utility.yul\":11906:11921   */\n      revert\n        /* \"#utility.yul\":11933:12253   */\n    tag_55:\n        /* \"#utility.yul\":11977:11983   */\n      0x00\n        /* \"#utility.yul\":12014:12015   */\n      0x02\n        /* \"#utility.yul\":12008:12012   */\n      dup3\n        /* \"#utility.yul\":12004:12016   */\n      div\n        /* \"#utility.yul\":11994:12016   */\n      swap1\n      pop\n        /* \"#utility.yul\":12061:12062   */\n      0x01\n        /* \"#utility.yul\":12055:12059   */\n      dup3\n        /* \"#utility.yul\":12051:12063   */\n      and\n        /* \"#utility.yul\":12082:12100   */\n      dup1\n        /* \"#utility.yul\":12072:12153   */\n      tag_294\n      jumpi\n        /* \"#utility.yul\":12138:12142   */\n      0x7f\n        /* \"#utility.yul\":12130:12136   */\n      dup3\n        /* \"#utility.yul\":12126:12143   */\n      and\n        /* \"#utility.yul\":12116:12143   */\n      swap2\n      pop\n        /* \"#utility.yul\":12072:12153   */\n    tag_294:\n        /* \"#utility.yul\":12200:12202   */\n      0x20\n        /* \"#utility.yul\":12192:12198   */\n      dup3\n        /* \"#utility.yul\":12189:12203   */\n      lt\n        /* \"#utility.yul\":12169:12187   */\n      dup2\n        /* \"#utility.yul\":12166:12204   */\n      sub\n        /* \"#utility.yul\":12163:12247   */\n      tag_295\n      jumpi\n        /* \"#utility.yul\":12219:12237   */\n      tag_296\n      tag_145\n      jump\t// in\n    tag_296:\n        /* \"#utility.yul\":12163:12247   */\n    tag_295:\n        /* \"#utility.yul\":11984:12253   */\n      pop\n        /* \"#utility.yul\":11933:12253   */\n      swap2\n      swap1\n      pop\n      jump\t// out\n        /* \"#utility.yul\":12259:12423   */\n    tag_146:\n        /* \"#utility.yul\":12399:12415   */\n      0x4c696e6b206e6f7420666f756e64000000000000000000000000000000000000\n        /* \"#utility.yul\":12395:12396   */\n      0x00\n        /* \"#utility.yul\":12387:12393   */\n      dup3\n        /* \"#utility.yul\":12383:12397   */\n      add\n        /* \"#utility.yul\":12376:12416   */\n      mstore\n        /* \"#utility.yul\":12259:12423   */\n      pop\n      jump\t// out\n        /* \"#utility.yul\":12429:12795   */\n    tag_147:\n        /* \"#utility.yul\":12571:12574   */\n      0x00\n        /* \"#utility.yul\":12592:12659   */\n      tag_299\n        /* \"#utility.yul\":12656:12658   */\n      0x0e\n        /* \"#utility.yul\":12651:12654   */\n      dup4\n        /* \"#utility.yul\":12592:12659   */\n      tag_140\n      jump\t// in\n    tag_299:\n        /* \"#utility.yul\":12585:12659   */\n      swap2\n      pop\n        /* \"#utility.yul\":12668:12761   */\n      tag_300\n        /* \"#utility.yul\":12757:12760   */\n      dup3\n        /* \"#utility.yul\":12668:12761   */\n      tag_146\n      jump\t// in\n    tag_300:\n        /* \"#utility.yul\":12786:12788   */\n      0x20\n        /* \"#utility.yul\":12781:12784   */\n      dup3\n        /* \"#utility.yul\":12777:12789   */\n      add\n        /* \"#utility.yul\":12770:12789   */\n      swap1\n      pop\n        /* \"#utility.yul\":12429:12795   */\n      swap2\n      swap1\n      pop\n      jump\t// out\n        /* \"#utility.yul\":12801:13220   */\n    tag_62:\n        /* \"#utility.yul\":12967:12971   */\n      0x00\n        /* \"#utility.yul\":13005:13007   */\n      0x20\n        /* \"#utility.yul\":12994:13003   */\n      dup3\n        /* \"#utility.yul\":12990:13008   */\n      add\n        /* \"#utility.yul\":12982:13008   */\n      swap1\n      pop\n        /* \"#utility.yul\":13054:13063   */\n      dup2\n        /* \"#utility.yul\":13048:13052   */\n      dup2\n        /* \"#utility.yul\":13044:13064   */\n      sub\n        /* \"#utility.yul\":13040:13041   */\n      0x00\n        /* \"#utility.yul\":13029:13038   */\n      dup4\n        /* \"#utility.yul\":13025:13042   */\n      add\n        /* \"#utility.yul\":13018:13065   */\n      mstore\n        /* \"#utility.yul\":13082:13213   */\n      tag_302\n        /* \"#utility.yul\":13208:13212   */\n      dup2\n        /* \"#utility.yul\":13082:13213   */\n      tag_147\n      jump\t// in\n    tag_302:\n        /* \"#utility.yul\":13074:13213   */\n      swap1\n      pop\n        /* \"#utility.yul\":12801:13220   */\n      swap2\n      swap1\n      pop\n      jump\t// out\n        /* \"#utility.yul\":13226:13399   */\n    tag_148:\n        /* \"#utility.yul\":13366:13391   */\n      0x596f7520616c7265616479206861766520616363657373000000000000000000\n        /* \"#utility.yul\":13362:13363   */\n      0x00\n        /* \"#utility.yul\":13354:13360   */\n      dup3\n        /* \"#utility.yul\":13350:13364   */\n      add\n        /* \"#utility.yul\":13343:13392   */\n      mstore\n        /* \"#utility.yul\":13226:13399   */\n      pop\n      jump\t// out\n        /* \"#utility.yul\":13405:13771   */\n    tag_149:\n        /* \"#utility.yul\":13547:13550   */\n      0x00\n        /* \"#utility.yul\":13568:13635   */\n      tag_305\n        /* \"#utility.yul\":13632:13634   */\n      0x17\n        /* \"#utility.yul\":13627:13630   */\n      dup4\n        /* \"#utility.yul\":13568:13635   */\n      tag_140\n      jump\t// in\n    tag_305:\n        /* \"#utility.yul\":13561:13635   */\n      swap2\n      pop\n        /* \"#utility.yul\":13644:13737   */\n      tag_306\n        /* \"#utility.yul\":13733:13736   */\n      dup3\n        /* \"#utility.yul\":13644:13737   */\n      tag_148\n      jump\t// in\n    tag_306:\n        /* \"#utility.yul\":13762:13764   */\n      0x20\n        /* \"#utility.yul\":13757:13760   */\n      dup3\n        /* \"#utility.yul\":13753:13765   */\n      add\n        /* \"#utility.yul\":13746:13765   */\n      swap1\n      pop\n        /* \"#utility.yul\":13405:13771   */\n      swap2\n      swap1\n      pop\n      jump\t// out\n        /* \"#utility.yul\":13777:14196   */\n    tag_66:\n        /* \"#utility.yul\":13943:13947   */\n      0x00\n        /* \"#utility.yul\":13981:13983   */\n      0x20\n        /* \"#utility.yul\":13970:13979   */\n      dup3\n        /* \"#utility.yul\":13966:13984   */\n      add\n        /* \"#utility.yul\":13958:13984   */\n      swap1\n      pop\n        /* \"#utility.yul\":14030:14039   */\n      dup2\n        /* \"#utility.yul\":14024:14028   */\n      dup2\n        /* \"#utility.yul\":14020:14040   */\n      sub\n        /* \"#utility.yul\":14016:14017   */\n      0x00\n        /* \"#utility.yul\":14005:14014   */\n      dup4\n        /* \"#utility.yul\":14001:14018   */\n      add\n        /* \"#utility.yul\":13994:14041   */\n      mstore\n        /* \"#utility.yul\":14058:14189   */\n      tag_308\n        /* \"#utility.yul\":14184:14188   */\n      dup2\n        /* \"#utility.yul\":14058:14189   */\n      tag_149\n      jump\t// in\n    tag_308:\n        /* \"#utility.yul\":14050:14189   */\n      swap1\n      pop\n        /* \"#utility.yul\":13777:14196   */\n      swap2\n      swap1\n      pop\n      jump\t// out\n        /* \"#utility.yul\":14202:14372   */\n    tag_150:\n        /* \"#utility.yul\":14342:14364   */\n      0x496e73756666696369656e74207061796d656e74000000000000000000000000\n        /* \"#utility.yul\":14338:14339   */\n      0x00\n        /* \"#utility.yul\":14330:14336   */\n      dup3\n        /* \"#utility.yul\":14326:14340   */\n      add\n        /* \"#utility.yul\":14319:14365   */\n      mstore\n        /* \"#utility.yul\":14202:14372   */\n      pop\n      jump\t// out\n        /* \"#utility.yul\":14378:14744   */\n    tag_151:\n        /* \"#utility.yul\":14520:14523   */\n      0x00\n        /* \"#utility.yul\":14541:14608   */\n      tag_311\n        /* \"#utility.yul\":14605:14607   */\n      0x14\n        /* \"#utility.yul\":14600:14603   */\n      dup4\n        /* \"#utility.yul\":14541:14608   */\n      tag_140\n      jump\t// in\n    tag_311:\n        /* \"#utility.yul\":14534:14608   */\n      swap2\n      pop\n        /* \"#utility.yul\":14617:14710   */\n      tag_312\n        /* \"#utility.yul\":14706:14709   */\n      dup3\n        /* \"#utility.yul\":14617:14710   */\n      tag_150\n      jump\t// in\n    tag_312:\n        /* \"#utility.yul\":14735:14737   */\n      0x20\n        /* \"#utility.yul\":14730:14733   */\n      dup3\n        /* \"#utility.yul\":14726:14738   */\n      add\n        /* \"#utility.yul\":14719:14738   */\n      swap1\n      pop\n        /* \"#utility.yul\":14378:14744   */\n      swap2\n      swap1\n      pop\n      jump\t// out\n        /* \"#utility.yul\":14750:15169   */\n    tag_69:\n        /* \"#utility.yul\":14916:14920   */\n      0x00\n        /* \"#utility.yul\":14954:14956   */\n      0x20\n        /* \"#utility.yul\":14943:14952   */\n      dup3\n        /* \"#utility.yul\":14939:14957   */\n      add\n        /* \"#utility.yul\":14931:14957   */\n      swap1\n      pop\n        /* \"#utility.yul\":15003:15012   */\n      dup2\n        /* \"#utility.yul\":14997:15001   */\n      dup2\n        /* \"#utility.yul\":14993:15013   */\n      sub\n        /* \"#utility.yul\":14989:14990   */\n      0x00\n        /* \"#utility.yul\":14978:14987   */\n      dup4\n        /* \"#utility.yul\":14974:14991   */\n      add\n        /* \"#utility.yul\":14967:15014   */\n      mstore\n        /* \"#utility.yul\":15031:15162   */\n      tag_314\n        /* \"#utility.yul\":15157:15161   */\n      dup2\n        /* \"#utility.yul\":15031:15162   */\n      tag_151\n      jump\t// in\n    tag_314:\n        /* \"#utility.yul\":15023:15162   */\n      swap1\n      pop\n        /* \"#utility.yul\":14750:15169   */\n      swap2\n      swap1\n      pop\n      jump\t// out\n        /* \"#utility.yul\":15175:15355   */\n    tag_152:\n        /* \"#utility.yul\":15223:15300   */\n      0x4e487b7100000000000000000000000000000000000000000000000000000000\n        /* \"#utility.yul\":15220:15221   */\n      0x00\n        /* \"#utility.yul\":15213:15301   */\n      mstore\n        /* \"#utility.yul\":15320:15324   */\n      0x11\n        /* \"#utility.yul\":15317:15318   */\n      0x04\n        /* \"#utility.yul\":15310:15325   */\n      mstore\n        /* \"#utility.yul\":15344:15348   */\n      0x24\n        /* \"#utility.yul\":15341:15342   */\n      0x00\n        /* \"#utility.yul\":15334:15349   */\n      revert\n        /* \"#utility.yul\":15361:15555   */\n    tag_72:\n        /* \"#utility.yul\":15401:15405   */\n      0x00\n        /* \"#utility.yul\":15421:15441   */\n      tag_317\n        /* \"#utility.yul\":15439:15440   */\n      dup3\n        /* \"#utility.yul\":15421:15441   */\n      tag_133\n      jump\t// in\n    tag_317:\n        /* \"#utility.yul\":15416:15441   */\n      swap2\n      pop\n        /* \"#utility.yul\":15455:15475   */\n      tag_318\n        /* \"#utility.yul\":15473:15474   */\n      dup4\n        /* \"#utility.yul\":15455:15475   */\n      tag_133\n      jump\t// in\n    tag_318:\n        /* \"#utility.yul\":15450:15475   */\n      swap3\n      pop\n        /* \"#utility.yul\":15499:15500   */\n      dup3\n        /* \"#utility.yul\":15496:15497   */\n      dup3\n        /* \"#utility.yul\":15492:15501   */\n      sub\n        /* \"#utility.yul\":15484:15501   */\n      swap1\n      pop\n        /* \"#utility.yul\":15523:15524   */\n      dup2\n        /* \"#utility.yul\":15517:15521   */\n      dup2\n        /* \"#utility.yul\":15514:15525   */\n      gt\n        /* \"#utility.yul\":15511:15548   */\n      iszero\n      tag_319\n      jumpi\n        /* \"#utility.yul\":15528:15546   */\n      tag_320\n      tag_152\n      jump\t// in\n    tag_320:\n        /* \"#utility.yul\":15511:15548   */\n    tag_319:\n        /* \"#utility.yul\":15361:15555   */\n      swap3\n      swap2\n      pop\n      pop\n      jump\t// out\n        /* \"#utility.yul\":15561:15743   */\n    tag_153:\n        /* \"#utility.yul\":15701:15735   */\n      0x54686973206c696e6b496420616c72656164792068617320616e206f776e6572\n        /* \"#utility.yul\":15697:15698   */\n      0x00\n        /* \"#utility.yul\":15689:15695   */\n      dup3\n        /* \"#utility.yul\":15685:15699   */\n      add\n        /* \"#utility.yul\":15678:15736   */\n      mstore\n        /* \"#utility.yul\":15561:15743   */\n      pop\n      jump\t// out\n        /* \"#utility.yul\":15749:16115   */\n    tag_154:\n        /* \"#utility.yul\":15891:15894   */\n      0x00\n        /* \"#utility.yul\":15912:15979   */\n      tag_323\n        /* \"#utility.yul\":15976:15978   */\n      0x20\n        /* \"#utility.yul\":15971:15974   */\n      dup4\n        /* \"#utility.yul\":15912:15979   */\n      tag_140\n      jump\t// in\n    tag_323:\n        /* \"#utility.yul\":15905:15979   */\n      swap2\n      pop\n        /* \"#utility.yul\":15988:16081   */\n      tag_324\n        /* \"#utility.yul\":16077:16080   */\n      dup3\n        /* \"#utility.yul\":15988:16081   */\n      tag_153\n      jump\t// in\n    tag_324:\n        /* \"#utility.yul\":16106:16108   */\n      0x20\n        /* \"#utility.yul\":16101:16104   */\n      dup3\n        /* \"#utility.yul\":16097:16109   */\n      add\n        /* \"#utility.yul\":16090:16109   */\n      swap1\n      pop\n        /* \"#utility.yul\":15749:16115   */\n      swap2\n      swap1\n      pop\n      jump\t// out\n        /* \"#utility.yul\":16121:16540   */\n    tag_97:\n        /* \"#utility.yul\":16287:16291   */\n      0x00\n        /* \"#utility.yul\":16325:16327   */\n      0x20\n        /* \"#utility.yul\":16314:16323   */\n      dup3\n        /* \"#utility.yul\":16310:16328   */\n      add\n        /* \"#utility.yul\":16302:16328   */\n      swap1\n      pop\n        /* \"#utility.yul\":16374:16383   */\n      dup2\n        /* \"#utility.yul\":16368:16372   */\n      dup2\n        /* \"#utility.yul\":16364:16384   */\n      sub\n        /* \"#utility.yul\":16360:16361   */\n      0x00\n        /* \"#utility.yul\":16349:16358   */\n      dup4\n        /* \"#utility.yul\":16345:16362   */\n      add\n        /* \"#utility.yul\":16338:16385   */\n      mstore\n        /* \"#utility.yul\":16402:16533   */\n      tag_326\n        /* \"#utility.yul\":16528:16532   */\n      dup2\n        /* \"#utility.yul\":16402:16533   */\n      tag_154\n      jump\t// in\n    tag_326:\n        /* \"#utility.yul\":16394:16533   */\n      swap1\n      pop\n        /* \"#utility.yul\":16121:16540   */\n      swap2\n      swap1\n      pop\n      jump\t// out\n        /* \"#utility.yul\":16546:16707   */\n    tag_155:\n        /* \"#utility.yul\":16686:16699   */\n      0x46656520746f6f206c6f77000000000000000000000000000000000000000000\n        /* \"#utility.yul\":16682:16683   */\n      0x00\n        /* \"#utility.yul\":16674:16680   */\n      dup3\n        /* \"#utility.yul\":16670:16684   */\n      add\n        /* \"#utility.yul\":16663:16700   */\n      mstore\n        /* \"#utility.yul\":16546:16707   */\n      pop\n      jump\t// out\n        /* \"#utility.yul\":16713:17079   */\n    tag_156:\n        /* \"#utility.yul\":16855:16858   */\n      0x00\n        /* \"#utility.yul\":16876:16943   */\n      tag_329\n        /* \"#utility.yul\":16940:16942   */\n      0x0b\n        /* \"#utility.yul\":16935:16938   */\n      dup4\n        /* \"#utility.yul\":16876:16943   */\n      tag_140\n      jump\t// in\n    tag_329:\n        /* \"#utility.yul\":16869:16943   */\n      swap2\n      pop\n        /* \"#utility.yul\":16952:17045   */\n      tag_330\n        /* \"#utility.yul\":17041:17044   */\n      dup3\n        /* \"#utility.yul\":16952:17045   */\n      tag_155\n      jump\t// in\n    tag_330:\n        /* \"#utility.yul\":17070:17072   */\n      0x20\n        /* \"#utility.yul\":17065:17068   */\n      dup3\n        /* \"#utility.yul\":17061:17073   */\n      add\n        /* \"#utility.yul\":17054:17073   */\n      swap1\n      pop\n        /* \"#utility.yul\":16713:17079   */\n      swap2\n      swap1\n      pop\n      jump\t// out\n        /* \"#utility.yul\":17085:17504   */\n    tag_101:\n        /* \"#utility.yul\":17251:17255   */\n      0x00\n        /* \"#utility.yul\":17289:17291   */\n      0x20\n        /* \"#utility.yul\":17278:17287   */\n      dup3\n        /* \"#utility.yul\":17274:17292   */\n      add\n        /* \"#utility.yul\":17266:17292   */\n      swap1\n      pop\n        /* \"#utility.yul\":17338:17347   */\n      dup2\n        /* \"#utility.yul\":17332:17336   */\n      dup2\n        /* \"#utility.yul\":17328:17348   */\n      sub\n        /* \"#utility.yul\":17324:17325   */\n      0x00\n        /* \"#utility.yul\":17313:17322   */\n      dup4\n        /* \"#utility.yul\":17309:17326   */\n      add\n        /* \"#utility.yul\":17302:17349   */\n      mstore\n        /* \"#utility.yul\":17366:17497   */\n      tag_332\n        /* \"#utility.yul\":17492:17496   */\n      dup2\n        /* \"#utility.yul\":17366:17497   */\n      tag_156\n      jump\t// in\n    tag_332:\n        /* \"#utility.yul\":17358:17497   */\n      swap1\n      pop\n        /* \"#utility.yul\":17085:17504   */\n      swap2\n      swap1\n      pop\n      jump\t// out\n        /* \"#utility.yul\":17510:17651   */\n    tag_157:\n        /* \"#utility.yul\":17559:17563   */\n      0x00\n        /* \"#utility.yul\":17582:17585   */\n      dup2\n        /* \"#utility.yul\":17574:17585   */\n      swap1\n      pop\n        /* \"#utility.yul\":17605:17608   */\n      dup2\n        /* \"#utility.yul\":17602:17603   */\n      0x00\n        /* \"#utility.yul\":17595:17609   */\n      mstore\n        /* \"#utility.yul\":17639:17643   */\n      0x20\n        /* \"#utility.yul\":17636:17637   */\n      0x00\n        /* \"#utility.yul\":17626:17644   */\n      keccak256\n        /* \"#utility.yul\":17618:17644   */\n      swap1\n      pop\n        /* \"#utility.yul\":17510:17651   */\n      swap2\n      swap1\n      pop\n      jump\t// out\n        /* \"#utility.yul\":17657:17750   */\n    tag_158:\n        /* \"#utility.yul\":17694:17700   */\n      0x00\n        /* \"#utility.yul\":17741:17743   */\n      0x20\n        /* \"#utility.yul\":17736:17738   */\n      0x1f\n        /* \"#utility.yul\":17729:17734   */\n      dup4\n        /* \"#utility.yul\":17725:17739   */\n      add\n        /* \"#utility.yul\":17721:17744   */\n      div\n        /* \"#utility.yul\":17711:17744   */\n      swap1\n      pop\n        /* \"#utility.yul\":17657:17750   */\n      swap2\n      swap1\n      pop\n      jump\t// out\n        /* \"#utility.yul\":17756:17863   */\n    tag_159:\n        /* \"#utility.yul\":17800:17808   */\n      0x00\n        /* \"#utility.yul\":17850:17855   */\n      dup3\n        /* \"#utility.yul\":17844:17848   */\n      dup3\n        /* \"#utility.yul\":17840:17856   */\n      shl\n        /* \"#utility.yul\":17819:17856   */\n      swap1\n      pop\n        /* \"#utility.yul\":17756:17863   */\n      swap3\n      swap2\n      pop\n      pop\n      jump\t// out\n        /* \"#utility.yul\":17869:18262   */\n    tag_160:\n        /* \"#utility.yul\":17938:17944   */\n      0x00\n        /* \"#utility.yul\":17988:17989   */\n      0x08\n        /* \"#utility.yul\":17976:17986   */\n      dup4\n        /* \"#utility.yul\":17972:17990   */\n      mul\n        /* \"#utility.yul\":18011:18108   */\n      tag_337\n        /* \"#utility.yul\":18041:18107   */\n      0xffffffffffffffffffffffffffffffffffffffffffffffffffffffffffffffff\n        /* \"#utility.yul\":18030:18039   */\n      dup3\n        /* \"#utility.yul\":18011:18108   */\n      tag_159\n      jump\t// in\n    tag_337:\n        /* \"#utility.yul\":18129:18168   */\n      tag_338\n        /* \"#utility.yul\":18159:18167   */\n      dup7\n        /* \"#utility.yul\":18148:18157   */\n      dup4\n        /* \"#utility.yul\":18129:18168   */\n      tag_159\n      jump\t// in\n    tag_338:\n        /* \"#utility.yul\":18117:18168   */\n      swap6\n      pop\n        /* \"#utility.yul\":18201:18205   */\n      dup1\n        /* \"#utility.yul\":18197:18206   */\n      not\n        /* \"#utility.yul\":18190:18195   */\n      dup5\n        /* \"#utility.yul\":18186:18207   */\n      and\n        /* \"#utility.yul\":18177:18207   */\n      swap4\n      pop\n        /* \"#utility.yul\":18250:18254   */\n      dup1\n        /* \"#utility.yul\":18240:18248   */\n      dup7\n        /* \"#utility.yul\":18236:18255   */\n      and\n        /* \"#utility.yul\":18229:18234   */\n      dup5\n        /* \"#utility.yul\":18226:18256   */\n      or\n        /* \"#utility.yul\":18216:18256   */\n      swap3\n      pop\n        /* \"#utility.yul\":17945:18262   */\n      pop\n      pop\n        /* \"#utility.yul\":17869:18262   */\n      swap4\n      swap3\n      pop\n      pop\n      pop\n      jump\t// out\n        /* \"#utility.yul\":18268:18328   */\n    tag_161:\n        /* \"#utility.yul\":18296:18299   */\n      0x00\n        /* \"#utility.yul\":18317:18322   */\n      dup2\n        /* \"#utility.yul\":18310:18322   */\n      swap1\n      pop\n        /* \"#utility.yul\":18268:18328   */\n      swap2\n      swap1\n      pop\n      jump\t// out\n        /* \"#utility.yul\":18334:18476   */\n    tag_162:\n        /* \"#utility.yul\":18384:18393   */\n      0x00\n        /* \"#utility.yul\":18417:18470   */\n      tag_341\n        /* \"#utility.yul\":18435:18469   */\n      tag_342\n        /* \"#utility.yul\":18444:18468   */\n      tag_343\n        /* \"#utility.yul\":18462:18467   */\n      dup5\n        /* \"#utility.yul\":18444:18468   */\n      tag_133\n      jump\t// in\n    tag_343:\n        /* \"#utility.yul\":18435:18469   */\n      tag_161\n      jump\t// in\n    tag_342:\n        /* \"#utility.yul\":18417:18470   */\n      tag_133\n      jump\t// in\n    tag_341:\n        /* \"#utility.yul\":18404:18470   */\n      swap1\n      pop\n        /* \"#utility.yul\":18334:18476   */\n      swap2\n      swap1\n      pop\n      jump\t// out\n        /* \"#utility.yul\":18482:18557   */\n    tag_163:\n        /* \"#utility.yul\":18525:18528   */\n      0x00\n        /* \"#utility.yul\":18546:18551   */\n      dup2\n        /* \"#utility.yul\":18539:18551   */\n      swap1\n      pop\n        /* \"#utility.yul\":18482:18557   */\n      swap2\n      swap1\n      pop\n      jump\t// out\n        /* \"#utility.yul\":18563:18832   */\n    tag_164:\n        /* \"#utility.yul\":18673:18712   */\n      tag_346\n        /* \"#utility.yul\":18704:18711   */\n      dup4\n        /* \"#utility.yul\":18673:18712   */\n      tag_162\n      jump\t// in\n    tag_346:\n        /* \"#utility.yul\":18734:18825   */\n      tag_347\n        /* \"#utility.yul\":18783:18824   */\n      tag_348\n        /* \"#utility.yul\":18807:18823   */\n      dup3\n        /* \"#utility.yul\":18783:18824   */\n      tag_163\n      jump\t// in\n    tag_348:\n        /* \"#utility.yul\":18775:18781   */\n      dup5\n        /* \"#utility.yul\":18768:18772   */\n      dup5\n        /* \"#utility.yul\":18762:18773   */\n      sload\n        /* \"#utility.yul\":18734:18825   */\n      tag_160\n      jump\t// in\n    tag_347:\n        /* \"#utility.yul\":18728:18732   */\n      dup3\n        /* \"#utility.yul\":18721:18826   */\n      sstore\n        /* \"#utility.yul\":18639:18832   */\n      pop\n        /* \"#utility.yul\":18563:18832   */\n      pop\n      pop\n      pop\n      jump\t// out\n        /* \"#utility.yul\":18838:18911   */\n    tag_165:\n        /* \"#utility.yul\":18883:18886   */\n      0x00\n        /* \"#utility.yul\":18904:18905   */\n      0x00\n        /* \"#utility.yul\":18897:18905   */\n      swap1\n      pop\n        /* \"#utility.yul\":18838:18911   */\n      swap1\n      jump\t// out\n        /* \"#utility.yul\":18917:19106   */\n    tag_166:\n        /* \"#utility.yul\":18994:19026   */\n      tag_351\n      tag_165\n      jump\t// in\n    tag_351:\n        /* \"#utility.yul\":19035:19100   */\n      tag_352\n        /* \"#utility.yul\":19093:19099   */\n      dup2\n        /* \"#utility.yul\":19085:19091   */\n      dup5\n        /* \"#utility.yul\":19079:19083   */\n      dup5\n        /* \"#utility.yul\":19035:19100   */\n      tag_164\n      jump\t// in\n    tag_352:\n        /* \"#utility.yul\":18970:19106   */\n      pop\n        /* \"#utility.yul\":18917:19106   */\n      pop\n      pop\n      jump\t// out\n        /* \"#utility.yul\":19112:19298   */\n    tag_167:\n        /* \"#utility.yul\":19172:19292   */\n    tag_354:\n        /* \"#utility.yul\":19189:19192   */\n      dup2\n        /* \"#utility.yul\":19182:19187   */\n      dup2\n        /* \"#utility.yul\":19179:19193   */\n      lt\n        /* \"#utility.yul\":19172:19292   */\n      iszero\n      tag_356\n      jumpi\n        /* \"#utility.yul\":19243:19282   */\n      tag_357\n        /* \"#utility.yul\":19280:19281   */\n      0x00\n        /* \"#utility.yul\":19273:19278   */\n      dup3\n        /* \"#utility.yul\":19243:19282   */\n      tag_166\n      jump\t// in\n    tag_357:\n        /* \"#utility.yul\":19216:19217   */\n      0x01\n        /* \"#utility.yul\":19209:19214   */\n      dup2\n        /* \"#utility.yul\":19205:19218   */\n      add\n        /* \"#utility.yul\":19196:19218   */\n      swap1\n      pop\n        /* \"#utility.yul\":19172:19292   */\n      jump(tag_354)\n    tag_356:\n        /* \"#utility.yul\":19112:19298   */\n      pop\n      pop\n      jump\t// out\n        /* \"#utility.yul\":19304:19847   */\n    tag_168:\n        /* \"#utility.yul\":19405:19407   */\n      0x1f\n        /* \"#utility.yul\":19400:19403   */\n      dup3\n        /* \"#utility.yul\":19397:19408   */\n      gt\n        /* \"#utility.yul\":19394:19840   */\n      iszero\n      tag_359\n      jumpi\n        /* \"#utility.yul\":19439:19477   */\n      tag_360\n        /* \"#utility.yul\":19471:19476   */\n      dup2\n        /* \"#utility.yul\":19439:19477   */\n      tag_157\n      jump\t// in\n    tag_360:\n        /* \"#utility.yul\":19523:19552   */\n      tag_361\n        /* \"#utility.yul\":19541:19551   */\n      dup5\n        /* \"#utility.yul\":19523:19552   */\n      tag_158\n      jump\t// in\n    tag_361:\n        /* \"#utility.yul\":19513:19521   */\n      dup2\n        /* \"#utility.yul\":19509:19553   */\n      add\n        /* \"#utility.yul\":19706:19708   */\n      0x20\n        /* \"#utility.yul\":19694:19704   */\n      dup6\n        /* \"#utility.yul\":19691:19709   */\n      lt\n        /* \"#utility.yul\":19688:19737   */\n      iszero\n      tag_362\n      jumpi\n        /* \"#utility.yul\":19727:19735   */\n      dup2\n        /* \"#utility.yul\":19712:19735   */\n      swap1\n      pop\n        /* \"#utility.yul\":19688:19737   */\n    tag_362:\n        /* \"#utility.yul\":19750:19830   */\n      tag_363\n        /* \"#utility.yul\":19806:19828   */\n      tag_364\n        /* \"#utility.yul\":19824:19827   */\n      dup6\n        /* \"#utility.yul\":19806:19828   */\n      tag_158\n      jump\t// in\n    tag_364:\n        /* \"#utility.yul\":19796:19804   */\n      dup4\n        /* \"#utility.yul\":19792:19829   */\n      add\n        /* \"#utility.yul\":19779:19790   */\n      dup3\n        /* \"#utility.yul\":19750:19830   */\n      tag_167\n      jump\t// in\n    tag_363:\n        /* \"#utility.yul\":19409:19840   */\n      pop\n      pop\n        /* \"#utility.yul\":19394:19840   */\n    tag_359:\n        /* \"#utility.yul\":19304:19847   */\n      pop\n      pop\n      pop\n      jump\t// out\n        /* \"#utility.yul\":19853:19970   */\n    tag_169:\n        /* \"#utility.yul\":19907:19915   */\n      0x00\n        /* \"#utility.yul\":19957:19962   */\n      dup3\n        /* \"#utility.yul\":19951:19955   */\n      dup3\n        /* \"#utility.yul\":19947:19963   */\n      shr\n        /* \"#utility.yul\":19926:19963   */\n      swap1\n      pop\n        /* \"#utility.yul\":19853:19970   */\n      swap3\n      swap2\n      pop\n      pop\n      jump\t// out\n        /* \"#utility.yul\":19976:20145   */\n    tag_170:\n        /* \"#utility.yul\":20020:20026   */\n      0x00\n        /* \"#utility.yul\":20053:20104   */\n      tag_367\n        /* \"#utility.yul\":20101:20102   */\n      0x00\n        /* \"#utility.yul\":20097:20103   */\n      not\n        /* \"#utility.yul\":20089:20094   */\n      dup5\n        /* \"#utility.yul\":20086:20087   */\n      0x08\n        /* \"#utility.yul\":20082:20095   */\n      mul\n        /* \"#utility.yul\":20053:20104   */\n      tag_169\n      jump\t// in\n    tag_367:\n        /* \"#utility.yul\":20049:20105   */\n      not\n        /* \"#utility.yul\":20134:20138   */\n      dup1\n        /* \"#utility.yul\":20128:20132   */\n      dup4\n        /* \"#utility.yul\":20124:20139   */\n      and\n        /* \"#utility.yul\":20114:20139   */\n      swap2\n      pop\n        /* \"#utility.yul\":20027:20145   */\n      pop\n        /* \"#utility.yul\":19976:20145   */\n      swap3\n      swap2\n      pop\n      pop\n      jump\t// out\n        /* \"#utility.yul\":20150:20445   */\n    tag_171:\n        /* \"#utility.yul\":20226:20230   */\n      0x00\n        /* \"#utility.yul\":20372:20401   */\n      tag_369\n        /* \"#utility.yul\":20397:20400   */\n      dup4\n        /* \"#utility.yul\":20391:20395   */\n      dup4\n        /* \"#utility.yul\":20372:20401   */\n      tag_170\n      jump\t// in\n    tag_369:\n        /* \"#utility.yul\":20364:20401   */\n      swap2\n      pop\n        /* \"#utility.yul\":20434:20437   */\n      dup3\n        /* \"#utility.yul\":20431:20432   */\n      0x02\n        /* \"#utility.yul\":20427:20438   */\n      mul\n        /* \"#utility.yul\":20421:20425   */\n      dup3\n        /* \"#utility.yul\":20418:20439   */\n      or\n        /* \"#utility.yul\":20410:20439   */\n      swap1\n      pop\n        /* \"#utility.yul\":20150:20445   */\n      swap3\n      swap2\n      pop\n      pop\n      jump\t// out\n        /* \"#utility.yul\":20450:21845   */\n    tag_104:\n        /* \"#utility.yul\":20567:20604   */\n      tag_371\n        /* \"#utility.yul\":20600:20603   */\n      dup3\n        /* \"#utility.yul\":20567:20604   */\n      tag_128\n      jump\t// in\n    tag_371:\n        /* \"#utility.yul\":20669:20687   */\n      0xffffffffffffffff\n        /* \"#utility.yul\":20661:20667   */\n      dup2\n        /* \"#utility.yul\":20658:20688   */\n      gt\n        /* \"#utility.yul\":20655:20711   */\n      iszero\n      tag_372\n      jumpi\n        /* \"#utility.yul\":20691:20709   */\n      tag_373\n      tag_112\n      jump\t// in\n    tag_373:\n        /* \"#utility.yul\":20655:20711   */\n    tag_372:\n        /* \"#utility.yul\":20735:20773   */\n      tag_374\n        /* \"#utility.yul\":20767:20771   */\n      dup3\n        /* \"#utility.yul\":20761:20772   */\n      sload\n        /* \"#utility.yul\":20735:20773   */\n      tag_55\n      jump\t// in\n    tag_374:\n        /* \"#utility.yul\":20820:20887   */\n      tag_375\n        /* \"#utility.yul\":20880:20886   */\n      dup3\n        /* \"#utility.yul\":20872:20878   */\n      dup3\n        /* \"#utility.yul\":20866:20870   */\n      dup6\n        /* \"#utility.yul\":20820:20887   */\n      tag_168\n      jump\t// in\n    tag_375:\n        /* \"#utility.yul\":20914:20915   */\n      0x00\n        /* \"#utility.yul\":20938:20942   */\n      0x20\n        /* \"#utility.yul\":20925:20942   */\n      swap1\n      pop\n        /* \"#utility.yul\":20970:20972   */\n      0x1f\n        /* \"#utility.yul\":20962:20968   */\n      dup4\n        /* \"#utility.yul\":20959:20973   */\n      gt\n        /* \"#utility.yul\":20987:20988   */\n      0x01\n        /* \"#utility.yul\":20982:21600   */\n      dup2\n      eq\n      tag_377\n      jumpi\n        /* \"#utility.yul\":21644:21645   */\n      0x00\n        /* \"#utility.yul\":21661:21667   */\n      dup5\n        /* \"#utility.yul\":21658:21735   */\n      iszero\n      tag_378\n      jumpi\n        /* \"#utility.yul\":21710:21719   */\n      dup3\n        /* \"#utility.yul\":21705:21708   */\n      dup8\n        /* \"#utility.yul\":21701:21720   */\n      add\n        /* \"#utility.yul\":21695:21721   */\n      mload\n        /* \"#utility.yul\":21686:21721   */\n      swap1\n      pop\n        /* \"#utility.yul\":21658:21735   */\n    tag_378:\n        /* \"#utility.yul\":21761:21828   */\n      tag_379\n        /* \"#utility.yul\":21821:21827   */\n      dup6\n        /* \"#utility.yul\":21814:21819   */\n      dup3\n        /* \"#utility.yul\":21761:21828   */\n      tag_171\n      jump\t// in\n    tag_379:\n        /* \"#utility.yul\":21755:21759   */\n      dup7\n        /* \"#utility.yul\":21748:21829   */\n      sstore\n        /* \"#utility.yul\":21617:21839   */\n      pop\n        /* \"#utility.yul\":20952:21839   */\n      jump(tag_376)\n        /* \"#utility.yul\":20982:21600   */\n    tag_377:\n        /* \"#utility.yul\":21034:21038   */\n      0x1f\n        /* \"#utility.yul\":21030:21039   */\n      not\n        /* \"#utility.yul\":21022:21028   */\n      dup5\n        /* \"#utility.yul\":21018:21040   */\n      and\n        /* \"#utility.yul\":21068:21105   */\n      tag_380\n        /* \"#utility.yul\":21100:21104   */\n      dup7\n        /* \"#utility.yul\":21068:21105   */\n      tag_157\n      jump\t// in\n    tag_380:\n        /* \"#utility.yul\":21127:21128   */\n      0x00\n        /* \"#utility.yul\":21141:21349   */\n    tag_381:\n        /* \"#utility.yul\":21155:21162   */\n      dup3\n        /* \"#utility.yul\":21152:21153   */\n      dup2\n        /* \"#utility.yul\":21149:21163   */\n      lt\n        /* \"#utility.yul\":21141:21349   */\n      iszero\n      tag_383\n      jumpi\n        /* \"#utility.yul\":21234:21243   */\n      dup5\n        /* \"#utility.yul\":21229:21232   */\n      dup10\n        /* \"#utility.yul\":21225:21244   */\n      add\n        /* \"#utility.yul\":21219:21245   */\n      mload\n        /* \"#utility.yul\":21211:21217   */\n      dup3\n        /* \"#utility.yul\":21204:21246   */\n      sstore\n        /* \"#utility.yul\":21285:21286   */\n      0x01\n        /* \"#utility.yul\":21277:21283   */\n      dup3\n        /* \"#utility.yul\":21273:21287   */\n      add\n        /* \"#utility.yul\":21263:21287   */\n      swap2\n      pop\n        /* \"#utility.yul\":21332:21334   */\n      0x20\n        /* \"#utility.yul\":21321:21330   */\n      dup6\n        /* \"#utility.yul\":21317:21335   */\n      add\n        /* \"#utility.yul\":21304:21335   */\n      swap5\n      pop\n        /* \"#utility.yul\":21178:21182   */\n      0x20\n        /* \"#utility.yul\":21175:21176   */\n      dup2\n        /* \"#utility.yul\":21171:21183   */\n      add\n        /* \"#utility.yul\":21166:21183   */\n      swap1\n      pop\n        /* \"#utility.yul\":21141:21349   */\n      jump(tag_381)\n    tag_383:\n        /* \"#utility.yul\":21377:21383   */\n      dup7\n        /* \"#utility.yul\":21368:21375   */\n      dup4\n        /* \"#utility.yul\":21365:21384   */\n      lt\n        /* \"#utility.yul\":21362:21541   */\n      iszero\n      tag_384\n      jumpi\n        /* \"#utility.yul\":21435:21444   */\n      dup5\n        /* \"#utility.yul\":21430:21433   */\n      dup10\n        /* \"#utility.yul\":21426:21445   */\n      add\n        /* \"#utility.yul\":21420:21446   */\n      mload\n        /* \"#utility.yul\":21478:21526   */\n      tag_385\n        /* \"#utility.yul\":21520:21524   */\n      0x1f\n        /* \"#utility.yul\":21512:21518   */\n      dup10\n        /* \"#utility.yul\":21508:21525   */\n      and\n        /* \"#utility.yul\":21497:21506   */\n      dup3\n        /* \"#utility.yul\":21478:21526   */\n      tag_170\n      jump\t// in\n    tag_385:\n        /* \"#utility.yul\":21470:21476   */\n      dup4\n        /* \"#utility.yul\":21463:21527   */\n      sstore\n        /* \"#utility.yul\":21385:21541   */\n      pop\n        /* \"#utility.yul\":21362:21541   */\n    tag_384:\n        /* \"#utility.yul\":21587:21588   */\n      0x01\n        /* \"#utility.yul\":21583:21584   */\n      0x02\n        /* \"#utility.yul\":21575:21581   */\n      dup9\n        /* \"#utility.yul\":21571:21585   */\n      mul\n        /* \"#utility.yul\":21567:21589   */\n      add\n        /* \"#utility.yul\":21561:21565   */\n      dup9\n        /* \"#utility.yul\":21554:21590   */\n      sstore\n        /* \"#utility.yul\":20989:21600   */\n      pop\n      pop\n      pop\n        /* \"#utility.yul\":20952:21839   */\n    tag_376:\n      pop\n        /* \"#utility.yul\":20542:21845   */\n      pop\n      pop\n      pop\n        /* \"#utility.yul\":20450:21845   */\n      pop\n      pop\n      jump\t// out\n\n    auxdata: 0xa264697066735822122098b3b694743ce37a795e3deb3d9080ef97d62a8944ce3290c5ca1cca025f077364736f6c634300081e0033\n}\n",
				"bytecode": {
					"linkReferences": {},
					"object": "60a060405260015f553480156012575f5ffd5b503373ffffffffffffffffffffffffffffffffffffffff1660808173ffffffffffffffffffffffffffffffffffffffff16815250506080516116f461006d5f395f81816101dd0152818161026f01526107f501526116f45ff3fe60806040526004361061006f575f3560e01c80637476452a1161004d5780637476452a146100e1578063e14891911461011d578063f851a44014610147578063fc5f2b78146101715761006f565b806313bd20e2146100735780633ccfd60b146100af578063429cad86146100c5575b5f5ffd5b34801561007e575f5ffd5b5061009960048036038101906100949190610d98565b610199565b6040516100a69190610e0c565b60405180910390f35b3480156100ba575f5ffd5b506100c36101db565b005b6100df60048036038101906100da9190610e82565b6102d4565b005b3480156100ec575f5ffd5b5061010760048036038101906101029190610e82565b610622565b6040516101149190610fa1565b60405180910390f35b348015610128575f5ffd5b506101316107ee565b60405161013e9190610fd0565b60405180910390f35b348015610152575f5ffd5b5061015b6107f3565b6040516101689190610ff8565b60405180910390f35b34801561017c575f5ffd5b506101976004803603810190610192919061103b565b610817565b005b600282805160208101820180518482526020830160208501208183528095505050505050602052805f5260405f205f915091509054906101000a900460ff1681565b7f000000000000000000000000000000000000000000000000000000000000000073ffffffffffffffffffffffffffffffffffffffff163373ffffffffffffffffffffffffffffffffffffffff1614610269576040517f08c379a000000000000000000000000000000000000000000000000000000000815260040161026090611126565b60405180910390fd5b5f4790507f000000000000000000000000000000000000000000000000000000000000000073ffffffffffffffffffffffffffffffffffffffff166108fc8290811502906040515f60405180830381858888f193505050501580156102d0573d5f5f3e3d5ffd5b5050565b5f600183836040516102e7929190611172565b90815260200160405180910390206040518060600160405290815f8201805461030f906111b7565b80601f016020809104026020016040519081016040528092919081815260200182805461033b906111b7565b80156103865780601f1061035d57610100808354040283529160200191610386565b820191905f5260205f20905b81548152906001019060200180831161036957829003601f168201915b50505050508152602001600182015f9054906101000a900473ffffffffffffffffffffffffffffffffffffffff1673ffffffffffffffffffffffffffffffffffffffff1673ffffffffffffffffffffffffffffffffffffffff16815260200160028201548152505090505f73ffffffffffffffffffffffffffffffffffffffff16816020015173ffffffffffffffffffffffffffffffffffffffff1603610462576040517f08c379a000000000000000000000000000000000000000000000000000000000815260040161045990611231565b60405180910390fd5b5f151560028484604051610477929190611172565b90815260200160405180910390205f3373ffffffffffffffffffffffffffffffffffffffff1673ffffffffffffffffffffffffffffffffffffffff1681526020019081526020015f205f9054906101000a900460ff1615151461050f576040517f08c379a000000000000000000000000000000000000000000000000000000000815260040161050690611299565b60405180910390fd5b8060400151341015610556576040517f08c379a000000000000000000000000000000000000000000000000000000000815260040161054d90611301565b60405180910390fd5b60016002848460405161056a929190611172565b90815260200160405180910390205f3373ffffffffffffffffffffffffffffffffffffffff1673ffffffffffffffffffffffffffffffffffffffff1681526020019081526020015f205f6101000a81548160ff021916908315150217905550806020015173ffffffffffffffffffffffffffffffffffffffff166108fc5f54346105f4919061134c565b90811502906040515f60405180830381858888f1935050505015801561061c573d5f5f3e3d5ffd5b50505050565b61062a610bbc565b5f6001848460405161063d929190611172565b90815260200160405180910390206040518060600160405290815f82018054610665906111b7565b80601f0160208091040260200160405190810160405280929190818152602001828054610691906111b7565b80156106dc5780601f106106b3576101008083540402835291602001916106dc565b820191905f5260205f20905b8154815290600101906020018083116106bf57829003601f168201915b50505050508152602001600182015f9054906101000a900473ffffffffffffffffffffffffffffffffffffffff1673ffffffffffffffffffffffffffffffffffffffff1673ffffffffffffffffffffffffffffffffffffffff16815260200160028201548152505090505f81604001510361075a57809150506107e8565b5f15156002858560405161076f929190611172565b90815260200160405180910390205f3373ffffffffffffffffffffffffffffffffffffffff1673ffffffffffffffffffffffffffffffffffffffff1681526020019081526020015f205f9054906101000a900460ff161515036107e35760405180602001604052805f815250815f01819052505b809150505b92915050565b5f5481565b7f000000000000000000000000000000000000000000000000000000000000000081565b5f6001848460405161082a929190611172565b90815260200160405180910390206040518060600160405290815f82018054610852906111b7565b80601f016020809104026020016040519081016040528092919081815260200182805461087e906111b7565b80156108c95780601f106108a0576101008083540402835291602001916108c9565b820191905f5260205f20905b8154815290600101906020018083116108ac57829003601f168201915b50505050508152602001600182015f9054906101000a900473ffffffffffffffffffffffffffffffffffffffff1673ffffffffffffffffffffffffffffffffffffffff1673ffffffffffffffffffffffffffffffffffffffff16815260200160028201548152505090505f73ffffffffffffffffffffffffffffffffffffffff16816020015173ffffffffffffffffffffffffffffffffffffffff1614806109a057503373ffffffffffffffffffffffffffffffffffffffff16816020015173ffffffffffffffffffffffffffffffffffffffff16145b6109df576040517f08c379a00000000000000000000000000000000000000000000000000000000081526004016109d6906113c9565b60405180910390fd5b5f8214806109ed57505f5482115b610a2c576040517f08c379a0000000000000000000000000000000000000000000000000000000008152600401610a2390611431565b60405180910390fd5b85858080601f0160208091040260200160405190810160405280939291908181526020018383808284375f81840152601f19601f82011690508083019250505050505050815f01819052508181604001818152505033816020019073ffffffffffffffffffffffffffffffffffffffff16908173ffffffffffffffffffffffffffffffffffffffff16815250508060018585604051610acc929190611172565b90815260200160405180910390205f820151815f019081610aed91906115ef565b506020820151816001015f6101000a81548173ffffffffffffffffffffffffffffffffffffffff021916908373ffffffffffffffffffffffffffffffffffffffff16021790555060408201518160020155905050600160028585604051610b55929190611172565b90815260200160405180910390205f3373ffffffffffffffffffffffffffffffffffffffff1673ffffffffffffffffffffffffffffffffffffffff1681526020019081526020015f205f6101000a81548160ff021916908315150217905550505050505050565b6040518060600160405280606081526020015f73ffffffffffffffffffffffffffffffffffffffff1681526020015f81525090565b5f604051905090565b5f5ffd5b5f5ffd5b5f5ffd5b5f5ffd5b5f601f19601f8301169050919050565b7f4e487b71000000000000000000000000000000000000000000000000000000005f52604160045260245ffd5b610c5082610c0a565b810181811067ffffffffffffffff82111715610c6f57610c6e610c1a565b5b80604052505050565b5f610c81610bf1565b9050610c8d8282610c47565b919050565b5f67ffffffffffffffff821115610cac57610cab610c1a565b5b610cb582610c0a565b9050602081019050919050565b828183375f83830152505050565b5f610ce2610cdd84610c92565b610c78565b905082815260208101848484011115610cfe57610cfd610c06565b5b610d09848285610cc2565b509392505050565b5f82601f830112610d2557610d24610c02565b5b8135610d35848260208601610cd0565b91505092915050565b5f73ffffffffffffffffffffffffffffffffffffffff82169050919050565b5f610d6782610d3e565b9050919050565b610d7781610d5d565b8114610d81575f5ffd5b50565b5f81359050610d9281610d6e565b92915050565b5f5f60408385031215610dae57610dad610bfa565b5b5f83013567ffffffffffffffff811115610dcb57610dca610bfe565b5b610dd785828601610d11565b9250506020610de885828601610d84565b9150509250929050565b5f8115159050919050565b610e0681610df2565b82525050565b5f602082019050610e1f5f830184610dfd565b92915050565b5f5ffd5b5f5ffd5b5f5f83601f840112610e4257610e41610c02565b5b8235905067ffffffffffffffff811115610e5f57610e5e610e25565b5b602083019150836001820283011115610e7b57610e7a610e29565b5b9250929050565b5f5f60208385031215610e9857610e97610bfa565b5b5f83013567ffffffffffffffff811115610eb557610eb4610bfe565b5b610ec185828601610e2d565b92509250509250929050565b5f81519050919050565b5f82825260208201905092915050565b8281835e5f83830152505050565b5f610eff82610ecd565b610f098185610ed7565b9350610f19818560208601610ee7565b610f2281610c0a565b840191505092915050565b610f3681610d5d565b82525050565b5f819050919050565b610f4e81610f3c565b82525050565b5f606083015f8301518482035f860152610f6e8282610ef5565b9150506020830151610f836020860182610f2d565b506040830151610f966040860182610f45565b508091505092915050565b5f6020820190508181035f830152610fb98184610f54565b905092915050565b610fca81610f3c565b82525050565b5f602082019050610fe35f830184610fc1565b92915050565b610ff281610d5d565b82525050565b5f60208201905061100b5f830184610fe9565b92915050565b61101a81610f3c565b8114611024575f5ffd5b50565b5f8135905061103581611011565b92915050565b5f5f5f5f5f6060868803121561105457611053610bfa565b5b5f86013567ffffffffffffffff81111561107157611070610bfe565b5b61107d88828901610e2d565b9550955050602086013567ffffffffffffffff8111156110a05761109f610bfe565b5b6110ac88828901610e2d565b935093505060406110bf88828901611027565b9150509295509295909350565b5f82825260208201905092915050565b7f796f7520646f206e6f742068617665207065726d697373696f6e0000000000005f82015250565b5f611110601a836110cc565b915061111b826110dc565b602082019050919050565b5f6020820190508181035f83015261113d81611104565b9050919050565b5f81905092915050565b5f6111598385611144565b9350611166838584610cc2565b82840190509392505050565b5f61117e82848661114e565b91508190509392505050565b7f4e487b71000000000000000000000000000000000000000000000000000000005f52602260045260245ffd5b5f60028204905060018216806111ce57607f821691505b6020821081036111e1576111e061118a565b5b50919050565b7f4c696e6b206e6f7420666f756e640000000000000000000000000000000000005f82015250565b5f61121b600e836110cc565b9150611226826111e7565b602082019050919050565b5f6020820190508181035f8301526112488161120f565b9050919050565b7f596f7520616c72656164792068617665206163636573730000000000000000005f82015250565b5f6112836017836110cc565b915061128e8261124f565b602082019050919050565b5f6020820190508181035f8301526112b081611277565b9050919050565b7f496e73756666696369656e74207061796d656e740000000000000000000000005f82015250565b5f6112eb6014836110cc565b91506112f6826112b7565b602082019050919050565b5f6020820190508181035f830152611318816112df565b9050919050565b7f4e487b71000000000000000000000000000000000000000000000000000000005f52601160045260245ffd5b5f61135682610f3c565b915061136183610f3c565b92508282039050818111156113795761137861131f565b5b92915050565b7f54686973206c696e6b496420616c72656164792068617320616e206f776e65725f82015250565b5f6113b36020836110cc565b91506113be8261137f565b602082019050919050565b5f6020820190508181035f8301526113e0816113a7565b9050919050565b7f46656520746f6f206c6f770000000000000000000000000000000000000000005f82015250565b5f61141b600b836110cc565b9150611426826113e7565b602082019050919050565b5f6020820190508181035f8301526114488161140f565b9050919050565b5f819050815f5260205f209050919050565b5f6020601f8301049050919050565b5f82821b905092915050565b5f600883026114ab7fffffffffffffffffffffffffffffffffffffffffffffffffffffffffffffffff82611470565b6114b58683611470565b95508019841693508086168417925050509392505050565b5f819050919050565b5f6114f06114eb6114e684610f3c565b6114cd565b610f3c565b9050919050565b5f819050919050565b611509836114d6565b61151d611515826114f7565b84845461147c565b825550505050565b5f5f905090565b611534611525565b61153f818484611500565b505050565b5b81811015611562576115575f8261152c565b600181019050611545565b5050565b601f8211156115a7576115788161144f565b61158184611461565b81016020851015611590578190505b6115a461159c85611461565b830182611544565b50505b505050565b5f82821c905092915050565b5f6115c75f19846008026115ac565b1980831691505092915050565b5f6115df83836115b8565b9150826002028217905092915050565b6115f882610ecd565b67ffffffffffffffff81111561161157611610610c1a565b5b61161b82546111b7565b611626828285611566565b5f60209050601f831160018114611657575f8415611645578287015190505b61164f85826115d4565b8655506116b6565b601f1984166116658661144f565b5f5b8281101561168c57848901518255600182019150602085019450602081019050611667565b868310156116a957848901516116a5601f8916826115b8565b8355505b6001600288020188555050505b50505050505056fea264697066735822122098b3b694743ce37a795e3deb3d9080ef97d62a8944ce3290c5ca1cca025f077364736f6c634300081e0033",
					"opcodes": "PUSH1 0xA0 PUSH1 0x40 MSTORE PUSH1 0x1 PUSH0 SSTORE CALLVALUE DUP1 ISZERO PUSH1 0x12 JUMPI PUSH0 PUSH0 REVERT JUMPDEST POP CALLER PUSH20 0xFFFFFFFFFFFFFFFFFFFFFFFFFFFFFFFFFFFFFFFF AND PUSH1 0x80 DUP2 PUSH20 0xFFFFFFFFFFFFFFFFFFFFFFFFFFFFFFFFFFFFFFFF AND DUP2 MSTORE POP POP PUSH1 0x80 MLOAD PUSH2 0x16F4 PUSH2 0x6D PUSH0 CODECOPY PUSH0 DUP2 DUP2 PUSH2 0x1DD ADD MSTORE DUP2 DUP2 PUSH2 0x26F ADD MSTORE PUSH2 0x7F5 ADD MSTORE PUSH2 0x16F4 PUSH0 RETURN INVALID PUSH1 0x80 PUSH1 0x40 MSTORE PUSH1 0x4 CALLDATASIZE LT PUSH2 0x6F JUMPI PUSH0 CALLDATALOAD PUSH1 0xE0 SHR DUP1 PUSH4 0x7476452A GT PUSH2 0x4D JUMPI DUP1 PUSH4 0x7476452A EQ PUSH2 0xE1 JUMPI DUP1 PUSH4 0xE1489191 EQ PUSH2 0x11D JUMPI DUP1 PUSH4 0xF851A440 EQ PUSH2 0x147 JUMPI DUP1 PUSH4 0xFC5F2B78 EQ PUSH2 0x171 JUMPI PUSH2 0x6F JUMP JUMPDEST DUP1 PUSH4 0x13BD20E2 EQ PUSH2 0x73 JUMPI DUP1 PUSH4 0x3CCFD60B EQ PUSH2 0xAF JUMPI DUP1 PUSH4 0x429CAD86 EQ PUSH2 0xC5 JUMPI JUMPDEST PUSH0 PUSH0 REVERT JUMPDEST CALLVALUE DUP1 ISZERO PUSH2 0x7E JUMPI PUSH0 PUSH0 REVERT JUMPDEST POP PUSH2 0x99 PUSH1 0x4 DUP1 CALLDATASIZE SUB DUP2 ADD SWAP1 PUSH2 0x94 SWAP2 SWAP1 PUSH2 0xD98 JUMP JUMPDEST PUSH2 0x199 JUMP JUMPDEST PUSH1 0x40 MLOAD PUSH2 0xA6 SWAP2 SWAP1 PUSH2 0xE0C JUMP JUMPDEST PUSH1 0x40 MLOAD DUP1 SWAP2 SUB SWAP1 RETURN JUMPDEST CALLVALUE DUP1 ISZERO PUSH2 0xBA JUMPI PUSH0 PUSH0 REVERT JUMPDEST POP PUSH2 0xC3 PUSH2 0x1DB JUMP JUMPDEST STOP JUMPDEST PUSH2 0xDF PUSH1 0x4 DUP1 CALLDATASIZE SUB DUP2 ADD SWAP1 PUSH2 0xDA SWAP2 SWAP1 PUSH2 0xE82 JUMP JUMPDEST PUSH2 0x2D4 JUMP JUMPDEST STOP JUMPDEST CALLVALUE DUP1 ISZERO PUSH2 0xEC JUMPI PUSH0 PUSH0 REVERT JUMPDEST POP PUSH2 0x107 PUSH1 0x4 DUP1 CALLDATASIZE SUB DUP2 ADD SWAP1 PUSH2 0x102 SWAP2 SWAP1 PUSH2 0xE82 JUMP JUMPDEST PUSH2 0x622 JUMP JUMPDEST PUSH1 0x40 MLOAD PUSH2 0x114 SWAP2 SWAP1 PUSH2 0xFA1 JUMP JUMPDEST PUSH1 0x40 MLOAD DUP1 SWAP2 SUB SWAP1 RETURN JUMPDEST CALLVALUE DUP1 ISZERO PUSH2 0x128 JUMPI PUSH0 PUSH0 REVERT JUMPDEST POP PUSH2 0x131 PUSH2 0x7EE JUMP JUMPDEST PUSH1 0x40 MLOAD PUSH2 0x13E SWAP2 SWAP1 PUSH2 0xFD0 JUMP JUMPDEST PUSH1 0x40 MLOAD DUP1 SWAP2 SUB SWAP1 RETURN JUMPDEST CALLVALUE DUP1 ISZERO PUSH2 0x152 JUMPI PUSH0 PUSH0 REVERT JUMPDEST POP PUSH2 0x15B PUSH2 0x7F3 JUMP JUMPDEST PUSH1 0x40 MLOAD PUSH2 0x168 SWAP2 SWAP1 PUSH2 0xFF8 JUMP JUMPDEST PUSH1 0x40 MLOAD DUP1 SWAP2 SUB SWAP1 RETURN JUMPDEST CALLVALUE DUP1 ISZERO PUSH2 0x17C JUMPI PUSH0 PUSH0 REVERT JUMPDEST POP PUSH2 0x197 PUSH1 0x4 DUP1 CALLDATASIZE SUB DUP2 ADD SWAP1 PUSH2 0x192 SWAP2 SWAP1 PUSH2 0x103B JUMP JUMPDEST PUSH2 0x817 JUMP JUMPDEST STOP JUMPDEST PUSH1 0x2 DUP3 DUP1 MLOAD PUSH1 0x20 DUP2 ADD DUP3 ADD DUP1 MLOAD DUP5 DUP3 MSTORE PUSH1 0x20 DUP4 ADD PUSH1 0x20 DUP6 ADD KECCAK256 DUP2 DUP4 MSTORE DUP1 SWAP6 POP POP POP POP POP POP PUSH1 0x20 MSTORE DUP1 PUSH0 MSTORE PUSH1 0x40 PUSH0 KECCAK256 PUSH0 SWAP2 POP SWAP2 POP SWAP1 SLOAD SWAP1 PUSH2 0x100 EXP SWAP1 DIV PUSH1 0xFF AND DUP2 JUMP JUMPDEST PUSH32 0x0 PUSH20 0xFFFFFFFFFFFFFFFFFFFFFFFFFFFFFFFFFFFFFFFF AND CALLER PUSH20 0xFFFFFFFFFFFFFFFFFFFFFFFFFFFFFFFFFFFFFFFF AND EQ PUSH2 0x269 JUMPI PUSH1 0x40 MLOAD PUSH32 0x8C379A000000000000000000000000000000000000000000000000000000000 DUP2 MSTORE PUSH1 0x4 ADD PUSH2 0x260 SWAP1 PUSH2 0x1126 JUMP JUMPDEST PUSH1 0x40 MLOAD DUP1 SWAP2 SUB SWAP1 REVERT JUMPDEST PUSH0 SELFBALANCE SWAP1 POP PUSH32 0x0 PUSH20 0xFFFFFFFFFFFFFFFFFFFFFFFFFFFFFFFFFFFFFFFF AND PUSH2 0x8FC DUP3 SWAP1 DUP2 ISZERO MUL SWAP1 PUSH1 0x40 MLOAD PUSH0 PUSH1 0x40 MLOAD DUP1 DUP4 SUB DUP2 DUP6 DUP9 DUP9 CALL SWAP4 POP POP POP POP ISZERO DUP1 ISZERO PUSH2 0x2D0 JUMPI RETURNDATASIZE PUSH0 PUSH0 RETURNDATACOPY RETURNDATASIZE PUSH0 REVERT JUMPDEST POP POP JUMP JUMPDEST PUSH0 PUSH1 0x1 DUP4 DUP4 PUSH1 0x40 MLOAD PUSH2 0x2E7 SWAP3 SWAP2 SWAP1 PUSH2 0x1172 JUMP JUMPDEST SWAP1 DUP2 MSTORE PUSH1 0x20 ADD PUSH1 0x40 MLOAD DUP1 SWAP2 SUB SWAP1 KECCAK256 PUSH1 0x40 MLOAD DUP1 PUSH1 0x60 ADD PUSH1 0x40 MSTORE SWAP1 DUP2 PUSH0 DUP3 ADD DUP1 SLOAD PUSH2 0x30F SWAP1 PUSH2 0x11B7 JUMP JUMPDEST DUP1 PUSH1 0x1F ADD PUSH1 0x20 DUP1 SWAP2 DIV MUL PUSH1 0x20 ADD PUSH1 0x40 MLOAD SWAP1 DUP2 ADD PUSH1 0x40 MSTORE DUP1 SWAP3 SWAP2 SWAP1 DUP2 DUP2 MSTORE PUSH1 0x20 ADD DUP3 DUP1 SLOAD PUSH2 0x33B SWAP1 PUSH2 0x11B7 JUMP JUMPDEST DUP1 ISZERO PUSH2 0x386 JUMPI DUP1 PUSH1 0x1F LT PUSH2 0x35D JUMPI PUSH2 0x100 DUP1 DUP4 SLOAD DIV MUL DUP4 MSTORE SWAP2 PUSH1 0x20 ADD SWAP2 PUSH2 0x386 JUMP JUMPDEST DUP3 ADD SWAP2 SWAP1 PUSH0 MSTORE PUSH1 0x20 PUSH0 KECCAK256 SWAP1 JUMPDEST DUP2 SLOAD DUP2 MSTORE SWAP1 PUSH1 0x1 ADD SWAP1 PUSH1 0x20 ADD DUP1 DUP4 GT PUSH2 0x369 JUMPI DUP3 SWAP1 SUB PUSH1 0x1F AND DUP3 ADD SWAP2 JUMPDEST POP POP POP POP POP DUP2 MSTORE PUSH1 0x20 ADD PUSH1 0x1 DUP3 ADD PUSH0 SWAP1 SLOAD SWAP1 PUSH2 0x100 EXP SWAP1 DIV PUSH20 0xFFFFFFFFFFFFFFFFFFFFFFFFFFFFFFFFFFFFFFFF AND PUSH20 0xFFFFFFFFFFFFFFFFFFFFFFFFFFFFFFFFFFFFFFFF AND PUSH20 0xFFFFFFFFFFFFFFFFFFFFFFFFFFFFFFFFFFFFFFFF AND DUP2 MSTORE PUSH1 0x20 ADD PUSH1 0x2 DUP3 ADD SLOAD DUP2 MSTORE POP POP SWAP1 POP PUSH0 PUSH20 0xFFFFFFFFFFFFFFFFFFFFFFFFFFFFFFFFFFFFFFFF AND DUP2 PUSH1 0x20 ADD MLOAD PUSH20 0xFFFFFFFFFFFFFFFFFFFFFFFFFFFFFFFFFFFFFFFF AND SUB PUSH2 0x462 JUMPI PUSH1 0x40 MLOAD PUSH32 0x8C379A000000000000000000000000000000000000000000000000000000000 DUP2 MSTORE PUSH1 0x4 ADD PUSH2 0x459 SWAP1 PUSH2 0x1231 JUMP JUMPDEST PUSH1 0x40 MLOAD DUP1 SWAP2 SUB SWAP1 REVERT JUMPDEST PUSH0 ISZERO ISZERO PUSH1 0x2 DUP5 DUP5 PUSH1 0x40 MLOAD PUSH2 0x477 SWAP3 SWAP2 SWAP1 PUSH2 0x1172 JUMP JUMPDEST SWAP1 DUP2 MSTORE PUSH1 0x20 ADD PUSH1 0x40 MLOAD DUP1 SWAP2 SUB SWAP1 KECCAK256 PUSH0 CALLER PUSH20 0xFFFFFFFFFFFFFFFFFFFFFFFFFFFFFFFFFFFFFFFF AND PUSH20 0xFFFFFFFFFFFFFFFFFFFFFFFFFFFFFFFFFFFFFFFF AND DUP2 MSTORE PUSH1 0x20 ADD SWAP1 DUP2 MSTORE PUSH1 0x20 ADD PUSH0 KECCAK256 PUSH0 SWAP1 SLOAD SWAP1 PUSH2 0x100 EXP SWAP1 DIV PUSH1 0xFF AND ISZERO ISZERO EQ PUSH2 0x50F JUMPI PUSH1 0x40 MLOAD PUSH32 0x8C379A000000000000000000000000000000000000000000000000000000000 DUP2 MSTORE PUSH1 0x4 ADD PUSH2 0x506 SWAP1 PUSH2 0x1299 JUMP JUMPDEST PUSH1 0x40 MLOAD DUP1 SWAP2 SUB SWAP1 REVERT JUMPDEST DUP1 PUSH1 0x40 ADD MLOAD CALLVALUE LT ISZERO PUSH2 0x556 JUMPI PUSH1 0x40 MLOAD PUSH32 0x8C379A000000000000000000000000000000000000000000000000000000000 DUP2 MSTORE PUSH1 0x4 ADD PUSH2 0x54D SWAP1 PUSH2 0x1301 JUMP JUMPDEST PUSH1 0x40 MLOAD DUP1 SWAP2 SUB SWAP1 REVERT JUMPDEST PUSH1 0x1 PUSH1 0x2 DUP5 DUP5 PUSH1 0x40 MLOAD PUSH2 0x56A SWAP3 SWAP2 SWAP1 PUSH2 0x1172 JUMP JUMPDEST SWAP1 DUP2 MSTORE PUSH1 0x20 ADD PUSH1 0x40 MLOAD DUP1 SWAP2 SUB SWAP1 KECCAK256 PUSH0 CALLER PUSH20 0xFFFFFFFFFFFFFFFFFFFFFFFFFFFFFFFFFFFFFFFF AND PUSH20 0xFFFFFFFFFFFFFFFFFFFFFFFFFFFFFFFFFFFFFFFF AND DUP2 MSTORE PUSH1 0x20 ADD SWAP1 DUP2 MSTORE PUSH1 0x20 ADD PUSH0 KECCAK256 PUSH0 PUSH2 0x100 EXP DUP2 SLOAD DUP2 PUSH1 0xFF MUL NOT AND SWAP1 DUP4 ISZERO ISZERO MUL OR SWAP1 SSTORE POP DUP1 PUSH1 0x20 ADD MLOAD PUSH20 0xFFFFFFFFFFFFFFFFFFFFFFFFFFFFFFFFFFFFFFFF AND PUSH2 0x8FC PUSH0 SLOAD CALLVALUE PUSH2 0x5F4 SWAP2 SWAP1 PUSH2 0x134C JUMP JUMPDEST SWAP1 DUP2 ISZERO MUL SWAP1 PUSH1 0x40 MLOAD PUSH0 PUSH1 0x40 MLOAD DUP1 DUP4 SUB DUP2 DUP6 DUP9 DUP9 CALL SWAP4 POP POP POP POP ISZERO DUP1 ISZERO PUSH2 0x61C JUMPI RETURNDATASIZE PUSH0 PUSH0 RETURNDATACOPY RETURNDATASIZE PUSH0 REVERT JUMPDEST POP POP POP POP JUMP JUMPDEST PUSH2 0x62A PUSH2 0xBBC JUMP JUMPDEST PUSH0 PUSH1 0x1 DUP5 DUP5 PUSH1 0x40 MLOAD PUSH2 0x63D SWAP3 SWAP2 SWAP1 PUSH2 0x1172 JUMP JUMPDEST SWAP1 DUP2 MSTORE PUSH1 0x20 ADD PUSH1 0x40 MLOAD DUP1 SWAP2 SUB SWAP1 KECCAK256 PUSH1 0x40 MLOAD DUP1 PUSH1 0x60 ADD PUSH1 0x40 MSTORE SWAP1 DUP2 PUSH0 DUP3 ADD DUP1 SLOAD PUSH2 0x665 SWAP1 PUSH2 0x11B7 JUMP JUMPDEST DUP1 PUSH1 0x1F ADD PUSH1 0x20 DUP1 SWAP2 DIV MUL PUSH1 0x20 ADD PUSH1 0x40 MLOAD SWAP1 DUP2 ADD PUSH1 0x40 MSTORE DUP1 SWAP3 SWAP2 SWAP1 DUP2 DUP2 MSTORE PUSH1 0x20 ADD DUP3 DUP1 SLOAD PUSH2 0x691 SWAP1 PUSH2 0x11B7 JUMP JUMPDEST DUP1 ISZERO PUSH2 0x6DC JUMPI DUP1 PUSH1 0x1F LT PUSH2 0x6B3 JUMPI PUSH2 0x100 DUP1 DUP4 SLOAD DIV MUL DUP4 MSTORE SWAP2 PUSH1 0x20 ADD SWAP2 PUSH2 0x6DC JUMP JUMPDEST DUP3 ADD SWAP2 SWAP1 PUSH0 MSTORE PUSH1 0x20 PUSH0 KECCAK256 SWAP1 JUMPDEST DUP2 SLOAD DUP2 MSTORE SWAP1 PUSH1 0x1 ADD SWAP1 PUSH1 0x20 ADD DUP1 DUP4 GT PUSH2 0x6BF JUMPI DUP3 SWAP1 SUB PUSH1 0x1F AND DUP3 ADD SWAP2 JUMPDEST POP POP POP POP POP DUP2 MSTORE PUSH1 0x20 ADD PUSH1 0x1 DUP3 ADD PUSH0 SWAP1 SLOAD SWAP1 PUSH2 0x100 EXP SWAP1 DIV PUSH20 0xFFFFFFFFFFFFFFFFFFFFFFFFFFFFFFFFFFFFFFFF AND PUSH20 0xFFFFFFFFFFFFFFFFFFFFFFFFFFFFFFFFFFFFFFFF AND PUSH20 0xFFFFFFFFFFFFFFFFFFFFFFFFFFFFFFFFFFFFFFFF AND DUP2 MSTORE PUSH1 0x20 ADD PUSH1 0x2 DUP3 ADD SLOAD DUP2 MSTORE POP POP SWAP1 POP PUSH0 DUP2 PUSH1 0x40 ADD MLOAD SUB PUSH2 0x75A JUMPI DUP1 SWAP2 POP POP PUSH2 0x7E8 JUMP JUMPDEST PUSH0 ISZERO ISZERO PUSH1 0x2 DUP6 DUP6 PUSH1 0x40 MLOAD PUSH2 0x76F SWAP3 SWAP2 SWAP1 PUSH2 0x1172 JUMP JUMPDEST SWAP1 DUP2 MSTORE PUSH1 0x20 ADD PUSH1 0x40 MLOAD DUP1 SWAP2 SUB SWAP1 KECCAK256 PUSH0 CALLER PUSH20 0xFFFFFFFFFFFFFFFFFFFFFFFFFFFFFFFFFFFFFFFF AND PUSH20 0xFFFFFFFFFFFFFFFFFFFFFFFFFFFFFFFFFFFFFFFF AND DUP2 MSTORE PUSH1 0x20 ADD SWAP1 DUP2 MSTORE PUSH1 0x20 ADD PUSH0 KECCAK256 PUSH0 SWAP1 SLOAD SWAP1 PUSH2 0x100 EXP SWAP1 DIV PUSH1 0xFF AND ISZERO ISZERO SUB PUSH2 0x7E3 JUMPI PUSH1 0x40 MLOAD DUP1 PUSH1 0x20 ADD PUSH1 0x40 MSTORE DUP1 PUSH0 DUP2 MSTORE POP DUP2 PUSH0 ADD DUP2 SWAP1 MSTORE POP JUMPDEST DUP1 SWAP2 POP POP JUMPDEST SWAP3 SWAP2 POP POP JUMP JUMPDEST PUSH0 SLOAD DUP2 JUMP JUMPDEST PUSH32 0x0 DUP2 JUMP JUMPDEST PUSH0 PUSH1 0x1 DUP5 DUP5 PUSH1 0x40 MLOAD PUSH2 0x82A SWAP3 SWAP2 SWAP1 PUSH2 0x1172 JUMP JUMPDEST SWAP1 DUP2 MSTORE PUSH1 0x20 ADD PUSH1 0x40 MLOAD DUP1 SWAP2 SUB SWAP1 KECCAK256 PUSH1 0x40 MLOAD DUP1 PUSH1 0x60 ADD PUSH1 0x40 MSTORE SWAP1 DUP2 PUSH0 DUP3 ADD DUP1 SLOAD PUSH2 0x852 SWAP1 PUSH2 0x11B7 JUMP JUMPDEST DUP1 PUSH1 0x1F ADD PUSH1 0x20 DUP1 SWAP2 DIV MUL PUSH1 0x20 ADD PUSH1 0x40 MLOAD SWAP1 DUP2 ADD PUSH1 0x40 MSTORE DUP1 SWAP3 SWAP2 SWAP1 DUP2 DUP2 MSTORE PUSH1 0x20 ADD DUP3 DUP1 SLOAD PUSH2 0x87E SWAP1 PUSH2 0x11B7 JUMP JUMPDEST DUP1 ISZERO PUSH2 0x8C9 JUMPI DUP1 PUSH1 0x1F LT PUSH2 0x8A0 JUMPI PUSH2 0x100 DUP1 DUP4 SLOAD DIV MUL DUP4 MSTORE SWAP2 PUSH1 0x20 ADD SWAP2 PUSH2 0x8C9 JUMP JUMPDEST DUP3 ADD SWAP2 SWAP1 PUSH0 MSTORE PUSH1 0x20 PUSH0 KECCAK256 SWAP1 JUMPDEST DUP2 SLOAD DUP2 MSTORE SWAP1 PUSH1 0x1 ADD SWAP1 PUSH1 0x20 ADD DUP1 DUP4 GT PUSH2 0x8AC JUMPI DUP3 SWAP1 SUB PUSH1 0x1F AND DUP3 ADD SWAP2 JUMPDEST POP POP POP POP POP DUP2 MSTORE PUSH1 0x20 ADD PUSH1 0x1 DUP3 ADD PUSH0 SWAP1 SLOAD SWAP1 PUSH2 0x100 EXP SWAP1 DIV PUSH20 0xFFFFFFFFFFFFFFFFFFFFFFFFFFFFFFFFFFFFFFFF AND PUSH20 0xFFFFFFFFFFFFFFFFFFFFFFFFFFFFFFFFFFFFFFFF AND PUSH20 0xFFFFFFFFFFFFFFFFFFFFFFFFFFFFFFFFFFFFFFFF AND DUP2 MSTORE PUSH1 0x20 ADD PUSH1 0x2 DUP3 ADD SLOAD DUP2 MSTORE POP POP SWAP1 POP PUSH0 PUSH20 0xFFFFFFFFFFFFFFFFFFFFFFFFFFFFFFFFFFFFFFFF AND DUP2 PUSH1 0x20 ADD MLOAD PUSH20 0xFFFFFFFFFFFFFFFFFFFFFFFFFFFFFFFFFFFFFFFF AND EQ DUP1 PUSH2 0x9A0 JUMPI POP CALLER PUSH20 0xFFFFFFFFFFFFFFFFFFFFFFFFFFFFFFFFFFFFFFFF AND DUP2 PUSH1 0x20 ADD MLOAD PUSH20 0xFFFFFFFFFFFFFFFFFFFFFFFFFFFFFFFFFFFFFFFF AND EQ JUMPDEST PUSH2 0x9DF JUMPI PUSH1 0x40 MLOAD PUSH32 0x8C379A000000000000000000000000000000000000000000000000000000000 DUP2 MSTORE PUSH1 0x4 ADD PUSH2 0x9D6 SWAP1 PUSH2 0x13C9 JUMP JUMPDEST PUSH1 0x40 MLOAD DUP1 SWAP2 SUB SWAP1 REVERT JUMPDEST PUSH0 DUP3 EQ DUP1 PUSH2 0x9ED JUMPI POP PUSH0 SLOAD DUP3 GT JUMPDEST PUSH2 0xA2C JUMPI PUSH1 0x40 MLOAD PUSH32 0x8C379A000000000000000000000000000000000000000000000000000000000 DUP2 MSTORE PUSH1 0x4 ADD PUSH2 0xA23 SWAP1 PUSH2 0x1431 JUMP JUMPDEST PUSH1 0x40 MLOAD DUP1 SWAP2 SUB SWAP1 REVERT JUMPDEST DUP6 DUP6 DUP1 DUP1 PUSH1 0x1F ADD PUSH1 0x20 DUP1 SWAP2 DIV MUL PUSH1 0x20 ADD PUSH1 0x40 MLOAD SWAP1 DUP2 ADD PUSH1 0x40 MSTORE DUP1 SWAP4 SWAP3 SWAP2 SWAP1 DUP2 DUP2 MSTORE PUSH1 0x20 ADD DUP4 DUP4 DUP1 DUP3 DUP5 CALLDATACOPY PUSH0 DUP2 DUP5 ADD MSTORE PUSH1 0x1F NOT PUSH1 0x1F DUP3 ADD AND SWAP1 POP DUP1 DUP4 ADD SWAP3 POP POP POP POP POP POP POP DUP2 PUSH0 ADD DUP2 SWAP1 MSTORE POP DUP2 DUP2 PUSH1 0x40 ADD DUP2 DUP2 MSTORE POP POP CALLER DUP2 PUSH1 0x20 ADD SWAP1 PUSH20 0xFFFFFFFFFFFFFFFFFFFFFFFFFFFFFFFFFFFFFFFF AND SWAP1 DUP2 PUSH20 0xFFFFFFFFFFFFFFFFFFFFFFFFFFFFFFFFFFFFFFFF AND DUP2 MSTORE POP POP DUP1 PUSH1 0x1 DUP6 DUP6 PUSH1 0x40 MLOAD PUSH2 0xACC SWAP3 SWAP2 SWAP1 PUSH2 0x1172 JUMP JUMPDEST SWAP1 DUP2 MSTORE PUSH1 0x20 ADD PUSH1 0x40 MLOAD DUP1 SWAP2 SUB SWAP1 KECCAK256 PUSH0 DUP3 ADD MLOAD DUP2 PUSH0 ADD SWAP1 DUP2 PUSH2 0xAED SWAP2 SWAP1 PUSH2 0x15EF JUMP JUMPDEST POP PUSH1 0x20 DUP3 ADD MLOAD DUP2 PUSH1 0x1 ADD PUSH0 PUSH2 0x100 EXP DUP2 SLOAD DUP2 PUSH20 0xFFFFFFFFFFFFFFFFFFFFFFFFFFFFFFFFFFFFFFFF MUL NOT AND SWAP1 DUP4 PUSH20 0xFFFFFFFFFFFFFFFFFFFFFFFFFFFFFFFFFFFFFFFF AND MUL OR SWAP1 SSTORE POP PUSH1 0x40 DUP3 ADD MLOAD DUP2 PUSH1 0x2 ADD SSTORE SWAP1 POP POP PUSH1 0x1 PUSH1 0x2 DUP6 DUP6 PUSH1 0x40 MLOAD PUSH2 0xB55 SWAP3 SWAP2 SWAP1 PUSH2 0x1172 JUMP JUMPDEST SWAP1 DUP2 MSTORE PUSH1 0x20 ADD PUSH1 0x40 MLOAD DUP1 SWAP2 SUB SWAP1 KECCAK256 PUSH0 CALLER PUSH20 0xFFFFFFFFFFFFFFFFFFFFFFFFFFFFFFFFFFFFFFFF AND PUSH20 0xFFFFFFFFFFFFFFFFFFFFFFFFFFFFFFFFFFFFFFFF AND DUP2 MSTORE PUSH1 0x20 ADD SWAP1 DUP2 MSTORE PUSH1 0x20 ADD PUSH0 KECCAK256 PUSH0 PUSH2 0x100 EXP DUP2 SLOAD DUP2 PUSH1 0xFF MUL NOT AND SWAP1 DUP4 ISZERO ISZERO MUL OR SWAP1 SSTORE POP POP POP POP POP POP POP JUMP JUMPDEST PUSH1 0x40 MLOAD DUP1 PUSH1 0x60 ADD PUSH1 0x40 MSTORE DUP1 PUSH1 0x60 DUP2 MSTORE PUSH1 0x20 ADD PUSH0 PUSH20 0xFFFFFFFFFFFFFFFFFFFFFFFFFFFFFFFFFFFFFFFF AND DUP2 MSTORE PUSH1 0x20 ADD PUSH0 DUP2 MSTORE POP SWAP1 JUMP JUMPDEST PUSH0 PUSH1 0x40 MLOAD SWAP1 POP SWAP1 JUMP JUMPDEST PUSH0 PUSH0 REVERT JUMPDEST PUSH0 PUSH0 REVERT JUMPDEST PUSH0 PUSH0 REVERT JUMPDEST PUSH0 PUSH0 REVERT JUMPDEST PUSH0 PUSH1 0x1F NOT PUSH1 0x1F DUP4 ADD AND SWAP1 POP SWAP2 SWAP1 POP JUMP JUMPDEST PUSH32 0x4E487B7100000000000000000000000000000000000000000000000000000000 PUSH0 MSTORE PUSH1 0x41 PUSH1 0x4 MSTORE PUSH1 0x24 PUSH0 REVERT JUMPDEST PUSH2 0xC50 DUP3 PUSH2 0xC0A JUMP JUMPDEST DUP2 ADD DUP2 DUP2 LT PUSH8 0xFFFFFFFFFFFFFFFF DUP3 GT OR ISZERO PUSH2 0xC6F JUMPI PUSH2 0xC6E PUSH2 0xC1A JUMP JUMPDEST JUMPDEST DUP1 PUSH1 0x40 MSTORE POP POP POP JUMP JUMPDEST PUSH0 PUSH2 0xC81 PUSH2 0xBF1 JUMP JUMPDEST SWAP1 POP PUSH2 0xC8D DUP3 DUP3 PUSH2 0xC47 JUMP JUMPDEST SWAP2 SWAP1 POP JUMP JUMPDEST PUSH0 PUSH8 0xFFFFFFFFFFFFFFFF DUP3 GT ISZERO PUSH2 0xCAC JUMPI PUSH2 0xCAB PUSH2 0xC1A JUMP JUMPDEST JUMPDEST PUSH2 0xCB5 DUP3 PUSH2 0xC0A JUMP JUMPDEST SWAP1 POP PUSH1 0x20 DUP2 ADD SWAP1 POP SWAP2 SWAP1 POP JUMP JUMPDEST DUP3 DUP2 DUP4 CALLDATACOPY PUSH0 DUP4 DUP4 ADD MSTORE POP POP POP JUMP JUMPDEST PUSH0 PUSH2 0xCE2 PUSH2 0xCDD DUP5 PUSH2 0xC92 JUMP JUMPDEST PUSH2 0xC78 JUMP JUMPDEST SWAP1 POP DUP3 DUP2 MSTORE PUSH1 0x20 DUP2 ADD DUP5 DUP5 DUP5 ADD GT ISZERO PUSH2 0xCFE JUMPI PUSH2 0xCFD PUSH2 0xC06 JUMP JUMPDEST JUMPDEST PUSH2 0xD09 DUP5 DUP3 DUP6 PUSH2 0xCC2 JUMP JUMPDEST POP SWAP4 SWAP3 POP POP POP JUMP JUMPDEST PUSH0 DUP3 PUSH1 0x1F DUP4 ADD SLT PUSH2 0xD25 JUMPI PUSH2 0xD24 PUSH2 0xC02 JUMP JUMPDEST JUMPDEST DUP2 CALLDATALOAD PUSH2 0xD35 DUP5 DUP3 PUSH1 0x20 DUP7 ADD PUSH2 0xCD0 JUMP JUMPDEST SWAP2 POP POP SWAP3 SWAP2 POP POP JUMP JUMPDEST PUSH0 PUSH20 0xFFFFFFFFFFFFFFFFFFFFFFFFFFFFFFFFFFFFFFFF DUP3 AND SWAP1 POP SWAP2 SWAP1 POP JUMP JUMPDEST PUSH0 PUSH2 0xD67 DUP3 PUSH2 0xD3E JUMP JUMPDEST SWAP1 POP SWAP2 SWAP1 POP JUMP JUMPDEST PUSH2 0xD77 DUP2 PUSH2 0xD5D JUMP JUMPDEST DUP2 EQ PUSH2 0xD81 JUMPI PUSH0 PUSH0 REVERT JUMPDEST POP JUMP JUMPDEST PUSH0 DUP2 CALLDATALOAD SWAP1 POP PUSH2 0xD92 DUP2 PUSH2 0xD6E JUMP JUMPDEST SWAP3 SWAP2 POP POP JUMP JUMPDEST PUSH0 PUSH0 PUSH1 0x40 DUP4 DUP6 SUB SLT ISZERO PUSH2 0xDAE JUMPI PUSH2 0xDAD PUSH2 0xBFA JUMP JUMPDEST JUMPDEST PUSH0 DUP4 ADD CALLDATALOAD PUSH8 0xFFFFFFFFFFFFFFFF DUP2 GT ISZERO PUSH2 0xDCB JUMPI PUSH2 0xDCA PUSH2 0xBFE JUMP JUMPDEST JUMPDEST PUSH2 0xDD7 DUP6 DUP3 DUP7 ADD PUSH2 0xD11 JUMP JUMPDEST SWAP3 POP POP PUSH1 0x20 PUSH2 0xDE8 DUP6 DUP3 DUP7 ADD PUSH2 0xD84 JUMP JUMPDEST SWAP2 POP POP SWAP3 POP SWAP3 SWAP1 POP JUMP JUMPDEST PUSH0 DUP2 ISZERO ISZERO SWAP1 POP SWAP2 SWAP1 POP JUMP JUMPDEST PUSH2 0xE06 DUP2 PUSH2 0xDF2 JUMP JUMPDEST DUP3 MSTORE POP POP JUMP JUMPDEST PUSH0 PUSH1 0x20 DUP3 ADD SWAP1 POP PUSH2 0xE1F PUSH0 DUP4 ADD DUP5 PUSH2 0xDFD JUMP JUMPDEST SWAP3 SWAP2 POP POP JUMP JUMPDEST PUSH0 PUSH0 REVERT JUMPDEST PUSH0 PUSH0 REVERT JUMPDEST PUSH0 PUSH0 DUP4 PUSH1 0x1F DUP5 ADD SLT PUSH2 0xE42 JUMPI PUSH2 0xE41 PUSH2 0xC02 JUMP JUMPDEST JUMPDEST DUP3 CALLDATALOAD SWAP1 POP PUSH8 0xFFFFFFFFFFFFFFFF DUP2 GT ISZERO PUSH2 0xE5F JUMPI PUSH2 0xE5E PUSH2 0xE25 JUMP JUMPDEST JUMPDEST PUSH1 0x20 DUP4 ADD SWAP2 POP DUP4 PUSH1 0x1 DUP3 MUL DUP4 ADD GT ISZERO PUSH2 0xE7B JUMPI PUSH2 0xE7A PUSH2 0xE29 JUMP JUMPDEST JUMPDEST SWAP3 POP SWAP3 SWAP1 POP JUMP JUMPDEST PUSH0 PUSH0 PUSH1 0x20 DUP4 DUP6 SUB SLT ISZERO PUSH2 0xE98 JUMPI PUSH2 0xE97 PUSH2 0xBFA JUMP JUMPDEST JUMPDEST PUSH0 DUP4 ADD CALLDATALOAD PUSH8 0xFFFFFFFFFFFFFFFF DUP2 GT ISZERO PUSH2 0xEB5 JUMPI PUSH2 0xEB4 PUSH2 0xBFE JUMP JUMPDEST JUMPDEST PUSH2 0xEC1 DUP6 DUP3 DUP7 ADD PUSH2 0xE2D JUMP JUMPDEST SWAP3 POP SWAP3 POP POP SWAP3 POP SWAP3 SWAP1 POP JUMP JUMPDEST PUSH0 DUP2 MLOAD SWAP1 POP SWAP2 SWAP1 POP JUMP JUMPDEST PUSH0 DUP3 DUP3 MSTORE PUSH1 0x20 DUP3 ADD SWAP1 POP SWAP3 SWAP2 POP POP JUMP JUMPDEST DUP3 DUP2 DUP4 MCOPY PUSH0 DUP4 DUP4 ADD MSTORE POP POP POP JUMP JUMPDEST PUSH0 PUSH2 0xEFF DUP3 PUSH2 0xECD JUMP JUMPDEST PUSH2 0xF09 DUP2 DUP6 PUSH2 0xED7 JUMP JUMPDEST SWAP4 POP PUSH2 0xF19 DUP2 DUP6 PUSH1 0x20 DUP7 ADD PUSH2 0xEE7 JUMP JUMPDEST PUSH2 0xF22 DUP2 PUSH2 0xC0A JUMP JUMPDEST DUP5 ADD SWAP2 POP POP SWAP3 SWAP2 POP POP JUMP JUMPDEST PUSH2 0xF36 DUP2 PUSH2 0xD5D JUMP JUMPDEST DUP3 MSTORE POP POP JUMP JUMPDEST PUSH0 DUP2 SWAP1 POP SWAP2 SWAP1 POP JUMP JUMPDEST PUSH2 0xF4E DUP2 PUSH2 0xF3C JUMP JUMPDEST DUP3 MSTORE POP POP JUMP JUMPDEST PUSH0 PUSH1 0x60 DUP4 ADD PUSH0 DUP4 ADD MLOAD DUP5 DUP3 SUB PUSH0 DUP7 ADD MSTORE PUSH2 0xF6E DUP3 DUP3 PUSH2 0xEF5 JUMP JUMPDEST SWAP2 POP POP PUSH1 0x20 DUP4 ADD MLOAD PUSH2 0xF83 PUSH1 0x20 DUP7 ADD DUP3 PUSH2 0xF2D JUMP JUMPDEST POP PUSH1 0x40 DUP4 ADD MLOAD PUSH2 0xF96 PUSH1 0x40 DUP7 ADD DUP3 PUSH2 0xF45 JUMP JUMPDEST POP DUP1 SWAP2 POP POP SWAP3 SWAP2 POP POP JUMP JUMPDEST PUSH0 PUSH1 0x20 DUP3 ADD SWAP1 POP DUP2 DUP2 SUB PUSH0 DUP4 ADD MSTORE PUSH2 0xFB9 DUP2 DUP5 PUSH2 0xF54 JUMP JUMPDEST SWAP1 POP SWAP3 SWAP2 POP POP JUMP JUMPDEST PUSH2 0xFCA DUP2 PUSH2 0xF3C JUMP JUMPDEST DUP3 MSTORE POP POP JUMP JUMPDEST PUSH0 PUSH1 0x20 DUP3 ADD SWAP1 POP PUSH2 0xFE3 PUSH0 DUP4 ADD DUP5 PUSH2 0xFC1 JUMP JUMPDEST SWAP3 SWAP2 POP POP JUMP JUMPDEST PUSH2 0xFF2 DUP2 PUSH2 0xD5D JUMP JUMPDEST DUP3 MSTORE POP POP JUMP JUMPDEST PUSH0 PUSH1 0x20 DUP3 ADD SWAP1 POP PUSH2 0x100B PUSH0 DUP4 ADD DUP5 PUSH2 0xFE9 JUMP JUMPDEST SWAP3 SWAP2 POP POP JUMP JUMPDEST PUSH2 0x101A DUP2 PUSH2 0xF3C JUMP JUMPDEST DUP2 EQ PUSH2 0x1024 JUMPI PUSH0 PUSH0 REVERT JUMPDEST POP JUMP JUMPDEST PUSH0 DUP2 CALLDATALOAD SWAP1 POP PUSH2 0x1035 DUP2 PUSH2 0x1011 JUMP JUMPDEST SWAP3 SWAP2 POP POP JUMP JUMPDEST PUSH0 PUSH0 PUSH0 PUSH0 PUSH0 PUSH1 0x60 DUP7 DUP9 SUB SLT ISZERO PUSH2 0x1054 JUMPI PUSH2 0x1053 PUSH2 0xBFA JUMP JUMPDEST JUMPDEST PUSH0 DUP7 ADD CALLDATALOAD PUSH8 0xFFFFFFFFFFFFFFFF DUP2 GT ISZERO PUSH2 0x1071 JUMPI PUSH2 0x1070 PUSH2 0xBFE JUMP JUMPDEST JUMPDEST PUSH2 0x107D DUP9 DUP3 DUP10 ADD PUSH2 0xE2D JUMP JUMPDEST SWAP6 POP SWAP6 POP POP PUSH1 0x20 DUP7 ADD CALLDATALOAD PUSH8 0xFFFFFFFFFFFFFFFF DUP2 GT ISZERO PUSH2 0x10A0 JUMPI PUSH2 0x109F PUSH2 0xBFE JUMP JUMPDEST JUMPDEST PUSH2 0x10AC DUP9 DUP3 DUP10 ADD PUSH2 0xE2D JUMP JUMPDEST SWAP4 POP SWAP4 POP POP PUSH1 0x40 PUSH2 0x10BF DUP9 DUP3 DUP10 ADD PUSH2 0x1027 JUMP JUMPDEST SWAP2 POP POP SWAP3 SWAP6 POP SWAP3 SWAP6 SWAP1 SWAP4 POP JUMP JUMPDEST PUSH0 DUP3 DUP3 MSTORE PUSH1 0x20 DUP3 ADD SWAP1 POP SWAP3 SWAP2 POP POP JUMP JUMPDEST PUSH32 0x796F7520646F206E6F742068617665207065726D697373696F6E000000000000 PUSH0 DUP3 ADD MSTORE POP JUMP JUMPDEST PUSH0 PUSH2 0x1110 PUSH1 0x1A DUP4 PUSH2 0x10CC JUMP JUMPDEST SWAP2 POP PUSH2 0x111B DUP3 PUSH2 0x10DC JUMP JUMPDEST PUSH1 0x20 DUP3 ADD SWAP1 POP SWAP2 SWAP1 POP JUMP JUMPDEST PUSH0 PUSH1 0x20 DUP3 ADD SWAP1 POP DUP2 DUP2 SUB PUSH0 DUP4 ADD MSTORE PUSH2 0x113D DUP2 PUSH2 0x1104 JUMP JUMPDEST SWAP1 POP SWAP2 SWAP1 POP JUMP JUMPDEST PUSH0 DUP2 SWAP1 POP SWAP3 SWAP2 POP POP JUMP JUMPDEST PUSH0 PUSH2 0x1159 DUP4 DUP6 PUSH2 0x1144 JUMP JUMPDEST SWAP4 POP PUSH2 0x1166 DUP4 DUP6 DUP5 PUSH2 0xCC2 JUMP JUMPDEST DUP3 DUP5 ADD SWAP1 POP SWAP4 SWAP3 POP POP POP JUMP JUMPDEST PUSH0 PUSH2 0x117E DUP3 DUP5 DUP7 PUSH2 0x114E JUMP JUMPDEST SWAP2 POP DUP2 SWAP1 POP SWAP4 SWAP3 POP POP POP JUMP JUMPDEST PUSH32 0x4E487B7100000000000000000000000000000000000000000000000000000000 PUSH0 MSTORE PUSH1 0x22 PUSH1 0x4 MSTORE PUSH1 0x24 PUSH0 REVERT JUMPDEST PUSH0 PUSH1 0x2 DUP3 DIV SWAP1 POP PUSH1 0x1 DUP3 AND DUP1 PUSH2 0x11CE JUMPI PUSH1 0x7F DUP3 AND SWAP2 POP JUMPDEST PUSH1 0x20 DUP3 LT DUP2 SUB PUSH2 0x11E1 JUMPI PUSH2 0x11E0 PUSH2 0x118A JUMP JUMPDEST JUMPDEST POP SWAP2 SWAP1 POP JUMP JUMPDEST PUSH32 0x4C696E6B206E6F7420666F756E64000000000000000000000000000000000000 PUSH0 DUP3 ADD MSTORE POP JUMP JUMPDEST PUSH0 PUSH2 0x121B PUSH1 0xE DUP4 PUSH2 0x10CC JUMP JUMPDEST SWAP2 POP PUSH2 0x1226 DUP3 PUSH2 0x11E7 JUMP JUMPDEST PUSH1 0x20 DUP3 ADD SWAP1 POP SWAP2 SWAP1 POP JUMP JUMPDEST PUSH0 PUSH1 0x20 DUP3 ADD SWAP1 POP DUP2 DUP2 SUB PUSH0 DUP4 ADD MSTORE PUSH2 0x1248 DUP2 PUSH2 0x120F JUMP JUMPDEST SWAP1 POP SWAP2 SWAP1 POP JUMP JUMPDEST PUSH32 0x596F7520616C7265616479206861766520616363657373000000000000000000 PUSH0 DUP3 ADD MSTORE POP JUMP JUMPDEST PUSH0 PUSH2 0x1283 PUSH1 0x17 DUP4 PUSH2 0x10CC JUMP JUMPDEST SWAP2 POP PUSH2 0x128E DUP3 PUSH2 0x124F JUMP JUMPDEST PUSH1 0x20 DUP3 ADD SWAP1 POP SWAP2 SWAP1 POP JUMP JUMPDEST PUSH0 PUSH1 0x20 DUP3 ADD SWAP1 POP DUP2 DUP2 SUB PUSH0 DUP4 ADD MSTORE PUSH2 0x12B0 DUP2 PUSH2 0x1277 JUMP JUMPDEST SWAP1 POP SWAP2 SWAP1 POP JUMP JUMPDEST PUSH32 0x496E73756666696369656E74207061796D656E74000000000000000000000000 PUSH0 DUP3 ADD MSTORE POP JUMP JUMPDEST PUSH0 PUSH2 0x12EB PUSH1 0x14 DUP4 PUSH2 0x10CC JUMP JUMPDEST SWAP2 POP PUSH2 0x12F6 DUP3 PUSH2 0x12B7 JUMP JUMPDEST PUSH1 0x20 DUP3 ADD SWAP1 POP SWAP2 SWAP1 POP JUMP JUMPDEST PUSH0 PUSH1 0x20 DUP3 ADD SWAP1 POP DUP2 DUP2 SUB PUSH0 DUP4 ADD MSTORE PUSH2 0x1318 DUP2 PUSH2 0x12DF JUMP JUMPDEST SWAP1 POP SWAP2 SWAP1 POP JUMP JUMPDEST PUSH32 0x4E487B7100000000000000000000000000000000000000000000000000000000 PUSH0 MSTORE PUSH1 0x11 PUSH1 0x4 MSTORE PUSH1 0x24 PUSH0 REVERT JUMPDEST PUSH0 PUSH2 0x1356 DUP3 PUSH2 0xF3C JUMP JUMPDEST SWAP2 POP PUSH2 0x1361 DUP4 PUSH2 0xF3C JUMP JUMPDEST SWAP3 POP DUP3 DUP3 SUB SWAP1 POP DUP2 DUP2 GT ISZERO PUSH2 0x1379 JUMPI PUSH2 0x1378 PUSH2 0x131F JUMP JUMPDEST JUMPDEST SWAP3 SWAP2 POP POP JUMP JUMPDEST PUSH32 0x54686973206C696E6B496420616C72656164792068617320616E206F776E6572 PUSH0 DUP3 ADD MSTORE POP JUMP JUMPDEST PUSH0 PUSH2 0x13B3 PUSH1 0x20 DUP4 PUSH2 0x10CC JUMP JUMPDEST SWAP2 POP PUSH2 0x13BE DUP3 PUSH2 0x137F JUMP JUMPDEST PUSH1 0x20 DUP3 ADD SWAP1 POP SWAP2 SWAP1 POP JUMP JUMPDEST PUSH0 PUSH1 0x20 DUP3 ADD SWAP1 POP DUP2 DUP2 SUB PUSH0 DUP4 ADD MSTORE PUSH2 0x13E0 DUP2 PUSH2 0x13A7 JUMP JUMPDEST SWAP1 POP SWAP2 SWAP1 POP JUMP JUMPDEST PUSH32 0x46656520746F6F206C6F77000000000000000000000000000000000000000000 PUSH0 DUP3 ADD MSTORE POP JUMP JUMPDEST PUSH0 PUSH2 0x141B PUSH1 0xB DUP4 PUSH2 0x10CC JUMP JUMPDEST SWAP2 POP PUSH2 0x1426 DUP3 PUSH2 0x13E7 JUMP JUMPDEST PUSH1 0x20 DUP3 ADD SWAP1 POP SWAP2 SWAP1 POP JUMP JUMPDEST PUSH0 PUSH1 0x20 DUP3 ADD SWAP1 POP DUP2 DUP2 SUB PUSH0 DUP4 ADD MSTORE PUSH2 0x1448 DUP2 PUSH2 0x140F JUMP JUMPDEST SWAP1 POP SWAP2 SWAP1 POP JUMP JUMPDEST PUSH0 DUP2 SWAP1 POP DUP2 PUSH0 MSTORE PUSH1 0x20 PUSH0 KECCAK256 SWAP1 POP SWAP2 SWAP1 POP JUMP JUMPDEST PUSH0 PUSH1 0x20 PUSH1 0x1F DUP4 ADD DIV SWAP1 POP SWAP2 SWAP1 POP JUMP JUMPDEST PUSH0 DUP3 DUP3 SHL SWAP1 POP SWAP3 SWAP2 POP POP JUMP JUMPDEST PUSH0 PUSH1 0x8 DUP4 MUL PUSH2 0x14AB PUSH32 0xFFFFFFFFFFFFFFFFFFFFFFFFFFFFFFFFFFFFFFFFFFFFFFFFFFFFFFFFFFFFFFFF DUP3 PUSH2 0x1470 JUMP JUMPDEST PUSH2 0x14B5 DUP7 DUP4 PUSH2 0x1470 JUMP JUMPDEST SWAP6 POP DUP1 NOT DUP5 AND SWAP4 POP DUP1 DUP7 AND DUP5 OR SWAP3 POP POP POP SWAP4 SWAP3 POP POP POP JUMP JUMPDEST PUSH0 DUP2 SWAP1 POP SWAP2 SWAP1 POP JUMP JUMPDEST PUSH0 PUSH2 0x14F0 PUSH2 0x14EB PUSH2 0x14E6 DUP5 PUSH2 0xF3C JUMP JUMPDEST PUSH2 0x14CD JUMP JUMPDEST PUSH2 0xF3C JUMP JUMPDEST SWAP1 POP SWAP2 SWAP1 POP JUMP JUMPDEST PUSH0 DUP2 SWAP1 POP SWAP2 SWAP1 POP JUMP JUMPDEST PUSH2 0x1509 DUP4 PUSH2 0x14D6 JUMP JUMPDEST PUSH2 0x151D PUSH2 0x1515 DUP3 PUSH2 0x14F7 JUMP JUMPDEST DUP5 DUP5 SLOAD PUSH2 0x147C JUMP JUMPDEST DUP3 SSTORE POP POP POP POP JUMP JUMPDEST PUSH0 PUSH0 SWAP1 POP SWAP1 JUMP JUMPDEST PUSH2 0x1534 PUSH2 0x1525 JUMP JUMPDEST PUSH2 0x153F DUP2 DUP5 DUP5 PUSH2 0x1500 JUMP JUMPDEST POP POP POP JUMP JUMPDEST JUMPDEST DUP2 DUP2 LT ISZERO PUSH2 0x1562 JUMPI PUSH2 0x1557 PUSH0 DUP3 PUSH2 0x152C JUMP JUMPDEST PUSH1 0x1 DUP2 ADD SWAP1 POP PUSH2 0x1545 JUMP JUMPDEST POP POP JUMP JUMPDEST PUSH1 0x1F DUP3 GT ISZERO PUSH2 0x15A7 JUMPI PUSH2 0x1578 DUP2 PUSH2 0x144F JUMP JUMPDEST PUSH2 0x1581 DUP5 PUSH2 0x1461 JUMP JUMPDEST DUP2 ADD PUSH1 0x20 DUP6 LT ISZERO PUSH2 0x1590 JUMPI DUP2 SWAP1 POP JUMPDEST PUSH2 0x15A4 PUSH2 0x159C DUP6 PUSH2 0x1461 JUMP JUMPDEST DUP4 ADD DUP3 PUSH2 0x1544 JUMP JUMPDEST POP POP JUMPDEST POP POP POP JUMP JUMPDEST PUSH0 DUP3 DUP3 SHR SWAP1 POP SWAP3 SWAP2 POP POP JUMP JUMPDEST PUSH0 PUSH2 0x15C7 PUSH0 NOT DUP5 PUSH1 0x8 MUL PUSH2 0x15AC JUMP JUMPDEST NOT DUP1 DUP4 AND SWAP2 POP POP SWAP3 SWAP2 POP POP JUMP JUMPDEST PUSH0 PUSH2 0x15DF DUP4 DUP4 PUSH2 0x15B8 JUMP JUMPDEST SWAP2 POP DUP3 PUSH1 0x2 MUL DUP3 OR SWAP1 POP SWAP3 SWAP2 POP POP JUMP JUMPDEST PUSH2 0x15F8 DUP3 PUSH2 0xECD JUMP JUMPDEST PUSH8 0xFFFFFFFFFFFFFFFF DUP2 GT ISZERO PUSH2 0x1611 JUMPI PUSH2 0x1610 PUSH2 0xC1A JUMP JUMPDEST JUMPDEST PUSH2 0x161B DUP3 SLOAD PUSH2 0x11B7 JUMP JUMPDEST PUSH2 0x1626 DUP3 DUP3 DUP6 PUSH2 0x1566 JUMP JUMPDEST PUSH0 PUSH1 0x20 SWAP1 POP PUSH1 0x1F DUP4 GT PUSH1 0x1 DUP2 EQ PUSH2 0x1657 JUMPI PUSH0 DUP5 ISZERO PUSH2 0x1645 JUMPI DUP3 DUP8 ADD MLOAD SWAP1 POP JUMPDEST PUSH2 0x164F DUP6 DUP3 PUSH2 0x15D4 JUMP JUMPDEST DUP7 SSTORE POP PUSH2 0x16B6 JUMP JUMPDEST PUSH1 0x1F NOT DUP5 AND PUSH2 0x1665 DUP7 PUSH2 0x144F JUMP JUMPDEST PUSH0 JUMPDEST DUP3 DUP2 LT ISZERO PUSH2 0x168C JUMPI DUP5 DUP10 ADD MLOAD DUP3 SSTORE PUSH1 0x1 DUP3 ADD SWAP2 POP PUSH1 0x20 DUP6 ADD SWAP5 POP PUSH1 0x20 DUP2 ADD SWAP1 POP PUSH2 0x1667 JUMP JUMPDEST DUP7 DUP4 LT ISZERO PUSH2 0x16A9 JUMPI DUP5 DUP10 ADD MLOAD PUSH2 0x16A5 PUSH1 0x1F DUP10 AND DUP3 PUSH2 0x15B8 JUMP JUMPDEST DUP4 SSTORE POP JUMPDEST PUSH1 0x1 PUSH1 0x2 DUP9 MUL ADD DUP9 SSTORE POP POP POP JUMPDEST POP POP POP POP POP POP JUMP INVALID LOG2 PUSH5 0x6970667358 0x22 SLT KECCAK256 SWAP9 0xB3 0xB6 SWAP5 PUSH21 0x3CE37A795E3DEB3D9080EF97D62A8944CE3290C5CA SHR 0xCA MUL PUSH0 SMOD PUSH20 0x64736F6C634300081E0033000000000000000000 "
				},
				"gasEstimates": {
					"creation": {
						"codeDepositCost": "1175200",
						"executionCost": "infinite",
						"totalCost": "infinite"
					},
					"external": {
						"addLink(string,string,uint256)": "infinite",
						"admin()": "infinite",
						"commission()": "2446",
						"getLink(string)": "infinite",
						"hasAccess(string,address)": "infinite",
						"payLink(string)": "infinite",
						"withdraw()": "infinite"
					}
				},
				"methodIdentifiers": {
					"addLink(string,string,uint256)": "fc5f2b78",
					"admin()": "f851a440",
					"commission()": "e1489191",
					"getLink(string)": "7476452a",
					"hasAccess(string,address)": "13bd20e2",
					"payLink(string)": "429cad86",
					"withdraw()": "3ccfd60b"
				}
			},
			"storageLayout": {
				"storage": [
					{
						"astId": 11,
						"contract": "default_workspace/contracts/LinkShield.sol:LinkShield",
						"label": "commission",
						"offset": 0,
						"slot": "0",
						"type": "t_uint256"
					},
					{
						"astId": 16,
						"contract": "default_workspace/contracts/LinkShield.sol:LinkShield",
						"label": "links",
						"offset": 0,
						"slot": "1",
						"type": "t_mapping(t_string_memory_ptr,t_struct(Link)8_storage)"
					},
					{
						"astId": 22,
						"contract": "default_workspace/contracts/LinkShield.sol:LinkShield",
						"label": "hasAccess",
						"offset": 0,
						"slot": "2",
						"type": "t_mapping(t_string_memory_ptr,t_mapping(t_address,t_bool))"
					}
				],
				"types": {
					"t_address": {
						"encoding": "inplace",
						"label": "address",
						"numberOfBytes": "20"
					},
					"t_bool": {
						"encoding": "inplace",
						"label": "bool",
						"numberOfBytes": "1"
					},
					"t_mapping(t_address,t_bool)": {
						"encoding": "mapping",
						"key": "t_address",
						"label": "mapping(address => bool)",
						"numberOfBytes": "32",
						"value": "t_bool"
					},
					"t_mapping(t_string_memory_ptr,t_mapping(t_address,t_bool))": {
						"encoding": "mapping",
						"key": "t_string_memory_ptr",
						"label": "mapping(string => mapping(address => bool))",
						"numberOfBytes": "32",
						"value": "t_mapping(t_address,t_bool)"
					},
					"t_mapping(t_string_memory_ptr,t_struct(Link)8_storage)": {
						"encoding": "mapping",
						"key": "t_string_memory_ptr",
						"label": "mapping(string => struct LinkShield.Link)",
						"numberOfBytes": "32",
						"value": "t_struct(Link)8_storage"
					},
					"t_string_memory_ptr": {
						"encoding": "bytes",
						"label": "string",
						"numberOfBytes": "32"
					},
					"t_string_storage": {
						"encoding": "bytes",
						"label": "string",
						"numberOfBytes": "32"
					},
					"t_struct(Link)8_storage": {
						"encoding": "inplace",
						"label": "struct LinkShield.Link",
						"members": [
							{
								"astId": 3,
								"contract": "default_workspace/contracts/LinkShield.sol:LinkShield",
								"label": "url",
								"offset": 0,
								"slot": "0",
								"type": "t_string_storage"
							},
							{
								"astId": 5,
								"contract": "default_workspace/contracts/LinkShield.sol:LinkShield",
								"label": "owner",
								"offset": 0,
								"slot": "1",
								"type": "t_address"
							},
							{
								"astId": 7,
								"contract": "default_workspace/contracts/LinkShield.sol:LinkShield",
								"label": "fee",
								"offset": 0,
								"slot": "2",
								"type": "t_uint256"
							}
						],
						"numberOfBytes": "96"
					},
					"t_uint256": {
						"encoding": "inplace",
						"label": "uint256",
						"numberOfBytes": "32"
					}
				}
			},
			"userdoc": {
				"kind": "user",
				"methods": {},
				"version": 1
			}
		}
	}
}