{
	"data": {
		"bytecode": {
			"linkReferences": {},
			"object": "608060405260015f553480156012575f5ffd5b506114e1806100205f395ff3fe608060405260043610610049575f3560e01c806313bd20e21461004d578063429cad86146100895780637476452a146100a5578063e1489191146100e1578063fc5f2b781461010b575b5f5ffd5b348015610058575f5ffd5b50610073600480360381019061006e9190610c15565b610133565b6040516100809190610c89565b60405180910390f35b6100a3600480360381019061009e9190610cff565b610175565b005b3480156100b0575f5ffd5b506100cb60048036038101906100c69190610cff565b6104c3565b6040516100d89190610e1e565b60405180910390f35b3480156100ec575f5ffd5b506100f561068f565b6040516101029190610e4d565b60405180910390f35b348015610116575f5ffd5b50610131600480360381019061012c9190610e90565b610694565b005b600282805160208101820180518482526020830160208501208183528095505050505050602052805f5260405f205f915091509054906101000a900460ff1681565b5f60018383604051610188929190610f4f565b90815260200160405180910390206040518060600160405290815f820180546101b090610f94565b80601f01602080910402602001604051908101604052809291908181526020018280546101dc90610f94565b80156102275780601f106101fe57610100808354040283529160200191610227565b820191905f5260205f20905b81548152906001019060200180831161020a57829003601f168201915b50505050508152602001600182015f9054906101000a900473ffffffffffffffffffffffffffffffffffffffff1673ffffffffffffffffffffffffffffffffffffffff1673ffffffffffffffffffffffffffffffffffffffff16815260200160028201548152505090505f73ffffffffffffffffffffffffffffffffffffffff16816020015173ffffffffffffffffffffffffffffffffffffffff1603610303576040517f08c379a00000000000000000000000000000000000000000000000000000000081526004016102fa9061101e565b60405180910390fd5b5f151560028484604051610318929190610f4f565b90815260200160405180910390205f3373ffffffffffffffffffffffffffffffffffffffff1673ffffffffffffffffffffffffffffffffffffffff1681526020019081526020015f205f9054906101000a900460ff161515146103b0576040517f08c379a00000000000000000000000000000000000000000000000000000000081526004016103a790611086565b60405180910390fd5b80604001513410156103f7576040517f08c379a00000000000000000000000000000000000000000000000000000000081526004016103ee906110ee565b60405180910390fd5b60016002848460405161040b929190610f4f565b90815260200160405180910390205f3373ffffffffffffffffffffffffffffffffffffffff1673ffffffffffffffffffffffffffffffffffffffff1681526020019081526020015f205f6101000a81548160ff021916908315150217905550806020015173ffffffffffffffffffffffffffffffffffffffff166108fc5f54346104959190611139565b90811502906040515f60405180830381858888f193505050501580156104bd573d5f5f3e3d5ffd5b50505050565b6104cb610a39565b5f600184846040516104de929190610f4f565b90815260200160405180910390206040518060600160405290815f8201805461050690610f94565b80601f016020809104026020016040519081016040528092919081815260200182805461053290610f94565b801561057d5780601f106105545761010080835404028352916020019161057d565b820191905f5260205f20905b81548152906001019060200180831161056057829003601f168201915b50505050508152602001600182015f9054906101000a900473ffffffffffffffffffffffffffffffffffffffff1673ffffffffffffffffffffffffffffffffffffffff1673ffffffffffffffffffffffffffffffffffffffff16815260200160028201548152505090505f8160400151036105fb5780915050610689565b5f151560028585604051610610929190610f4f565b90815260200160405180910390205f3373ffffffffffffffffffffffffffffffffffffffff1673ffffffffffffffffffffffffffffffffffffffff1681526020019081526020015f205f9054906101000a900460ff161515036106845760405180602001604052805f815250815f01819052505b809150505b92915050565b5f5481565b5f600184846040516106a7929190610f4f565b90815260200160405180910390206040518060600160405290815f820180546106cf90610f94565b80601f01602080910402602001604051908101604052809291908181526020018280546106fb90610f94565b80156107465780601f1061071d57610100808354040283529160200191610746565b820191905f5260205f20905b81548152906001019060200180831161072957829003601f168201915b50505050508152602001600182015f9054906101000a900473ffffffffffffffffffffffffffffffffffffffff1673ffffffffffffffffffffffffffffffffffffffff1673ffffffffffffffffffffffffffffffffffffffff16815260200160028201548152505090505f73ffffffffffffffffffffffffffffffffffffffff16816020015173ffffffffffffffffffffffffffffffffffffffff16148061081d57503373ffffffffffffffffffffffffffffffffffffffff16816020015173ffffffffffffffffffffffffffffffffffffffff16145b61085c576040517f08c379a0000000000000000000000000000000000000000000000000000000008152600401610853906111b6565b60405180910390fd5b5f82148061086a57505f5482115b6108a9576040517f08c379a00000000000000000000000000000000000000000000000000000000081526004016108a09061121e565b60405180910390fd5b85858080601f0160208091040260200160405190810160405280939291908181526020018383808284375f81840152601f19601f82011690508083019250505050505050815f01819052508181604001818152505033816020019073ffffffffffffffffffffffffffffffffffffffff16908173ffffffffffffffffffffffffffffffffffffffff16815250508060018585604051610949929190610f4f565b90815260200160405180910390205f820151815f01908161096a91906113dc565b506020820151816001015f6101000a81548173ffffffffffffffffffffffffffffffffffffffff021916908373ffffffffffffffffffffffffffffffffffffffff160217905550604082015181600201559050506001600285856040516109d2929190610f4f565b90815260200160405180910390205f3373ffffffffffffffffffffffffffffffffffffffff1673ffffffffffffffffffffffffffffffffffffffff1681526020019081526020015f205f6101000a81548160ff021916908315150217905550505050505050565b6040518060600160405280606081526020015f73ffffffffffffffffffffffffffffffffffffffff1681526020015f81525090565b5f604051905090565b5f5ffd5b5f5ffd5b5f5ffd5b5f5ffd5b5f601f19601f8301169050919050565b7f4e487b71000000000000000000000000000000000000000000000000000000005f52604160045260245ffd5b610acd82610a87565b810181811067ffffffffffffffff82111715610aec57610aeb610a97565b5b80604052505050565b5f610afe610a6e565b9050610b0a8282610ac4565b919050565b5f67ffffffffffffffff821115610b2957610b28610a97565b5b610b3282610a87565b9050602081019050919050565b828183375f83830152505050565b5f610b5f610b5a84610b0f565b610af5565b905082815260208101848484011115610b7b57610b7a610a83565b5b610b86848285610b3f565b509392505050565b5f82601f830112610ba257610ba1610a7f565b5b8135610bb2848260208601610b4d565b91505092915050565b5f73ffffffffffffffffffffffffffffffffffffffff82169050919050565b5f610be482610bbb565b9050919050565b610bf481610bda565b8114610bfe575f5ffd5b50565b5f81359050610c0f81610beb565b92915050565b5f5f60408385031215610c2b57610c2a610a77565b5b5f83013567ffffffffffffffff811115610c4857610c47610a7b565b5b610c5485828601610b8e565b9250506020610c6585828601610c01565b9150509250929050565b5f8115159050919050565b610c8381610c6f565b82525050565b5f602082019050610c9c5f830184610c7a565b92915050565b5f5ffd5b5f5ffd5b5f5f83601f840112610cbf57610cbe610a7f565b5b8235905067ffffffffffffffff811115610cdc57610cdb610ca2565b5b602083019150836001820283011115610cf857610cf7610ca6565b5b9250929050565b5f5f60208385031215610d1557610d14610a77565b5b5f83013567ffffffffffffffff811115610d3257610d31610a7b565b5b610d3e85828601610caa565b92509250509250929050565b5f81519050919050565b5f82825260208201905092915050565b8281835e5f83830152505050565b5f610d7c82610d4a565b610d868185610d54565b9350610d96818560208601610d64565b610d9f81610a87565b840191505092915050565b610db381610bda565b82525050565b5f819050919050565b610dcb81610db9565b82525050565b5f606083015f8301518482035f860152610deb8282610d72565b9150506020830151610e006020860182610daa565b506040830151610e136040860182610dc2565b508091505092915050565b5f6020820190508181035f830152610e368184610dd1565b905092915050565b610e4781610db9565b82525050565b5f602082019050610e605f830184610e3e565b92915050565b610e6f81610db9565b8114610e79575f5ffd5b50565b5f81359050610e8a81610e66565b92915050565b5f5f5f5f5f60608688031215610ea957610ea8610a77565b5b5f86013567ffffffffffffffff811115610ec657610ec5610a7b565b5b610ed288828901610caa565b9550955050602086013567ffffffffffffffff811115610ef557610ef4610a7b565b5b610f0188828901610caa565b93509350506040610f1488828901610e7c565b9150509295509295909350565b5f81905092915050565b5f610f368385610f21565b9350610f43838584610b3f565b82840190509392505050565b5f610f5b828486610f2b565b91508190509392505050565b7f4e487b71000000000000000000000000000000000000000000000000000000005f52602260045260245ffd5b5f6002820490506001821680610fab57607f821691505b602082108103610fbe57610fbd610f67565b5b50919050565b5f82825260208201905092915050565b7f4c696e6b206e6f7420666f756e640000000000000000000000000000000000005f82015250565b5f611008600e83610fc4565b915061101382610fd4565b602082019050919050565b5f6020820190508181035f83015261103581610ffc565b9050919050565b7f596f7520616c72656164792068617665206163636573730000000000000000005f82015250565b5f611070601783610fc4565b915061107b8261103c565b602082019050919050565b5f6020820190508181035f83015261109d81611064565b9050919050565b7f496e73756666696369656e74207061796d656e740000000000000000000000005f82015250565b5f6110d8601483610fc4565b91506110e3826110a4565b602082019050919050565b5f6020820190508181035f830152611105816110cc565b9050919050565b7f4e487b71000000000000000000000000000000000000000000000000000000005f52601160045260245ffd5b5f61114382610db9565b915061114e83610db9565b92508282039050818111156111665761116561110c565b5b92915050565b7f54686973206c696e6b496420616c72656164792068617320616e206f776e65725f82015250565b5f6111a0602083610fc4565b91506111ab8261116c565b602082019050919050565b5f6020820190508181035f8301526111cd81611194565b9050919050565b7f46656520746f6f206c6f770000000000000000000000000000000000000000005f82015250565b5f611208600b83610fc4565b9150611213826111d4565b602082019050919050565b5f6020820190508181035f830152611235816111fc565b9050919050565b5f819050815f5260205f209050919050565b5f6020601f8301049050919050565b5f82821b905092915050565b5f600883026112987fffffffffffffffffffffffffffffffffffffffffffffffffffffffffffffffff8261125d565b6112a2868361125d565b95508019841693508086168417925050509392505050565b5f819050919050565b5f6112dd6112d86112d384610db9565b6112ba565b610db9565b9050919050565b5f819050919050565b6112f6836112c3565b61130a611302826112e4565b848454611269565b825550505050565b5f5f905090565b611321611312565b61132c8184846112ed565b505050565b5b8181101561134f576113445f82611319565b600181019050611332565b5050565b601f821115611394576113658161123c565b61136e8461124e565b8101602085101561137d578190505b6113916113898561124e565b830182611331565b50505b505050565b5f82821c905092915050565b5f6113b45f1984600802611399565b1980831691505092915050565b5f6113cc83836113a5565b9150826002028217905092915050565b6113e582610d4a565b67ffffffffffffffff8111156113fe576113fd610a97565b5b6114088254610f94565b611413828285611353565b5f60209050601f831160018114611444575f8415611432578287015190505b61143c85826113c1565b8655506114a3565b601f1984166114528661123c565b5f5b8281101561147957848901518255600182019150602085019450602081019050611454565b868310156114965784890151611492601f8916826113a5565b8355505b6001600288020188555050505b50505050505056fea2646970667358221220dcb3616ba328b3944d48c2a822acd782f9b3b99366f08111be987e1fe504011c64736f6c634300081e0033",
			"opcodes": "PUSH1 0x80 PUSH1 0x40 MSTORE PUSH1 0x1 PUSH0 SSTORE CALLVALUE DUP1 ISZERO PUSH1 0x12 JUMPI PUSH0 PUSH0 REVERT JUMPDEST POP PUSH2 0x14E1 DUP1 PUSH2 0x20 PUSH0 CODECOPY PUSH0 RETURN INVALID PUSH1 0x80 PUSH1 0x40 MSTORE PUSH1 0x4 CALLDATASIZE LT PUSH2 0x49 JUMPI PUSH0 CALLDATALOAD PUSH1 0xE0 SHR DUP1 PUSH4 0x13BD20E2 EQ PUSH2 0x4D JUMPI DUP1 PUSH4 0x429CAD86 EQ PUSH2 0x89 JUMPI DUP1 PUSH4 0x7476452A EQ PUSH2 0xA5 JUMPI DUP1 PUSH4 0xE1489191 EQ PUSH2 0xE1 JUMPI DUP1 PUSH4 0xFC5F2B78 EQ PUSH2 0x10B JUMPI JUMPDEST PUSH0 PUSH0 REVERT JUMPDEST CALLVALUE DUP1 ISZERO PUSH2 0x58 JUMPI PUSH0 PUSH0 REVERT JUMPDEST POP PUSH2 0x73 PUSH1 0x4 DUP1 CALLDATASIZE SUB DUP2 ADD SWAP1 PUSH2 0x6E SWAP2 SWAP1 PUSH2 0xC15 JUMP JUMPDEST PUSH2 0x133 JUMP JUMPDEST PUSH1 0x40 MLOAD PUSH2 0x80 SWAP2 SWAP1 PUSH2 0xC89 JUMP JUMPDEST PUSH1 0x40 MLOAD DUP1 SWAP2 SUB SWAP1 RETURN JUMPDEST PUSH2 0xA3 PUSH1 0x4 DUP1 CALLDATASIZE SUB DUP2 ADD SWAP1 PUSH2 0x9E SWAP2 SWAP1 PUSH2 0xCFF JUMP JUMPDEST PUSH2 0x175 JUMP JUMPDEST STOP JUMPDEST CALLVALUE DUP1 ISZERO PUSH2 0xB0 JUMPI PUSH0 PUSH0 REVERT JUMPDEST POP PUSH2 0xCB PUSH1 0x4 DUP1 CALLDATASIZE SUB DUP2 ADD SWAP1 PUSH2 0xC6 SWAP2 SWAP1 PUSH2 0xCFF JUMP JUMPDEST PUSH2 0x4C3 JUMP JUMPDEST PUSH1 0x40 MLOAD PUSH2 0xD8 SWAP2 SWAP1 PUSH2 0xE1E JUMP JUMPDEST PUSH1 0x40 MLOAD DUP1 SWAP2 SUB SWAP1 RETURN JUMPDEST CALLVALUE DUP1 ISZERO PUSH2 0xEC JUMPI PUSH0 PUSH0 REVERT JUMPDEST POP PUSH2 0xF5 PUSH2 0x68F JUMP JUMPDEST PUSH1 0x40 MLOAD PUSH2 0x102 SWAP2 SWAP1 PUSH2 0xE4D JUMP JUMPDEST PUSH1 0x40 MLOAD DUP1 SWAP2 SUB SWAP1 RETURN JUMPDEST CALLVALUE DUP1 ISZERO PUSH2 0x116 JUMPI PUSH0 PUSH0 REVERT JUMPDEST POP PUSH2 0x131 PUSH1 0x4 DUP1 CALLDATASIZE SUB DUP2 ADD SWAP1 PUSH2 0x12C SWAP2 SWAP1 PUSH2 0xE90 JUMP JUMPDEST PUSH2 0x694 JUMP JUMPDEST STOP JUMPDEST PUSH1 0x2 DUP3 DUP1 MLOAD PUSH1 0x20 DUP2 ADD DUP3 ADD DUP1 MLOAD DUP5 DUP3 MSTORE PUSH1 0x20 DUP4 ADD PUSH1 0x20 DUP6 ADD KECCAK256 DUP2 DUP4 MSTORE DUP1 SWAP6 POP POP POP POP POP POP PUSH1 0x20 MSTORE DUP1 PUSH0 MSTORE PUSH1 0x40 PUSH0 KECCAK256 PUSH0 SWAP2 POP SWAP2 POP SWAP1 SLOAD SWAP1 PUSH2 0x100 EXP SWAP1 DIV PUSH1 0xFF AND DUP2 JUMP JUMPDEST PUSH0 PUSH1 0x1 DUP4 DUP4 PUSH1 0x40 MLOAD PUSH2 0x188 SWAP3 SWAP2 SWAP1 PUSH2 0xF4F JUMP JUMPDEST SWAP1 DUP2 MSTORE PUSH1 0x20 ADD PUSH1 0x40 MLOAD DUP1 SWAP2 SUB SWAP1 KECCAK256 PUSH1 0x40 MLOAD DUP1 PUSH1 0x60 ADD PUSH1 0x40 MSTORE SWAP1 DUP2 PUSH0 DUP3 ADD DUP1 SLOAD PUSH2 0x1B0 SWAP1 PUSH2 0xF94 JUMP JUMPDEST DUP1 PUSH1 0x1F ADD PUSH1 0x20 DUP1 SWAP2 DIV MUL PUSH1 0x20 ADD PUSH1 0x40 MLOAD SWAP1 DUP2 ADD PUSH1 0x40 MSTORE DUP1 SWAP3 SWAP2 SWAP1 DUP2 DUP2 MSTORE PUSH1 0x20 ADD DUP3 DUP1 SLOAD PUSH2 0x1DC SWAP1 PUSH2 0xF94 JUMP JUMPDEST DUP1 ISZERO PUSH2 0x227 JUMPI DUP1 PUSH1 0x1F LT PUSH2 0x1FE JUMPI PUSH2 0x100 DUP1 DUP4 SLOAD DIV MUL DUP4 MSTORE SWAP2 PUSH1 0x20 ADD SWAP2 PUSH2 0x227 JUMP JUMPDEST DUP3 ADD SWAP2 SWAP1 PUSH0 MSTORE PUSH1 0x20 PUSH0 KECCAK256 SWAP1 JUMPDEST DUP2 SLOAD DUP2 MSTORE SWAP1 PUSH1 0x1 ADD SWAP1 PUSH1 0x20 ADD DUP1 DUP4 GT PUSH2 0x20A JUMPI DUP3 SWAP1 SUB PUSH1 0x1F AND DUP3 ADD SWAP2 JUMPDEST POP POP POP POP POP DUP2 MSTORE PUSH1 0x20 ADD PUSH1 0x1 DUP3 ADD PUSH0 SWAP1 SLOAD SWAP1 PUSH2 0x100 EXP SWAP1 DIV PUSH20 0xFFFFFFFFFFFFFFFFFFFFFFFFFFFFFFFFFFFFFFFF AND PUSH20 0xFFFFFFFFFFFFFFFFFFFFFFFFFFFFFFFFFFFFFFFF AND PUSH20 0xFFFFFFFFFFFFFFFFFFFFFFFFFFFFFFFFFFFFFFFF AND DUP2 MSTORE PUSH1 0x20 ADD PUSH1 0x2 DUP3 ADD SLOAD DUP2 MSTORE POP POP SWAP1 POP PUSH0 PUSH20 0xFFFFFFFFFFFFFFFFFFFFFFFFFFFFFFFFFFFFFFFF AND DUP2 PUSH1 0x20 ADD MLOAD PUSH20 0xFFFFFFFFFFFFFFFFFFFFFFFFFFFFFFFFFFFFFFFF AND SUB PUSH2 0x303 JUMPI PUSH1 0x40 MLOAD PUSH32 0x8C379A000000000000000000000000000000000000000000000000000000000 DUP2 MSTORE PUSH1 0x4 ADD PUSH2 0x2FA SWAP1 PUSH2 0x101E JUMP JUMPDEST PUSH1 0x40 MLOAD DUP1 SWAP2 SUB SWAP1 REVERT JUMPDEST PUSH0 ISZERO ISZERO PUSH1 0x2 DUP5 DUP5 PUSH1 0x40 MLOAD PUSH2 0x318 SWAP3 SWAP2 SWAP1 PUSH2 0xF4F JUMP JUMPDEST SWAP1 DUP2 MSTORE PUSH1 0x20 ADD PUSH1 0x40 MLOAD DUP1 SWAP2 SUB SWAP1 KECCAK256 PUSH0 CALLER PUSH20 0xFFFFFFFFFFFFFFFFFFFFFFFFFFFFFFFFFFFFFFFF AND PUSH20 0xFFFFFFFFFFFFFFFFFFFFFFFFFFFFFFFFFFFFFFFF AND DUP2 MSTORE PUSH1 0x20 ADD SWAP1 DUP2 MSTORE PUSH1 0x20 ADD PUSH0 KECCAK256 PUSH0 SWAP1 SLOAD SWAP1 PUSH2 0x100 EXP SWAP1 DIV PUSH1 0xFF AND ISZERO ISZERO EQ PUSH2 0x3B0 JUMPI PUSH1 0x40 MLOAD PUSH32 0x8C379A000000000000000000000000000000000000000000000000000000000 DUP2 MSTORE PUSH1 0x4 ADD PUSH2 0x3A7 SWAP1 PUSH2 0x1086 JUMP JUMPDEST PUSH1 0x40 MLOAD DUP1 SWAP2 SUB SWAP1 REVERT JUMPDEST DUP1 PUSH1 0x40 ADD MLOAD CALLVALUE LT ISZERO PUSH2 0x3F7 JUMPI PUSH1 0x40 MLOAD PUSH32 0x8C379A000000000000000000000000000000000000000000000000000000000 DUP2 MSTORE PUSH1 0x4 ADD PUSH2 0x3EE SWAP1 PUSH2 0x10EE JUMP JUMPDEST PUSH1 0x40 MLOAD DUP1 SWAP2 SUB SWAP1 REVERT JUMPDEST PUSH1 0x1 PUSH1 0x2 DUP5 DUP5 PUSH1 0x40 MLOAD PUSH2 0x40B SWAP3 SWAP2 SWAP1 PUSH2 0xF4F JUMP JUMPDEST SWAP1 DUP2 MSTORE PUSH1 0x20 ADD PUSH1 0x40 MLOAD DUP1 SWAP2 SUB SWAP1 KECCAK256 PUSH0 CALLER PUSH20 0xFFFFFFFFFFFFFFFFFFFFFFFFFFFFFFFFFFFFFFFF AND PUSH20 0xFFFFFFFFFFFFFFFFFFFFFFFFFFFFFFFFFFFFFFFF AND DUP2 MSTORE PUSH1 0x20 ADD SWAP1 DUP2 MSTORE PUSH1 0x20 ADD PUSH0 KECCAK256 PUSH0 PUSH2 0x100 EXP DUP2 SLOAD DUP2 PUSH1 0xFF MUL NOT AND SWAP1 DUP4 ISZERO ISZERO MUL OR SWAP1 SSTORE POP DUP1 PUSH1 0x20 ADD MLOAD PUSH20 0xFFFFFFFFFFFFFFFFFFFFFFFFFFFFFFFFFFFFFFFF AND PUSH2 0x8FC PUSH0 SLOAD CALLVALUE PUSH2 0x495 SWAP2 SWAP1 PUSH2 0x1139 JUMP JUMPDEST SWAP1 DUP2 ISZERO MUL SWAP1 PUSH1 0x40 MLOAD PUSH0 PUSH1 0x40 MLOAD DUP1 DUP4 SUB DUP2 DUP6 DUP9 DUP9 CALL SWAP4 POP POP POP POP ISZERO DUP1 ISZERO PUSH2 0x4BD JUMPI RETURNDATASIZE PUSH0 PUSH0 RETURNDATACOPY RETURNDATASIZE PUSH0 REVERT JUMPDEST POP POP POP POP JUMP JUMPDEST PUSH2 0x4CB PUSH2 0xA39 JUMP JUMPDEST PUSH0 PUSH1 0x1 DUP5 DUP5 PUSH1 0x40 MLOAD PUSH2 0x4DE SWAP3 SWAP2 SWAP1 PUSH2 0xF4F JUMP JUMPDEST SWAP1 DUP2 MSTORE PUSH1 0x20 ADD PUSH1 0x40 MLOAD DUP1 SWAP2 SUB SWAP1 KECCAK256 PUSH1 0x40 MLOAD DUP1 PUSH1 0x60 ADD PUSH1 0x40 MSTORE SWAP1 DUP2 PUSH0 DUP3 ADD DUP1 SLOAD PUSH2 0x506 SWAP1 PUSH2 0xF94 JUMP JUMPDEST DUP1 PUSH1 0x1F ADD PUSH1 0x20 DUP1 SWAP2 DIV MUL PUSH1 0x20 ADD PUSH1 0x40 MLOAD SWAP1 DUP2 ADD PUSH1 0x40 MSTORE DUP1 SWAP3 SWAP2 SWAP1 DUP2 DUP2 MSTORE PUSH1 0x20 ADD DUP3 DUP1 SLOAD PUSH2 0x532 SWAP1 PUSH2 0xF94 JUMP JUMPDEST DUP1 ISZERO PUSH2 0x57D JUMPI DUP1 PUSH1 0x1F LT PUSH2 0x554 JUMPI PUSH2 0x100 DUP1 DUP4 SLOAD DIV MUL DUP4 MSTORE SWAP2 PUSH1 0x20 ADD SWAP2 PUSH2 0x57D JUMP JUMPDEST DUP3 ADD SWAP2 SWAP1 PUSH0 MSTORE PUSH1 0x20 PUSH0 KECCAK256 SWAP1 JUMPDEST DUP2 SLOAD DUP2 MSTORE SWAP1 PUSH1 0x1 ADD SWAP1 PUSH1 0x20 ADD DUP1 DUP4 GT PUSH2 0x560 JUMPI DUP3 SWAP1 SUB PUSH1 0x1F AND DUP3 ADD SWAP2 JUMPDEST POP POP POP POP POP DUP2 MSTORE PUSH1 0x20 ADD PUSH1 0x1 DUP3 ADD PUSH0 SWAP1 SLOAD SWAP1 PUSH2 0x100 EXP SWAP1 DIV PUSH20 0xFFFFFFFFFFFFFFFFFFFFFFFFFFFFFFFFFFFFFFFF AND PUSH20 0xFFFFFFFFFFFFFFFFFFFFFFFFFFFFFFFFFFFFFFFF AND PUSH20 0xFFFFFFFFFFFFFFFFFFFFFFFFFFFFFFFFFFFFFFFF AND DUP2 MSTORE PUSH1 0x20 ADD PUSH1 0x2 DUP3 ADD SLOAD DUP2 MSTORE POP POP SWAP1 POP PUSH0 DUP2 PUSH1 0x40 ADD MLOAD SUB PUSH2 0x5FB JUMPI DUP1 SWAP2 POP POP PUSH2 0x689 JUMP JUMPDEST PUSH0 ISZERO ISZERO PUSH1 0x2 DUP6 DUP6 PUSH1 0x40 MLOAD PUSH2 0x610 SWAP3 SWAP2 SWAP1 PUSH2 0xF4F JUMP JUMPDEST SWAP1 DUP2 MSTORE PUSH1 0x20 ADD PUSH1 0x40 MLOAD DUP1 SWAP2 SUB SWAP1 KECCAK256 PUSH0 CALLER PUSH20 0xFFFFFFFFFFFFFFFFFFFFFFFFFFFFFFFFFFFFFFFF AND PUSH20 0xFFFFFFFFFFFFFFFFFFFFFFFFFFFFFFFFFFFFFFFF AND DUP2 MSTORE PUSH1 0x20 ADD SWAP1 DUP2 MSTORE PUSH1 0x20 ADD PUSH0 KECCAK256 PUSH0 SWAP1 SLOAD SWAP1 PUSH2 0x100 EXP SWAP1 DIV PUSH1 0xFF AND ISZERO ISZERO SUB PUSH2 0x684 JUMPI PUSH1 0x40 MLOAD DUP1 PUSH1 0x20 ADD PUSH1 0x40 MSTORE DUP1 PUSH0 DUP2 MSTORE POP DUP2 PUSH0 ADD DUP2 SWAP1 MSTORE POP JUMPDEST DUP1 SWAP2 POP POP JUMPDEST SWAP3 SWAP2 POP POP JUMP JUMPDEST PUSH0 SLOAD DUP2 JUMP JUMPDEST PUSH0 PUSH1 0x1 DUP5 DUP5 PUSH1 0x40 MLOAD PUSH2 0x6A7 SWAP3 SWAP2 SWAP1 PUSH2 0xF4F JUMP JUMPDEST SWAP1 DUP2 MSTORE PUSH1 0x20 ADD PUSH1 0x40 MLOAD DUP1 SWAP2 SUB SWAP1 KECCAK256 PUSH1 0x40 MLOAD DUP1 PUSH1 0x60 ADD PUSH1 0x40 MSTORE SWAP1 DUP2 PUSH0 DUP3 ADD DUP1 SLOAD PUSH2 0x6CF SWAP1 PUSH2 0xF94 JUMP JUMPDEST DUP1 PUSH1 0x1F ADD PUSH1 0x20 DUP1 SWAP2 DIV MUL PUSH1 0x20 ADD PUSH1 0x40 MLOAD SWAP1 DUP2 ADD PUSH1 0x40 MSTORE DUP1 SWAP3 SWAP2 SWAP1 DUP2 DUP2 MSTORE PUSH1 0x20 ADD DUP3 DUP1 SLOAD PUSH2 0x6FB SWAP1 PUSH2 0xF94 JUMP JUMPDEST DUP1 ISZERO PUSH2 0x746 JUMPI DUP1 PUSH1 0x1F LT PUSH2 0x71D JUMPI PUSH2 0x100 DUP1 DUP4 SLOAD DIV MUL DUP4 MSTORE SWAP2 PUSH1 0x20 ADD SWAP2 PUSH2 0x746 JUMP JUMPDEST DUP3 ADD SWAP2 SWAP1 PUSH0 MSTORE PUSH1 0x20 PUSH0 KECCAK256 SWAP1 JUMPDEST DUP2 SLOAD DUP2 MSTORE SWAP1 PUSH1 0x1 ADD SWAP1 PUSH1 0x20 ADD DUP1 DUP4 GT PUSH2 0x729 JUMPI DUP3 SWAP1 SUB PUSH1 0x1F AND DUP3 ADD SWAP2 JUMPDEST POP POP POP POP POP DUP2 MSTORE PUSH1 0x20 ADD PUSH1 0x1 DUP3 ADD PUSH0 SWAP1 SLOAD SWAP1 PUSH2 0x100 EXP SWAP1 DIV PUSH20 0xFFFFFFFFFFFFFFFFFFFFFFFFFFFFFFFFFFFFFFFF AND PUSH20 0xFFFFFFFFFFFFFFFFFFFFFFFFFFFFFFFFFFFFFFFF AND PUSH20 0xFFFFFFFFFFFFFFFFFFFFFFFFFFFFFFFFFFFFFFFF AND DUP2 MSTORE PUSH1 0x20 ADD PUSH1 0x2 DUP3 ADD SLOAD DUP2 MSTORE POP POP SWAP1 POP PUSH0 PUSH20 0xFFFFFFFFFFFFFFFFFFFFFFFFFFFFFFFFFFFFFFFF AND DUP2 PUSH1 0x20 ADD MLOAD PUSH20 0xFFFFFFFFFFFFFFFFFFFFFFFFFFFFFFFFFFFFFFFF AND EQ DUP1 PUSH2 0x81D JUMPI POP CALLER PUSH20 0xFFFFFFFFFFFFFFFFFFFFFFFFFFFFFFFFFFFFFFFF AND DUP2 PUSH1 0x20 ADD MLOAD PUSH20 0xFFFFFFFFFFFFFFFFFFFFFFFFFFFFFFFFFFFFFFFF AND EQ JUMPDEST PUSH2 0x85C JUMPI PUSH1 0x40 MLOAD PUSH32 0x8C379A000000000000000000000000000000000000000000000000000000000 DUP2 MSTORE PUSH1 0x4 ADD PUSH2 0x853 SWAP1 PUSH2 0x11B6 JUMP JUMPDEST PUSH1 0x40 MLOAD DUP1 SWAP2 SUB SWAP1 REVERT JUMPDEST PUSH0 DUP3 EQ DUP1 PUSH2 0x86A JUMPI POP PUSH0 SLOAD DUP3 GT JUMPDEST PUSH2 0x8A9 JUMPI PUSH1 0x40 MLOAD PUSH32 0x8C379A000000000000000000000000000000000000000000000000000000000 DUP2 MSTORE PUSH1 0x4 ADD PUSH2 0x8A0 SWAP1 PUSH2 0x121E JUMP JUMPDEST PUSH1 0x40 MLOAD DUP1 SWAP2 SUB SWAP1 REVERT JUMPDEST DUP6 DUP6 DUP1 DUP1 PUSH1 0x1F ADD PUSH1 0x20 DUP1 SWAP2 DIV MUL PUSH1 0x20 ADD PUSH1 0x40 MLOAD SWAP1 DUP2 ADD PUSH1 0x40 MSTORE DUP1 SWAP4 SWAP3 SWAP2 SWAP1 DUP2 DUP2 MSTORE PUSH1 0x20 ADD DUP4 DUP4 DUP1 DUP3 DUP5 CALLDATACOPY PUSH0 DUP2 DUP5 ADD MSTORE PUSH1 0x1F NOT PUSH1 0x1F DUP3 ADD AND SWAP1 POP DUP1 DUP4 ADD SWAP3 POP POP POP POP POP POP POP DUP2 PUSH0 ADD DUP2 SWAP1 MSTORE POP DUP2 DUP2 PUSH1 0x40 ADD DUP2 DUP2 MSTORE POP POP CALLER DUP2 PUSH1 0x20 ADD SWAP1 PUSH20 0xFFFFFFFFFFFFFFFFFFFFFFFFFFFFFFFFFFFFFFFF AND SWAP1 DUP2 PUSH20 0xFFFFFFFFFFFFFFFFFFFFFFFFFFFFFFFFFFFFFFFF AND DUP2 MSTORE POP POP DUP1 PUSH1 0x1 DUP6 DUP6 PUSH1 0x40 MLOAD PUSH2 0x949 SWAP3 SWAP2 SWAP1 PUSH2 0xF4F JUMP JUMPDEST SWAP1 DUP2 MSTORE PUSH1 0x20 ADD PUSH1 0x40 MLOAD DUP1 SWAP2 SUB SWAP1 KECCAK256 PUSH0 DUP3 ADD MLOAD DUP2 PUSH0 ADD SWAP1 DUP2 PUSH2 0x96A SWAP2 SWAP1 PUSH2 0x13DC JUMP JUMPDEST POP PUSH1 0x20 DUP3 ADD MLOAD DUP2 PUSH1 0x1 ADD PUSH0 PUSH2 0x100 EXP DUP2 SLOAD DUP2 PUSH20 0xFFFFFFFFFFFFFFFFFFFFFFFFFFFFFFFFFFFFFFFF MUL NOT AND SWAP1 DUP4 PUSH20 0xFFFFFFFFFFFFFFFFFFFFFFFFFFFFFFFFFFFFFFFF AND MUL OR SWAP1 SSTORE POP PUSH1 0x40 DUP3 ADD MLOAD DUP2 PUSH1 0x2 ADD SSTORE SWAP1 POP POP PUSH1 0x1 PUSH1 0x2 DUP6 DUP6 PUSH1 0x40 MLOAD PUSH2 0x9D2 SWAP3 SWAP2 SWAP1 PUSH2 0xF4F JUMP JUMPDEST SWAP1 DUP2 MSTORE PUSH1 0x20 ADD PUSH1 0x40 MLOAD DUP1 SWAP2 SUB SWAP1 KECCAK256 PUSH0 CALLER PUSH20 0xFFFFFFFFFFFFFFFFFFFFFFFFFFFFFFFFFFFFFFFF AND PUSH20 0xFFFFFFFFFFFFFFFFFFFFFFFFFFFFFFFFFFFFFFFF AND DUP2 MSTORE PUSH1 0x20 ADD SWAP1 DUP2 MSTORE PUSH1 0x20 ADD PUSH0 KECCAK256 PUSH0 PUSH2 0x100 EXP DUP2 SLOAD DUP2 PUSH1 0xFF MUL NOT AND SWAP1 DUP4 ISZERO ISZERO MUL OR SWAP1 SSTORE POP POP POP POP POP POP POP JUMP JUMPDEST PUSH1 0x40 MLOAD DUP1 PUSH1 0x60 ADD PUSH1 0x40 MSTORE DUP1 PUSH1 0x60 DUP2 MSTORE PUSH1 0x20 ADD PUSH0 PUSH20 0xFFFFFFFFFFFFFFFFFFFFFFFFFFFFFFFFFFFFFFFF AND DUP2 MSTORE PUSH1 0x20 ADD PUSH0 DUP2 MSTORE POP SWAP1 JUMP JUMPDEST PUSH0 PUSH1 0x40 MLOAD SWAP1 POP SWAP1 JUMP JUMPDEST PUSH0 PUSH0 REVERT JUMPDEST PUSH0 PUSH0 REVERT JUMPDEST PUSH0 PUSH0 REVERT JUMPDEST PUSH0 PUSH0 REVERT JUMPDEST PUSH0 PUSH1 0x1F NOT PUSH1 0x1F DUP4 ADD AND SWAP1 POP SWAP2 SWAP1 POP JUMP JUMPDEST PUSH32 0x4E487B7100000000000000000000000000000000000000000000000000000000 PUSH0 MSTORE PUSH1 0x41 PUSH1 0x4 MSTORE PUSH1 0x24 PUSH0 REVERT JUMPDEST PUSH2 0xACD DUP3 PUSH2 0xA87 JUMP JUMPDEST DUP2 ADD DUP2 DUP2 LT PUSH8 0xFFFFFFFFFFFFFFFF DUP3 GT OR ISZERO PUSH2 0xAEC JUMPI PUSH2 0xAEB PUSH2 0xA97 JUMP JUMPDEST JUMPDEST DUP1 PUSH1 0x40 MSTORE POP POP POP JUMP JUMPDEST PUSH0 PUSH2 0xAFE PUSH2 0xA6E JUMP JUMPDEST SWAP1 POP PUSH2 0xB0A DUP3 DUP3 PUSH2 0xAC4 JUMP JUMPDEST SWAP2 SWAP1 POP JUMP JUMPDEST PUSH0 PUSH8 0xFFFFFFFFFFFFFFFF DUP3 GT ISZERO PUSH2 0xB29 JUMPI PUSH2 0xB28 PUSH2 0xA97 JUMP JUMPDEST JUMPDEST PUSH2 0xB32 DUP3 PUSH2 0xA87 JUMP JUMPDEST SWAP1 POP PUSH1 0x20 DUP2 ADD SWAP1 POP SWAP2 SWAP1 POP JUMP JUMPDEST DUP3 DUP2 DUP4 CALLDATACOPY PUSH0 DUP4 DUP4 ADD MSTORE POP POP POP JUMP JUMPDEST PUSH0 PUSH2 0xB5F PUSH2 0xB5A DUP5 PUSH2 0xB0F JUMP JUMPDEST PUSH2 0xAF5 JUMP JUMPDEST SWAP1 POP DUP3 DUP2 MSTORE PUSH1 0x20 DUP2 ADD DUP5 DUP5 DUP5 ADD GT ISZERO PUSH2 0xB7B JUMPI PUSH2 0xB7A PUSH2 0xA83 JUMP JUMPDEST JUMPDEST PUSH2 0xB86 DUP5 DUP3 DUP6 PUSH2 0xB3F JUMP JUMPDEST POP SWAP4 SWAP3 POP POP POP JUMP JUMPDEST PUSH0 DUP3 PUSH1 0x1F DUP4 ADD SLT PUSH2 0xBA2 JUMPI PUSH2 0xBA1 PUSH2 0xA7F JUMP JUMPDEST JUMPDEST DUP2 CALLDATALOAD PUSH2 0xBB2 DUP5 DUP3 PUSH1 0x20 DUP7 ADD PUSH2 0xB4D JUMP JUMPDEST SWAP2 POP POP SWAP3 SWAP2 POP POP JUMP JUMPDEST PUSH0 PUSH20 0xFFFFFFFFFFFFFFFFFFFFFFFFFFFFFFFFFFFFFFFF DUP3 AND SWAP1 POP SWAP2 SWAP1 POP JUMP JUMPDEST PUSH0 PUSH2 0xBE4 DUP3 PUSH2 0xBBB JUMP JUMPDEST SWAP1 POP SWAP2 SWAP1 POP JUMP JUMPDEST PUSH2 0xBF4 DUP2 PUSH2 0xBDA JUMP JUMPDEST DUP2 EQ PUSH2 0xBFE JUMPI PUSH0 PUSH0 REVERT JUMPDEST POP JUMP JUMPDEST PUSH0 DUP2 CALLDATALOAD SWAP1 POP PUSH2 0xC0F DUP2 PUSH2 0xBEB JUMP JUMPDEST SWAP3 SWAP2 POP POP JUMP JUMPDEST PUSH0 PUSH0 PUSH1 0x40 DUP4 DUP6 SUB SLT ISZERO PUSH2 0xC2B JUMPI PUSH2 0xC2A PUSH2 0xA77 JUMP JUMPDEST JUMPDEST PUSH0 DUP4 ADD CALLDATALOAD PUSH8 0xFFFFFFFFFFFFFFFF DUP2 GT ISZERO PUSH2 0xC48 JUMPI PUSH2 0xC47 PUSH2 0xA7B JUMP JUMPDEST JUMPDEST PUSH2 0xC54 DUP6 DUP3 DUP7 ADD PUSH2 0xB8E JUMP JUMPDEST SWAP3 POP POP PUSH1 0x20 PUSH2 0xC65 DUP6 DUP3 DUP7 ADD PUSH2 0xC01 JUMP JUMPDEST SWAP2 POP POP SWAP3 POP SWAP3 SWAP1 POP JUMP JUMPDEST PUSH0 DUP2 ISZERO ISZERO SWAP1 POP SWAP2 SWAP1 POP JUMP JUMPDEST PUSH2 0xC83 DUP2 PUSH2 0xC6F JUMP JUMPDEST DUP3 MSTORE POP POP JUMP JUMPDEST PUSH0 PUSH1 0x20 DUP3 ADD SWAP1 POP PUSH2 0xC9C PUSH0 DUP4 ADD DUP5 PUSH2 0xC7A JUMP JUMPDEST SWAP3 SWAP2 POP POP JUMP JUMPDEST PUSH0 PUSH0 REVERT JUMPDEST PUSH0 PUSH0 REVERT JUMPDEST PUSH0 PUSH0 DUP4 PUSH1 0x1F DUP5 ADD SLT PUSH2 0xCBF JUMPI PUSH2 0xCBE PUSH2 0xA7F JUMP JUMPDEST JUMPDEST DUP3 CALLDATALOAD SWAP1 POP PUSH8 0xFFFFFFFFFFFFFFFF DUP2 GT ISZERO PUSH2 0xCDC JUMPI PUSH2 0xCDB PUSH2 0xCA2 JUMP JUMPDEST JUMPDEST PUSH1 0x20 DUP4 ADD SWAP2 POP DUP4 PUSH1 0x1 DUP3 MUL DUP4 ADD GT ISZERO PUSH2 0xCF8 JUMPI PUSH2 0xCF7 PUSH2 0xCA6 JUMP JUMPDEST JUMPDEST SWAP3 POP SWAP3 SWAP1 POP JUMP JUMPDEST PUSH0 PUSH0 PUSH1 0x20 DUP4 DUP6 SUB SLT ISZERO PUSH2 0xD15 JUMPI PUSH2 0xD14 PUSH2 0xA77 JUMP JUMPDEST JUMPDEST PUSH0 DUP4 ADD CALLDATALOAD PUSH8 0xFFFFFFFFFFFFFFFF DUP2 GT ISZERO PUSH2 0xD32 JUMPI PUSH2 0xD31 PUSH2 0xA7B JUMP JUMPDEST JUMPDEST PUSH2 0xD3E DUP6 DUP3 DUP7 ADD PUSH2 0xCAA JUMP JUMPDEST SWAP3 POP SWAP3 POP POP SWAP3 POP SWAP3 SWAP1 POP JUMP JUMPDEST PUSH0 DUP2 MLOAD SWAP1 POP SWAP2 SWAP1 POP JUMP JUMPDEST PUSH0 DUP3 DUP3 MSTORE PUSH1 0x20 DUP3 ADD SWAP1 POP SWAP3 SWAP2 POP POP JUMP JUMPDEST DUP3 DUP2 DUP4 MCOPY PUSH0 DUP4 DUP4 ADD MSTORE POP POP POP JUMP JUMPDEST PUSH0 PUSH2 0xD7C DUP3 PUSH2 0xD4A JUMP JUMPDEST PUSH2 0xD86 DUP2 DUP6 PUSH2 0xD54 JUMP JUMPDEST SWAP4 POP PUSH2 0xD96 DUP2 DUP6 PUSH1 0x20 DUP7 ADD PUSH2 0xD64 JUMP JUMPDEST PUSH2 0xD9F DUP2 PUSH2 0xA87 JUMP JUMPDEST DUP5 ADD SWAP2 POP POP SWAP3 SWAP2 POP POP JUMP JUMPDEST PUSH2 0xDB3 DUP2 PUSH2 0xBDA JUMP JUMPDEST DUP3 MSTORE POP POP JUMP JUMPDEST PUSH0 DUP2 SWAP1 POP SWAP2 SWAP1 POP JUMP JUMPDEST PUSH2 0xDCB DUP2 PUSH2 0xDB9 JUMP JUMPDEST DUP3 MSTORE POP POP JUMP JUMPDEST PUSH0 PUSH1 0x60 DUP4 ADD PUSH0 DUP4 ADD MLOAD DUP5 DUP3 SUB PUSH0 DUP7 ADD MSTORE PUSH2 0xDEB DUP3 DUP3 PUSH2 0xD72 JUMP JUMPDEST SWAP2 POP POP PUSH1 0x20 DUP4 ADD MLOAD PUSH2 0xE00 PUSH1 0x20 DUP7 ADD DUP3 PUSH2 0xDAA JUMP JUMPDEST POP PUSH1 0x40 DUP4 ADD MLOAD PUSH2 0xE13 PUSH1 0x40 DUP7 ADD DUP3 PUSH2 0xDC2 JUMP JUMPDEST POP DUP1 SWAP2 POP POP SWAP3 SWAP2 POP POP JUMP JUMPDEST PUSH0 PUSH1 0x20 DUP3 ADD SWAP1 POP DUP2 DUP2 SUB PUSH0 DUP4 ADD MSTORE PUSH2 0xE36 DUP2 DUP5 PUSH2 0xDD1 JUMP JUMPDEST SWAP1 POP SWAP3 SWAP2 POP POP JUMP JUMPDEST PUSH2 0xE47 DUP2 PUSH2 0xDB9 JUMP JUMPDEST DUP3 MSTORE POP POP JUMP JUMPDEST PUSH0 PUSH1 0x20 DUP3 ADD SWAP1 POP PUSH2 0xE60 PUSH0 DUP4 ADD DUP5 PUSH2 0xE3E JUMP JUMPDEST SWAP3 SWAP2 POP POP JUMP JUMPDEST PUSH2 0xE6F DUP2 PUSH2 0xDB9 JUMP JUMPDEST DUP2 EQ PUSH2 0xE79 JUMPI PUSH0 PUSH0 REVERT JUMPDEST POP JUMP JUMPDEST PUSH0 DUP2 CALLDATALOAD SWAP1 POP PUSH2 0xE8A DUP2 PUSH2 0xE66 JUMP JUMPDEST SWAP3 SWAP2 POP POP JUMP JUMPDEST PUSH0 PUSH0 PUSH0 PUSH0 PUSH0 PUSH1 0x60 DUP7 DUP9 SUB SLT ISZERO PUSH2 0xEA9 JUMPI PUSH2 0xEA8 PUSH2 0xA77 JUMP JUMPDEST JUMPDEST PUSH0 DUP7 ADD CALLDATALOAD PUSH8 0xFFFFFFFFFFFFFFFF DUP2 GT ISZERO PUSH2 0xEC6 JUMPI PUSH2 0xEC5 PUSH2 0xA7B JUMP JUMPDEST JUMPDEST PUSH2 0xED2 DUP9 DUP3 DUP10 ADD PUSH2 0xCAA JUMP JUMPDEST SWAP6 POP SWAP6 POP POP PUSH1 0x20 DUP7 ADD CALLDATALOAD PUSH8 0xFFFFFFFFFFFFFFFF DUP2 GT ISZERO PUSH2 0xEF5 JUMPI PUSH2 0xEF4 PUSH2 0xA7B JUMP JUMPDEST JUMPDEST PUSH2 0xF01 DUP9 DUP3 DUP10 ADD PUSH2 0xCAA JUMP JUMPDEST SWAP4 POP SWAP4 POP POP PUSH1 0x40 PUSH2 0xF14 DUP9 DUP3 DUP10 ADD PUSH2 0xE7C JUMP JUMPDEST SWAP2 POP POP SWAP3 SWAP6 POP SWAP3 SWAP6 SWAP1 SWAP4 POP JUMP JUMPDEST PUSH0 DUP2 SWAP1 POP SWAP3 SWAP2 POP POP JUMP JUMPDEST PUSH0 PUSH2 0xF36 DUP4 DUP6 PUSH2 0xF21 JUMP JUMPDEST SWAP4 POP PUSH2 0xF43 DUP4 DUP6 DUP5 PUSH2 0xB3F JUMP JUMPDEST DUP3 DUP5 ADD SWAP1 POP SWAP4 SWAP3 POP POP POP JUMP JUMPDEST PUSH0 PUSH2 0xF5B DUP3 DUP5 DUP7 PUSH2 0xF2B JUMP JUMPDEST SWAP2 POP DUP2 SWAP1 POP SWAP4 SWAP3 POP POP POP JUMP JUMPDEST PUSH32 0x4E487B7100000000000000000000000000000000000000000000000000000000 PUSH0 MSTORE PUSH1 0x22 PUSH1 0x4 MSTORE PUSH1 0x24 PUSH0 REVERT JUMPDEST PUSH0 PUSH1 0x2 DUP3 DIV SWAP1 POP PUSH1 0x1 DUP3 AND DUP1 PUSH2 0xFAB JUMPI PUSH1 0x7F DUP3 AND SWAP2 POP JUMPDEST PUSH1 0x20 DUP3 LT DUP2 SUB PUSH2 0xFBE JUMPI PUSH2 0xFBD PUSH2 0xF67 JUMP JUMPDEST JUMPDEST POP SWAP2 SWAP1 POP JUMP JUMPDEST PUSH0 DUP3 DUP3 MSTORE PUSH1 0x20 DUP3 ADD SWAP1 POP SWAP3 SWAP2 POP POP JUMP JUMPDEST PUSH32 0x4C696E6B206E6F7420666F756E64000000000000000000000000000000000000 PUSH0 DUP3 ADD MSTORE POP JUMP JUMPDEST PUSH0 PUSH2 0x1008 PUSH1 0xE DUP4 PUSH2 0xFC4 JUMP JUMPDEST SWAP2 POP PUSH2 0x1013 DUP3 PUSH2 0xFD4 JUMP JUMPDEST PUSH1 0x20 DUP3 ADD SWAP1 POP SWAP2 SWAP1 POP JUMP JUMPDEST PUSH0 PUSH1 0x20 DUP3 ADD SWAP1 POP DUP2 DUP2 SUB PUSH0 DUP4 ADD MSTORE PUSH2 0x1035 DUP2 PUSH2 0xFFC JUMP JUMPDEST SWAP1 POP SWAP2 SWAP1 POP JUMP JUMPDEST PUSH32 0x596F7520616C7265616479206861766520616363657373000000000000000000 PUSH0 DUP3 ADD MSTORE POP JUMP JUMPDEST PUSH0 PUSH2 0x1070 PUSH1 0x17 DUP4 PUSH2 0xFC4 JUMP JUMPDEST SWAP2 POP PUSH2 0x107B DUP3 PUSH2 0x103C JUMP JUMPDEST PUSH1 0x20 DUP3 ADD SWAP1 POP SWAP2 SWAP1 POP JUMP JUMPDEST PUSH0 PUSH1 0x20 DUP3 ADD SWAP1 POP DUP2 DUP2 SUB PUSH0 DUP4 ADD MSTORE PUSH2 0x109D DUP2 PUSH2 0x1064 JUMP JUMPDEST SWAP1 POP SWAP2 SWAP1 POP JUMP JUMPDEST PUSH32 0x496E73756666696369656E74207061796D656E74000000000000000000000000 PUSH0 DUP3 ADD MSTORE POP JUMP JUMPDEST PUSH0 PUSH2 0x10D8 PUSH1 0x14 DUP4 PUSH2 0xFC4 JUMP JUMPDEST SWAP2 POP PUSH2 0x10E3 DUP3 PUSH2 0x10A4 JUMP JUMPDEST PUSH1 0x20 DUP3 ADD SWAP1 POP SWAP2 SWAP1 POP JUMP JUMPDEST PUSH0 PUSH1 0x20 DUP3 ADD SWAP1 POP DUP2 DUP2 SUB PUSH0 DUP4 ADD MSTORE PUSH2 0x1105 DUP2 PUSH2 0x10CC JUMP JUMPDEST SWAP1 POP SWAP2 SWAP1 POP JUMP JUMPDEST PUSH32 0x4E487B7100000000000000000000000000000000000000000000000000000000 PUSH0 MSTORE PUSH1 0x11 PUSH1 0x4 MSTORE PUSH1 0x24 PUSH0 REVERT JUMPDEST PUSH0 PUSH2 0x1143 DUP3 PUSH2 0xDB9 JUMP JUMPDEST SWAP2 POP PUSH2 0x114E DUP4 PUSH2 0xDB9 JUMP JUMPDEST SWAP3 POP DUP3 DUP3 SUB SWAP1 POP DUP2 DUP2 GT ISZERO PUSH2 0x1166 JUMPI PUSH2 0x1165 PUSH2 0x110C JUMP JUMPDEST JUMPDEST SWAP3 SWAP2 POP POP JUMP JUMPDEST PUSH32 0x54686973206C696E6B496420616C72656164792068617320616E206F776E6572 PUSH0 DUP3 ADD MSTORE POP JUMP JUMPDEST PUSH0 PUSH2 0x11A0 PUSH1 0x20 DUP4 PUSH2 0xFC4 JUMP JUMPDEST SWAP2 POP PUSH2 0x11AB DUP3 PUSH2 0x116C JUMP JUMPDEST PUSH1 0x20 DUP3 ADD SWAP1 POP SWAP2 SWAP1 POP JUMP JUMPDEST PUSH0 PUSH1 0x20 DUP3 ADD SWAP1 POP DUP2 DUP2 SUB PUSH0 DUP4 ADD MSTORE PUSH2 0x11CD DUP2 PUSH2 0x1194 JUMP JUMPDEST SWAP1 POP SWAP2 SWAP1 POP JUMP JUMPDEST PUSH32 0x46656520746F6F206C6F77000000000000000000000000000000000000000000 PUSH0 DUP3 ADD MSTORE POP JUMP JUMPDEST PUSH0 PUSH2 0x1208 PUSH1 0xB DUP4 PUSH2 0xFC4 JUMP JUMPDEST SWAP2 POP PUSH2 0x1213 DUP3 PUSH2 0x11D4 JUMP JUMPDEST PUSH1 0x20 DUP3 ADD SWAP1 POP SWAP2 SWAP1 POP JUMP JUMPDEST PUSH0 PUSH1 0x20 DUP3 ADD SWAP1 POP DUP2 DUP2 SUB PUSH0 DUP4 ADD MSTORE PUSH2 0x1235 DUP2 PUSH2 0x11FC JUMP JUMPDEST SWAP1 POP SWAP2 SWAP1 POP JUMP JUMPDEST PUSH0 DUP2 SWAP1 POP DUP2 PUSH0 MSTORE PUSH1 0x20 PUSH0 KECCAK256 SWAP1 POP SWAP2 SWAP1 POP JUMP JUMPDEST PUSH0 PUSH1 0x20 PUSH1 0x1F DUP4 ADD DIV SWAP1 POP SWAP2 SWAP1 POP JUMP JUMPDEST PUSH0 DUP3 DUP3 SHL SWAP1 POP SWAP3 SWAP2 POP POP JUMP JUMPDEST PUSH0 PUSH1 0x8 DUP4 MUL PUSH2 0x1298 PUSH32 0xFFFFFFFFFFFFFFFFFFFFFFFFFFFFFFFFFFFFFFFFFFFFFFFFFFFFFFFFFFFFFFFF DUP3 PUSH2 0x125D JUMP JUMPDEST PUSH2 0x12A2 DUP7 DUP4 PUSH2 0x125D JUMP JUMPDEST SWAP6 POP DUP1 NOT DUP5 AND SWAP4 POP DUP1 DUP7 AND DUP5 OR SWAP3 POP POP POP SWAP4 SWAP3 POP POP POP JUMP JUMPDEST PUSH0 DUP2 SWAP1 POP SWAP2 SWAP1 POP JUMP JUMPDEST PUSH0 PUSH2 0x12DD PUSH2 0x12D8 PUSH2 0x12D3 DUP5 PUSH2 0xDB9 JUMP JUMPDEST PUSH2 0x12BA JUMP JUMPDEST PUSH2 0xDB9 JUMP JUMPDEST SWAP1 POP SWAP2 SWAP1 POP JUMP JUMPDEST PUSH0 DUP2 SWAP1 POP SWAP2 SWAP1 POP JUMP JUMPDEST PUSH2 0x12F6 DUP4 PUSH2 0x12C3 JUMP JUMPDEST PUSH2 0x130A PUSH2 0x1302 DUP3 PUSH2 0x12E4 JUMP JUMPDEST DUP5 DUP5 SLOAD PUSH2 0x1269 JUMP JUMPDEST DUP3 SSTORE POP POP POP POP JUMP JUMPDEST PUSH0 PUSH0 SWAP1 POP SWAP1 JUMP JUMPDEST PUSH2 0x1321 PUSH2 0x1312 JUMP JUMPDEST PUSH2 0x132C DUP2 DUP5 DUP5 PUSH2 0x12ED JUMP JUMPDEST POP POP POP JUMP JUMPDEST JUMPDEST DUP2 DUP2 LT ISZERO PUSH2 0x134F JUMPI PUSH2 0x1344 PUSH0 DUP3 PUSH2 0x1319 JUMP JUMPDEST PUSH1 0x1 DUP2 ADD SWAP1 POP PUSH2 0x1332 JUMP JUMPDEST POP POP JUMP JUMPDEST PUSH1 0x1F DUP3 GT ISZERO PUSH2 0x1394 JUMPI PUSH2 0x1365 DUP2 PUSH2 0x123C JUMP JUMPDEST PUSH2 0x136E DUP5 PUSH2 0x124E JUMP JUMPDEST DUP2 ADD PUSH1 0x20 DUP6 LT ISZERO PUSH2 0x137D JUMPI DUP2 SWAP1 POP JUMPDEST PUSH2 0x1391 PUSH2 0x1389 DUP6 PUSH2 0x124E JUMP JUMPDEST DUP4 ADD DUP3 PUSH2 0x1331 JUMP JUMPDEST POP POP JUMPDEST POP POP POP JUMP JUMPDEST PUSH0 DUP3 DUP3 SHR SWAP1 POP SWAP3 SWAP2 POP POP JUMP JUMPDEST PUSH0 PUSH2 0x13B4 PUSH0 NOT DUP5 PUSH1 0x8 MUL PUSH2 0x1399 JUMP JUMPDEST NOT DUP1 DUP4 AND SWAP2 POP POP SWAP3 SWAP2 POP POP JUMP JUMPDEST PUSH0 PUSH2 0x13CC DUP4 DUP4 PUSH2 0x13A5 JUMP JUMPDEST SWAP2 POP DUP3 PUSH1 0x2 MUL DUP3 OR SWAP1 POP SWAP3 SWAP2 POP POP JUMP JUMPDEST PUSH2 0x13E5 DUP3 PUSH2 0xD4A JUMP JUMPDEST PUSH8 0xFFFFFFFFFFFFFFFF DUP2 GT ISZERO PUSH2 0x13FE JUMPI PUSH2 0x13FD PUSH2 0xA97 JUMP JUMPDEST JUMPDEST PUSH2 0x1408 DUP3 SLOAD PUSH2 0xF94 JUMP JUMPDEST PUSH2 0x1413 DUP3 DUP3 DUP6 PUSH2 0x1353 JUMP JUMPDEST PUSH0 PUSH1 0x20 SWAP1 POP PUSH1 0x1F DUP4 GT PUSH1 0x1 DUP2 EQ PUSH2 0x1444 JUMPI PUSH0 DUP5 ISZERO PUSH2 0x1432 JUMPI DUP3 DUP8 ADD MLOAD SWAP1 POP JUMPDEST PUSH2 0x143C DUP6 DUP3 PUSH2 0x13C1 JUMP JUMPDEST DUP7 SSTORE POP PUSH2 0x14A3 JUMP JUMPDEST PUSH1 0x1F NOT DUP5 AND PUSH2 0x1452 DUP7 PUSH2 0x123C JUMP JUMPDEST PUSH0 JUMPDEST DUP3 DUP2 LT ISZERO PUSH2 0x1479 JUMPI DUP5 DUP10 ADD MLOAD DUP3 SSTORE PUSH1 0x1 DUP3 ADD SWAP2 POP PUSH1 0x20 DUP6 ADD SWAP5 POP PUSH1 0x20 DUP2 ADD SWAP1 POP PUSH2 0x1454 JUMP JUMPDEST DUP7 DUP4 LT ISZERO PUSH2 0x1496 JUMPI DUP5 DUP10 ADD MLOAD PUSH2 0x1492 PUSH1 0x1F DUP10 AND DUP3 PUSH2 0x13A5 JUMP JUMPDEST DUP4 SSTORE POP JUMPDEST PUSH1 0x1 PUSH1 0x2 DUP9 MUL ADD DUP9 SSTORE POP POP POP JUMPDEST POP POP POP POP POP POP JUMP INVALID LOG2 PUSH5 0x6970667358 0x22 SLT KECCAK256 0xDC 0xB3 PUSH2 0x6BA3 0x28 0xB3 SWAP5 0x4D BASEFEE 0xC2 0xA8 0x22 0xAC 0xD7 DUP3 EXTDELEGATECALL 0xB3 0xB9 SWAP4 PUSH7 0xF08111BE987E1F JUMPF 0x401 SHR PUSH5 0x736F6C6343 STOP ADDMOD 0x1E STOP CALLER "
		},
		"gasEstimates": {
			"creation": {
				"codeDepositCost": "1069000",
				"executionCost": "23217",
				"totalCost": "1092217"
			},
			"external": {
				"addLink(string,string,uint256)": "infinite",
				"commission()": "2468",
				"getLink(string)": "infinite",
				"hasAccess(string,address)": "infinite",
				"payLink(string)": "infinite"
			}
		},
		"methodIdentifiers": {
			"addLink(string,string,uint256)": "fc5f2b78",
			"commission()": "e1489191",
			"getLink(string)": "7476452a",
			"hasAccess(string,address)": "13bd20e2",
			"payLink(string)": "429cad86"
		}
	},
	"abi": [
		{
			"inputs": [
				{
					"internalType": "string",
					"name": "url",
					"type": "string"
				},
				{
					"internalType": "string",
					"name": "linkId",
					"type": "string"
				},
				{
					"internalType": "uint256",
					"name": "fee",
					"type": "uint256"
				}
			],
			"name": "addLink",
			"outputs": [],
			"stateMutability": "nonpayable",
			"type": "function"
		},
		{
			"inputs": [],
			"name": "commission",
			"outputs": [
				{
					"internalType": "uint256",
					"name": "",
					"type": "uint256"
				}
			],
			"stateMutability": "view",
			"type": "function"
		},
		{
			"inputs": [
				{
					"internalType": "string",
					"name": "linkId",
					"type": "string"
				}
			],
			"name": "getLink",
			"outputs": [
				{
					"components": [
						{
							"internalType": "string",
							"name": "url",
							"type": "string"
						},
						{
							"internalType": "address",
							"name": "owner",
							"type": "address"
						},
						{
							"internalType": "uint256",
							"name": "fee",
							"type": "uint256"
						}
					],
					"internalType": "struct LinkShield.Link",
					"name": "",
					"type": "tuple"
				}
			],
			"stateMutability": "view",
			"type": "function"
		},
		{
			"inputs": [
				{
					"internalType": "string",
					"name": "",
					"type": "string"
				},
				{
					"internalType": "address",
					"name": "",
					"type": "address"
				}
			],
			"name": "hasAccess",
			"outputs": [
				{
					"internalType": "bool",
					"name": "",
					"type": "bool"
				}
			],
			"stateMutability": "view",
			"type": "function"
		},
		{
			"inputs": [
				{
					"internalType": "string",
					"name": "linkId",
					"type": "string"
				}
			],
			"name": "payLink",
			"outputs": [],
			"stateMutability": "payable",
			"type": "function"
		}
	]
}